{"abi":[{"type":"constructor","inputs":[{"name":"_tradingAgent","type":"address","internalType":"address"},{"name":"_feeRecipient","type":"address","internalType":"address"},{"name":"_x402Recipient","type":"address","internalType":"address"},{"name":"_maxTradeSize","type":"uint256","internalType":"uint256"},{"name":"_dailyTradeLimit","type":"uint256","internalType":"uint256"}],"stateMutability":"nonpayable"},{"type":"receive","stateMutability":"payable"},{"type":"function","name":"acceptOwnership","inputs":[],"outputs":[],"stateMutability":"nonpayable"},{"type":"function","name":"addSupportedToken","inputs":[{"name":"token","type":"address","internalType":"address"}],"outputs":[],"stateMutability":"nonpayable"},{"type":"function","name":"autoWithdrawRecipient","inputs":[],"outputs":[{"name":"","type":"address","internalType":"address"}],"stateMutability":"view"},{"type":"function","name":"autoWithdrawThreshold","inputs":[],"outputs":[{"name":"","type":"uint256","internalType":"uint256"}],"stateMutability":"view"},{"type":"function","name":"dailyTradeLimit","inputs":[],"outputs":[{"name":"","type":"uint256","internalType":"uint256"}],"stateMutability":"view"},{"type":"function","name":"dailyTrades","inputs":[],"outputs":[{"name":"","type":"uint256","internalType":"uint256"}],"stateMutability":"view"},{"type":"function","name":"depositETH","inputs":[],"outputs":[],"stateMutability":"payable"},{"type":"function","name":"depositToken","inputs":[{"name":"token","type":"address","internalType":"address"},{"name":"amount","type":"uint256","internalType":"uint256"}],"outputs":[],"stateMutability":"nonpayable"},{"type":"function","name":"emergencyWithdraw","inputs":[{"name":"token","type":"address","internalType":"address"}],"outputs":[],"stateMutability":"nonpayable"},{"type":"function","name":"executeTrade","inputs":[{"name":"tradeId","type":"bytes32","internalType":"bytes32"},{"name":"tokenIn","type":"address","internalType":"address"},{"name":"tokenOut","type":"address","internalType":"address"},{"name":"amountIn","type":"uint256","internalType":"uint256"},{"name":"amountOut","type":"uint256","internalType":"uint256"},{"name":"isProfit","type":"bool","internalType":"bool"}],"outputs":[{"name":"fee","type":"uint256","internalType":"uint256"}],"stateMutability":"nonpayable"},{"type":"function","name":"feeRecipient","inputs":[],"outputs":[{"name":"","type":"address","internalType":"address"}],"stateMutability":"view"},{"type":"function","name":"getSummary","inputs":[],"outputs":[{"name":"_tradingBalance","type":"uint256","internalType":"uint256"},{"name":"_totalProfit","type":"uint256","internalType":"uint256"},{"name":"_totalFeesCollected","type":"uint256","internalType":"uint256"},{"name":"_totalTrades","type":"uint256","internalType":"uint256"},{"name":"_totalWithdrawn","type":"uint256","internalType":"uint256"},{"name":"_withdrawableProfit","type":"uint256","internalType":"uint256"},{"name":"_isPaused","type":"bool","internalType":"bool"}],"stateMutability":"view"},{"type":"function","name":"getSupportedTokens","inputs":[],"outputs":[{"name":"","type":"address[]","internalType":"address[]"}],"stateMutability":"view"},{"type":"function","name":"getTradeCount","inputs":[],"outputs":[{"name":"","type":"uint256","internalType":"uint256"}],"stateMutability":"view"},{"type":"function","name":"getTrades","inputs":[{"name":"offset","type":"uint256","internalType":"uint256"},{"name":"limit","type":"uint256","internalType":"uint256"}],"outputs":[{"name":"","type":"tuple[]","internalType":"struct TradeEscrow.Trade[]","components":[{"name":"tradeId","type":"bytes32","internalType":"bytes32"},{"name":"tokenIn","type":"address","internalType":"address"},{"name":"tokenOut","type":"address","internalType":"address"},{"name":"amountIn","type":"uint256","internalType":"uint256"},{"name":"amountOut","type":"uint256","internalType":"uint256"},{"name":"feeDeducted","type":"uint256","internalType":"uint256"},{"name":"timestamp","type":"uint256","internalType":"uint256"},{"name":"isProfit","type":"bool","internalType":"bool"}]}],"stateMutability":"view"},{"type":"function","name":"getWithdrawalCount","inputs":[],"outputs":[{"name":"","type":"uint256","internalType":"uint256"}],"stateMutability":"view"},{"type":"function","name":"getWithdrawals","inputs":[{"name":"offset","type":"uint256","internalType":"uint256"},{"name":"limit","type":"uint256","internalType":"uint256"}],"outputs":[{"name":"","type":"tuple[]","internalType":"struct TradeEscrow.Withdrawal[]","components":[{"name":"recipient","type":"address","internalType":"address"},{"name":"token","type":"address","internalType":"address"},{"name":"amount","type":"uint256","internalType":"uint256"},{"name":"timestamp","type":"uint256","internalType":"uint256"}]}],"stateMutability":"view"},{"type":"function","name":"isPaused","inputs":[],"outputs":[{"name":"","type":"bool","internalType":"bool"}],"stateMutability":"view"},{"type":"function","name":"lastTradeDayReset","inputs":[],"outputs":[{"name":"","type":"uint256","internalType":"uint256"}],"stateMutability":"view"},{"type":"function","name":"maxTradeSize","inputs":[],"outputs":[{"name":"","type":"uint256","internalType":"uint256"}],"stateMutability":"view"},{"type":"function","name":"owner","inputs":[],"outputs":[{"name":"","type":"address","internalType":"address"}],"stateMutability":"view"},{"type":"function","name":"pause","inputs":[],"outputs":[],"stateMutability":"nonpayable"},{"type":"function","name":"paused","inputs":[],"outputs":[{"name":"","type":"bool","internalType":"bool"}],"stateMutability":"view"},{"type":"function","name":"pendingOwner","inputs":[],"outputs":[{"name":"","type":"address","internalType":"address"}],"stateMutability":"view"},{"type":"function","name":"profitShareBps","inputs":[],"outputs":[{"name":"","type":"uint256","internalType":"uint256"}],"stateMutability":"view"},{"type":"function","name":"removeSupportedToken","inputs":[{"name":"token","type":"address","internalType":"address"}],"outputs":[],"stateMutability":"nonpayable"},{"type":"function","name":"setAutoWithdraw","inputs":[{"name":"_threshold","type":"uint256","internalType":"uint256"},{"name":"_recipient","type":"address","internalType":"address"}],"outputs":[],"stateMutability":"nonpayable"},{"type":"function","name":"setFeeConfiguration","inputs":[{"name":"_tradingFeeBps","type":"uint256","internalType":"uint256"},{"name":"_profitShareBps","type":"uint256","internalType":"uint256"},{"name":"_x402AllocationBps","type":"uint256","internalType":"uint256"}],"outputs":[],"stateMutability":"nonpayable"},{"type":"function","name":"setTradeLimits","inputs":[{"name":"_maxTradeSize","type":"uint256","internalType":"uint256"},{"name":"_dailyTradeLimit","type":"uint256","internalType":"uint256"}],"outputs":[],"stateMutability":"nonpayable"},{"type":"function","name":"setTradingAgent","inputs":[{"name":"_agent","type":"address","internalType":"address"}],"outputs":[],"stateMutability":"nonpayable"},{"type":"function","name":"supportedTokens","inputs":[{"name":"","type":"address","internalType":"address"}],"outputs":[{"name":"","type":"bool","internalType":"bool"}],"stateMutability":"view"},{"type":"function","name":"tokenBalances","inputs":[{"name":"","type":"address","internalType":"address"}],"outputs":[{"name":"","type":"uint256","internalType":"uint256"}],"stateMutability":"view"},{"type":"function","name":"tokenList","inputs":[{"name":"","type":"uint256","internalType":"uint256"}],"outputs":[{"name":"","type":"address","internalType":"address"}],"stateMutability":"view"},{"type":"function","name":"totalFeesCollected","inputs":[],"outputs":[{"name":"","type":"uint256","internalType":"uint256"}],"stateMutability":"view"},{"type":"function","name":"totalProfit","inputs":[],"outputs":[{"name":"","type":"uint256","internalType":"uint256"}],"stateMutability":"view"},{"type":"function","name":"totalTrades","inputs":[],"outputs":[{"name":"","type":"uint256","internalType":"uint256"}],"stateMutability":"view"},{"type":"function","name":"totalWithdrawn","inputs":[],"outputs":[{"name":"","type":"uint256","internalType":"uint256"}],"stateMutability":"view"},{"type":"function","name":"trades","inputs":[{"name":"","type":"uint256","internalType":"uint256"}],"outputs":[{"name":"tradeId","type":"bytes32","internalType":"bytes32"},{"name":"tokenIn","type":"address","internalType":"address"},{"name":"tokenOut","type":"address","internalType":"address"},{"name":"amountIn","type":"uint256","internalType":"uint256"},{"name":"amountOut","type":"uint256","internalType":"uint256"},{"name":"feeDeducted","type":"uint256","internalType":"uint256"},{"name":"timestamp","type":"uint256","internalType":"uint256"},{"name":"isProfit","type":"bool","internalType":"bool"}],"stateMutability":"view"},{"type":"function","name":"tradingAgent","inputs":[],"outputs":[{"name":"","type":"address","internalType":"address"}],"stateMutability":"view"},{"type":"function","name":"tradingBalance","inputs":[],"outputs":[{"name":"","type":"uint256","internalType":"uint256"}],"stateMutability":"view"},{"type":"function","name":"tradingFeeBps","inputs":[],"outputs":[{"name":"","type":"uint256","internalType":"uint256"}],"stateMutability":"view"},{"type":"function","name":"transferOwnership","inputs":[{"name":"newOwner","type":"address","internalType":"address"}],"outputs":[],"stateMutability":"nonpayable"},{"type":"function","name":"unpause","inputs":[],"outputs":[],"stateMutability":"nonpayable"},{"type":"function","name":"withdrawAllProfits","inputs":[],"outputs":[],"stateMutability":"nonpayable"},{"type":"function","name":"withdrawProfits","inputs":[{"name":"token","type":"address","internalType":"address"},{"name":"amount","type":"uint256","internalType":"uint256"}],"outputs":[],"stateMutability":"nonpayable"},{"type":"function","name":"withdrawals","inputs":[{"name":"","type":"uint256","internalType":"uint256"}],"outputs":[{"name":"recipient","type":"address","internalType":"address"},{"name":"token","type":"address","internalType":"address"},{"name":"amount","type":"uint256","internalType":"uint256"},{"name":"timestamp","type":"uint256","internalType":"uint256"}],"stateMutability":"view"},{"type":"function","name":"x402AllocationBps","inputs":[],"outputs":[{"name":"","type":"uint256","internalType":"uint256"}],"stateMutability":"view"},{"type":"function","name":"x402Recipient","inputs":[],"outputs":[{"name":"","type":"address","internalType":"address"}],"stateMutability":"view"},{"type":"event","name":"Deposited","inputs":[{"name":"from","type":"address","indexed":true,"internalType":"address"},{"name":"token","type":"address","indexed":true,"internalType":"address"},{"name":"amount","type":"uint256","indexed":false,"internalType":"uint256"}],"anonymous":false},{"type":"event","name":"EmergencyWithdrawal","inputs":[{"name":"by","type":"address","indexed":true,"internalType":"address"},{"name":"token","type":"address","indexed":true,"internalType":"address"},{"name":"amount","type":"uint256","indexed":false,"internalType":"uint256"}],"anonymous":false},{"type":"event","name":"FeeCollected","inputs":[{"name":"recipient","type":"address","indexed":true,"internalType":"address"},{"name":"amount","type":"uint256","indexed":false,"internalType":"uint256"}],"anonymous":false},{"type":"event","name":"FeeConfigurationUpdated","inputs":[{"name":"tradingFeeBps","type":"uint256","indexed":false,"internalType":"uint256"},{"name":"profitShareBps","type":"uint256","indexed":false,"internalType":"uint256"},{"name":"x402AllocationBps","type":"uint256","indexed":false,"internalType":"uint256"}],"anonymous":false},{"type":"event","name":"OwnershipTransferred","inputs":[{"name":"oldOwner","type":"address","indexed":true,"internalType":"address"},{"name":"newOwner","type":"address","indexed":true,"internalType":"address"}],"anonymous":false},{"type":"event","name":"Paused","inputs":[{"name":"by","type":"address","indexed":true,"internalType":"address"},{"name":"timestamp","type":"uint256","indexed":false,"internalType":"uint256"}],"anonymous":false},{"type":"event","name":"TradeExecuted","inputs":[{"name":"tradeId","type":"bytes32","indexed":true,"internalType":"bytes32"},{"name":"tokenIn","type":"address","indexed":true,"internalType":"address"},{"name":"tokenOut","type":"address","indexed":true,"internalType":"address"},{"name":"amountIn","type":"uint256","indexed":false,"internalType":"uint256"},{"name":"amountOut","type":"uint256","indexed":false,"internalType":"uint256"},{"name":"fee","type":"uint256","indexed":false,"internalType":"uint256"},{"name":"isProfit","type":"bool","indexed":false,"internalType":"bool"}],"anonymous":false},{"type":"event","name":"TradingAgentUpdated","inputs":[{"name":"oldAgent","type":"address","indexed":true,"internalType":"address"},{"name":"newAgent","type":"address","indexed":true,"internalType":"address"}],"anonymous":false},{"type":"event","name":"Unpaused","inputs":[{"name":"by","type":"address","indexed":true,"internalType":"address"},{"name":"timestamp","type":"uint256","indexed":false,"internalType":"uint256"}],"anonymous":false},{"type":"event","name":"WithdrawalProcessed","inputs":[{"name":"recipient","type":"address","indexed":true,"internalType":"address"},{"name":"token","type":"address","indexed":true,"internalType":"address"},{"name":"amount","type":"uint256","indexed":false,"internalType":"uint256"}],"anonymous":false}],"bytecode":{"object":"0x6080346100f257601f6125d638819003918201601f19168301916001600160401b038311848410176100f65780849260a0946040528339810103126100f2576100478161010a565b906100546020820161010a565b6100606040830161010a565b6060830151608093909301516032600a556103e8600b555f600c819055600d8190556013805460ff19169055600160195580546001600160a01b031990811633179091556002805482166001600160a01b03978816179055600380548216948716949094179093556004805490931694909116939093179055600f55601055426012556040516124b7908161011f8239f35b5f80fd5b634e487b7160e01b5f52604160045260245ffd5b51906001600160a01b03821682036100f25756fe60806040526004361015610047575b3615610018575f80fd5b5f6040513481527f8752a472e571a816aea92eec8dae9baf628e840f4929fbcc2d155e6233ff68a760203392a3005b5f3560e01c8063015755f714611aa457806303439a9f14611a795780630f48340714611a5c57806310fa79e214611a3f57806316a1bb79146116395780631e6c598e146115a4578063338b5dea1461148957806334053484146113095780633e86fd90146111c85780633f4ba83a1461116c5780634051ddac146111105780634639737d146110f357806346904840146110cb5780634b319713146110ae57806351cd7cb814611091578063523fba7f1461105957806354b00c8a1461103c5780635b116f3a14610fe75780635c975abb1461080c5780635c9d78b514610fca5780635cc0707614610f6657806360c6d8ae14610f4957806368c4ac2614610f0c5780636d69fcaf14610e4a5780636ff1c9bc14610c8a5780637631919014610c23578063781952a814610c0657806379ba509714610b54578063838123c014610b2c5780638456cb5914610acd57806384c5dd0114610ab05780638600151914610a935780638da5cb5b14610a6c578063924cca9a14610a4f578063951c7d4014610a275780639ead7222146109e55780639eb897e2146109c8578063a3031b77146109ab578063aafc96511461082e578063b187bd261461080c578063ce2da9bb14610684578063d3c7c2c7146105bc578063e00621b014610594578063e275c99714610577578063e30c39781461054f578063f2fde38b146104f2578063f6326fb31461045e5763fa6e9bf00361000e573461045a5761029761026c36611b53565b9080929161028860175491610282838510611fc2565b83611cfc565b90808211610452575b50611d72565b6102a081612018565b916102ae6040519384611db8565b818352601f196102bd83612018565b015f5b81811061040b5750505f5b82811061037157836040518091602082016020835281518091526020604084019201905f5b8181106102fe575050500390f35b91935091602061010060019260e0875180518352858060a01b03858201511685840152858060a01b036040820151166040840152606081015160608401526080810151608084015260a081015160a084015260c081015160c08401520151151560e08201520194019101918493926102f0565b8061038661038160019385611cfc565b611b69565b5060ff60076040519261039884611d7f565b80548452858060a01b0386820154166020850152858060a01b0360028201541660408501526003810154606085015260048101546080850152600581015460a0850152600681015460c0850152015416151560e08201526103f98287612030565b526104048186612030565b50016102cb565b60209060405161041a81611d7f565b5f81525f838201525f60408201525f60608201525f60808201525f60a08201525f60c08201525f60e0820152828288010152016102c0565b90505f610291565b5f80fd5b5f36600319011261045a5761047860ff6013541615611c65565b610486600160195414611cb1565b6002601955610496341515611e33565b5f8052601560205260405f206104ad348254611cfc565b90556104bb34600554611cfc565b6005555f6040513481527f8752a472e571a816aea92eec8dae9baf628e840f4929fbcc2d155e6233ff68a760203392a36001601955005b3461045a57602036600319011261045a5761050b611b27565b61051f60018060a01b035f54163314611bcd565b6001600160a01b0316610533811515611c19565b6bffffffffffffffffffffffff60a01b60015416176001555f80f35b3461045a575f36600319011261045a576001546040516001600160a01b039091168152602090f35b3461045a575f36600319011261045a576020600854604051908152f35b3461045a575f36600319011261045a57600e546040516001600160a01b039091168152602090f35b3461045a575f36600319011261045a576040518060206016549283815201809260165f527fd833147d7dc355ba459fc788f669e58cfaf9dc25ddcd0702e87d69c7b5124289905f5b818110610665575050508161061a910382611db8565b604051918291602083019060208452518091526040830191905f5b818110610643575050500390f35b82516001600160a01b0316845285945060209384019390920191600101610635565b82546001600160a01b0316845260209093019260019283019201610604565b3461045a576106b961069536611b53565b908092916106ab60185491610282838510611fc2565b908082116108045750611d72565b6106c281612018565b916106d06040519384611db8565b818352601f196106df83612018565b015f5b8181106107d55750505f5b82811061076a57836040518091602082016020835281518091526020604084019201905f5b818110610720575050500390f35b825180516001600160a01b03908116865260208281015190911681870152604080830151908701526060918201519186019190915286955060809094019390920191600101610712565b8061077f61077a60019385611cfc565b611b99565b5060036040519161078f83611d9c565b805460a086901b86900390811684528186015416602084015260028101546040840152015460608201526107c38287612030565b526107ce8186612030565b50016106ed565b6020906040516107e481611d9c565b5f81525f838201525f60408201525f6060820152828288010152016106e2565b905084610291565b3461045a575f36600319011261045a57602060ff601354166040519015158152f35b3461045a57604036600319011261045a57610847611b27565b6024359061085f60018060a01b035f54163314611bcd565b61086d600160195414611cb1565b600260195561087d821515611e33565b60018060a01b031690815f52601560205261089e8160405f20541015611d09565b815f52601560205260405f206108b5828254611d72565b90556108c381600554611d72565b6005556108d281600954611cfc565b6009558161093c576108f35f80808085335af16108ed611e97565b50611ed6565b61091c60405161090281611d9c565b338152836020820152826040820152426060820152611f2d565b6040519081525f5160206124625f395f51905f5260203392a36001601955005b60405163a9059cbb60e01b8152336004820152602481018290526020816044815f875af180156109a057610971575b506108f3565b6109929060203d602011610999575b61098a8183611db8565b810190611e7f565b508261096b565b503d610980565b6040513d5f823e3d90fd5b3461045a575f36600319011261045a576020601754604051908152f35b3461045a575f36600319011261045a576020601254604051908152f35b3461045a57602036600319011261045a5760043560165481101561045a57610a0e602091611bb5565b905460405160039290921b1c6001600160a01b03168152f35b3461045a575f36600319011261045a576002546040516001600160a01b039091168152602090f35b3461045a575f36600319011261045a576020600a54604051908152f35b3461045a575f36600319011261045a575f546040516001600160a01b039091168152602090f35b3461045a575f36600319011261045a576020600654604051908152f35b3461045a575f36600319011261045a576020600d54604051908152f35b3461045a575f36600319011261045a57610af160018060a01b035f54163314611bcd565b600160ff1960135416176013556040514281527fab40a374bc51de372200a8bc981af8c9ecdc08dfdaef0bb6e09f88f3c616ef3d60203392a2005b3461045a575f36600319011261045a576004546040516001600160a01b039091168152602090f35b3461045a575f36600319011261045a576001546001600160a01b03811633819003610bc1575f548160018060a01b0382167f8be0079c531659141344cd1fd0a4f28419497f9722a3daafe3b4186f6b6457e05f80a36001600160a01b0319908116919091175f5516600155005b60405162461bcd60e51b815260206004820152601e60248201527f5472616465457363726f773a206e6f742070656e64696e67206f776e657200006044820152606490fd5b3461045a575f36600319011261045a576020601854604051908152f35b3461045a57602036600319011261045a57610c3c611b27565b610c5060018060a01b035f54163314611bcd565b6001600160a01b03165f81815260146020526040902054610c739060ff16611de8565b5f908152601460205260409020805460ff19169055005b3461045a57602036600319011261045a57610ca3611b27565b610cb760018060a01b035f54163314611bcd565b610cc5600160195414611cb1565b60026019556001600160a01b03165f818152601560205260409020548015610e0557600160ff1960135416176013556040514281527fab40a374bc51de372200a8bc981af8c9ecdc08dfdaef0bb6e09f88f3c616ef3d60203392a2815f5260156020525f6040812055610d3a81600554611d72565b60055581610db157610d555f80808085335af16108ed611e97565b610d6460405161090281611d9c565b816040518281527f9495d03190a79a43e534c9e328ff322f6283261383f5f19c809564f6ad5a57b360203392a36040519081525f5160206124625f395f51905f5260203392a36001601955005b60405163a9059cbb60e01b8152336004820152602481018290526020816044815f875af180156109a057610de6575b50610d55565b610dfe9060203d6020116109995761098a8183611db8565b5082610de0565b60405162461bcd60e51b815260206004820152601760248201527f5472616465457363726f773a206e6f2062616c616e63650000000000000000006044820152606490fd5b3461045a57602036600319011261045a57610e63611b27565b610e7760018060a01b035f54163314611bcd565b6001600160a01b0316610e8b811515611c19565b805f52601460205260ff60405f20541615610ea257005b805f52601460205260405f20600160ff19825416179055601654600160401b811015610ef857806001610ed89201601655611bb5565b81546001600160a01b0360039290921b91821b191692901b919091179055005b634e487b7160e01b5f52604160045260245ffd5b3461045a57602036600319011261045a576001600160a01b03610f2d611b27565b165f526014602052602060ff60405f2054166040519015158152f35b3461045a575f36600319011261045a576020600754604051908152f35b3461045a57602036600319011261045a5760043560185481101561045a57610f8f608091611b99565b50805460018201546002830154600390930154604080516001600160a01b039485168152929093166020830152918101929092526060820152f35b3461045a575f36600319011261045a576020601054604051908152f35b3461045a57604036600319011261045a57611000611b3d565b61101460018060a01b035f54163314611bcd565b600435600d55600e80546001600160a01b0319166001600160a01b0392909216919091179055005b3461045a575f36600319011261045a576020600554604051908152f35b3461045a57602036600319011261045a576001600160a01b0361107a611b27565b165f526015602052602060405f2054604051908152f35b3461045a575f36600319011261045a576020601154604051908152f35b3461045a575f36600319011261045a576020600954604051908152f35b3461045a575f36600319011261045a576003546040516001600160a01b039091168152602090f35b3461045a575f36600319011261045a576020600b54604051908152f35b3461045a575f36600319011261045a5760e06005546006546007546008546009549061113c8285611d72565b9260ff6013541694604051968752602087015260408601526060850152608084015260a0830152151560c0820152f35b3461045a575f36600319011261045a5761119060018060a01b035f54163314611bcd565b60ff19601354166013556040514281527f3582d1828e26bf56bd801502bc021ac0bc8afb57c826e4986b45593c8fad389c60203392a2005b3461045a575f36600319011261045a576111ec60018060a01b035f54163314611bcd565b6111fa600160195414611cb1565b600260195561120e60065460095490611d72565b80156112b8575f805260156020527fa31547ce6245cdb9ecea19cf8c7eb9f5974025bb4075011409251ae855b30aed5481111561124d575b6001601955005b5f90818052601560205260408220611266828254611d72565b905561127481600954611cfc565b60095561128a8280808085335af16108ed611e97565b61129960405161090281611d9c565b6040519081525f5160206124625f395f51905f5260203392a380611246565b60405162461bcd60e51b815260206004820152602360248201527f5472616465457363726f773a206e6f2070726f6669747320746f20776974686460448201526272617760e81b6064820152608490fd5b3461045a57606036600319011261045a576004356024356044359161133860018060a01b035f54163314611bcd565b6103e8811161143a5761138882116113ea576103e88311611397577f665db93b7c86f16aff46fff67ddb74dac24cab4f0a908bca223c8fe4a68c2f529260609282600a5580600b5581600c5560405192835260208301526040820152a1005b60405162461bcd60e51b815260206004820152602560248201527f5472616465457363726f773a207834303220616c6c6f636174696f6e20746f6f604482015264040d0d2ced60db1b6064820152608490fd5b60405162461bcd60e51b815260206004820152602260248201527f5472616465457363726f773a2070726f66697420736861726520746f6f2068696044820152610ced60f31b6064820152608490fd5b60405162461bcd60e51b815260206004820152602160248201527f5472616465457363726f773a2074726164696e672066656520746f6f206869676044820152600d60fb1b6064820152608490fd5b3461045a57604036600319011261045a576114a2611b27565b6001600160a01b03165f81815260146020526040902054602435906114c99060ff16611de8565b6114d860ff6013541615611c65565b6114e6600160195414611cb1565b60026019556114f6811515611e33565b6040516323b872dd60e01b8152336004820152306024820152604481018290526020816064815f875af180156109a057611587575b50815f52601560205260405f20611543828254611cfc565b905561155181600554611cfc565b6005556040519081527f8752a472e571a816aea92eec8dae9baf628e840f4929fbcc2d155e6233ff68a760203392a36001601955005b61159f9060203d6020116109995761098a8183611db8565b61152b565b3461045a57602036600319011261045a5760043560175481101561045a576115ce61010091611b69565b5080549060018060a01b036001820154169060018060a01b03600282015416600382015460048301549060058401549260ff600760068701549601541695604051978852602088015260408701526060860152608085015260a084015260c0830152151560e0820152f35b3461045a5760c036600319011261045a57600435611655611b3d565b6044356001600160a01b0381169081900361045a576064359260a4359060843582151580840361045a576002546001600160a01b031633036119fa576116a060ff6013541615611c65565b6116ae600160195414611cb1565b60026019556012546201518081018091116119e6574210156119d9575b600f548061197a575b5060105480611917575b5060018060a01b03861693845f5260156020526117018860405f20541015611d09565b611758612710611713600a548b611d5f565b049761171f898b611d72565b50865f52601560205260405f206117378b8254611d72565b9055875f52601560205260405f20611750868254611cfc565b905588612044565b6118f4575b6040519661176a88611d7f565b8388526020880191858352604089019387855260608a0199838b52608081019082825260a08101918b835260c0820142815260e0830193868552601754600160401b811015610ef8578060016117c39201601755611b69565b9390936118e1579351835597516001830180546001600160a01b039283166001600160a01b0319918216179091559951600284018054919092169a16999099179098559b5160038d01555160048c0155935160058b0155935160068a015591516007909801805460ff191698151560ff16989098179097556008546020977f8b82ea2ab9b924917c25293be76533ef4919147866f1e5a1df9b6a50b627750d93608093919261187190611dda565b60085561187f601154611dda565b60115561188e89600754611cfc565b600755604051928352898301528760408301526060820152a4600d5480151590816118d4575b506118c7575b6001601955604051908152f35b6118cf61230a565b6118ba565b90506006541015836118b4565b634e487b7160e01b5f525f60045260245ffd5b61190f612710611906600b5489611d5f565b04600654611cfc565b60065561175d565b601154101561192657876116de565b60405162461bcd60e51b815260206004820152602660248201527f5472616465457363726f773a206461696c79207472616465206c696d69742072604482015265195858da195960d21b6064820152608490fd5b871161198657876116d4565b60405162461bcd60e51b815260206004820152602560248201527f5472616465457363726f773a2074726164652073697a652065786365656473206044820152641b1a5b5a5d60da1b6064820152608490fd5b5f601155426012556116cb565b634e487b7160e01b5f52601160045260245ffd5b60405162461bcd60e51b815260206004820152601f60248201527f5472616465457363726f773a206f6e6c792074726164696e67206167656e74006044820152606490fd5b3461045a575f36600319011261045a576020600f54604051908152f35b3461045a575f36600319011261045a576020600c54604051908152f35b3461045a57611a8736611b53565b90611a9c60018060a01b035f54163314611bcd565b600f55601055005b3461045a57602036600319011261045a57611abd611b27565b611ad160018060a01b035f54163314611bcd565b6001600160a01b0316611ae5811515611c19565b600254816001600160a01b0382167f3a8f5c65cde46774e9140c209579ba6658ef5245703f6f1c70251314cbdfde195f80a36001600160a01b03191617600255005b600435906001600160a01b038216820361045a57565b602435906001600160a01b038216820361045a57565b604090600319011261045a576004359060243590565b601754811015611b855760175f5260205f209060031b01905f90565b634e487b7160e01b5f52603260045260245ffd5b601854811015611b855760185f5260205f209060021b01905f90565b601654811015611b855760165f5260205f2001905f90565b15611bd457565b60405162461bcd60e51b815260206004820152601760248201527f5472616465457363726f773a206f6e6c79206f776e65720000000000000000006044820152606490fd5b15611c2057565b60405162461bcd60e51b815260206004820152601960248201527f5472616465457363726f773a207a65726f2061646472657373000000000000006044820152606490fd5b15611c6c57565b60405162461bcd60e51b815260206004820152601f60248201527f5472616465457363726f773a20636f6e747261637420697320706175736564006044820152606490fd5b15611cb857565b606460405162461bcd60e51b815260206004820152602060248201527f5472616465457363726f773a207265656e7472616e63792064657465637465646044820152fd5b919082018092116119e657565b15611d1057565b60405162461bcd60e51b815260206004820152602160248201527f5472616465457363726f773a20696e73756666696369656e742062616c616e636044820152606560f81b6064820152608490fd5b818102929181159184041417156119e657565b919082039182116119e657565b610100810190811067ffffffffffffffff821117610ef857604052565b6080810190811067ffffffffffffffff821117610ef857604052565b90601f8019910116810190811067ffffffffffffffff821117610ef857604052565b5f1981146119e65760010190565b15611def57565b606460405162461bcd60e51b815260206004820152602060248201527f5472616465457363726f773a20746f6b656e206e6f7420737570706f727465646044820152fd5b15611e3a57565b60405162461bcd60e51b815260206004820152601860248201527f5472616465457363726f773a207a65726f20616d6f756e7400000000000000006044820152606490fd5b9081602091031261045a5751801515810361045a5790565b3d15611ed1573d9067ffffffffffffffff8211610ef85760405191611ec6601f8201601f191660200184611db8565b82523d5f602084013e565b606090565b15611edd57565b60405162461bcd60e51b815260206004820152602260248201527f5472616465457363726f773a20455448207769746864726177616c206661696c604482015261195960f21b6064820152608490fd5b601854600160401b811015610ef85760018101601855601854811015611b855760185f5260021b7fb13d2d76d1f4b7be834882e410b3e3a8afaf69f83600ae24db354391d2378d2e0190805182546001600160a01b03199081166001600160a01b0392831617845560208301516001850180549092169216919091179055604081015160028301556060015160039190910155565b15611fc957565b60405162461bcd60e51b815260206004820152602160248201527f5472616465457363726f773a206f6666736574206f7574206f6620626f756e646044820152607360f81b6064820152608490fd5b67ffffffffffffffff8111610ef85760051b60200190565b8051821015611b855760209160051b010190565b9081156123065761206561271061205d600c5485611d5f565b048093611d72565b801515806122f2575b6121c6575b50811515806121b2575b612085575050565b81906001600160a01b03168061214957506004545f918291829182916001600160a01b03165af16120b4611e97565b50156120f6575b6004546040519182526001600160a01b0316907f06c5efeff5c320943d265dc4e5f1af95ad523555ce0c1957e367dda5514572df90602090a2565b60405162461bcd60e51b815260206004820152602560248201527f5472616465457363726f773a204554482078343032207472616e736665722066604482015264185a5b195960da1b6064820152608490fd5b6004805460405163a9059cbb60e01b81526001600160a01b03909116918101919091526024810192909252602090829060449082905f905af180156109a057612193575b506120bb565b6121ab9060203d6020116109995761098a8183611db8565b505f61218d565b506004546001600160a01b0316151561207d565b806001600160a01b0383168061228c57506003545f918291829182916001600160a01b03165af16121f5611e97565b501561223b575b6003546040519182526001600160a01b0316907f06c5efeff5c320943d265dc4e5f1af95ad523555ce0c1957e367dda5514572df90602090a25f612073565b60405162461bcd60e51b8152602060048201526024808201527f5472616465457363726f773a2045544820666565207472616e736665722066616044820152631a5b195960e21b6064820152608490fd5b60035460405163a9059cbb60e01b81526001600160a01b0390911660048201526024810192909252602090829060449082905f905af180156109a0576122d3575b506121fc565b6122eb9060203d6020116109995761098a8183611db8565b505f6122cd565b506003546001600160a01b0316151561206e565b5050565b600e546001600160a01b03161561245f5761232a60065460095490611d72565b801561245c575f805260156020527fa31547ce6245cdb9ecea19cf8c7eb9f5974025bb4075011409251ae855b30aed548111156123645750565b5f8052601560205260405f2061237b828254611d72565b905561238981600954611cfc565b6009555f8080808460018060a01b03600e54165af16123a6611e97565b501561240d57600e546040515f92916123e591906001600160a01b03166123cc82611d9c565b8152836020820152826040820152426060820152611f2d565b600e546040519182526001600160a01b0316905f5160206124625f395f51905f5290602090a3565b60405162461bcd60e51b815260206004820152602160248201527f5472616465457363726f773a206175746f2d7769746864726177206661696c656044820152601960fa1b6064820152608490fd5b50565b56fecd1fce47d5ad89dd70b04c75bd6bdb8114d4d4ff7b4393f9fb5937e733ba9582a264697066735822122048d9464e37bf57fe9e346b2dbbaf4cebf017357d55d904131f69d6c1335d546a64736f6c63430008210033","linkReferences":{}},"methodIdentifiers":{"acceptOwnership()":"79ba5097","addSupportedToken(address)":"6d69fcaf","autoWithdrawRecipient()":"e00621b0","autoWithdrawThreshold()":"84c5dd01","dailyTradeLimit()":"5c9d78b5","dailyTrades()":"51cd7cb8","depositETH()":"f6326fb3","depositToken(address,uint256)":"338b5dea","emergencyWithdraw(address)":"6ff1c9bc","executeTrade(bytes32,address,address,uint256,uint256,bool)":"16a1bb79","feeRecipient()":"46904840","getSummary()":"4051ddac","getSupportedTokens()":"d3c7c2c7","getTradeCount()":"a3031b77","getTrades(uint256,uint256)":"fa6e9bf0","getWithdrawalCount()":"781952a8","getWithdrawals(uint256,uint256)":"ce2da9bb","isPaused()":"b187bd26","lastTradeDayReset()":"9eb897e2","maxTradeSize()":"10fa79e2","owner()":"8da5cb5b","pause()":"8456cb59","paused()":"5c975abb","pendingOwner()":"e30c3978","profitShareBps()":"4639737d","removeSupportedToken(address)":"76319190","setAutoWithdraw(uint256,address)":"5b116f3a","setFeeConfiguration(uint256,uint256,uint256)":"34053484","setTradeLimits(uint256,uint256)":"03439a9f","setTradingAgent(address)":"015755f7","supportedTokens(address)":"68c4ac26","tokenBalances(address)":"523fba7f","tokenList(uint256)":"9ead7222","totalFeesCollected()":"60c6d8ae","totalProfit()":"86001519","totalTrades()":"e275c997","totalWithdrawn()":"4b319713","trades(uint256)":"1e6c598e","tradingAgent()":"951c7d40","tradingBalance()":"54b00c8a","tradingFeeBps()":"924cca9a","transferOwnership(address)":"f2fde38b","unpause()":"3f4ba83a","withdrawAllProfits()":"3e86fd90","withdrawProfits(address,uint256)":"aafc9651","withdrawals(uint256)":"5cc07076","x402AllocationBps()":"0f483407","x402Recipient()":"838123c0"},"id":8}