{"abi":[{"type":"constructor","inputs":[],"stateMutability":"nonpayable"},{"type":"function","name":"owner","inputs":[],"outputs":[{"name":"","type":"address","internalType":"address"}],"stateMutability":"view"},{"type":"function","name":"policies","inputs":[{"name":"","type":"address","internalType":"address"}],"outputs":[{"name":"maxTradesPerHour","type":"uint256","internalType":"uint256"},{"name":"maxNotionalUsd","type":"uint256","internalType":"uint256"},{"name":"active","type":"bool","internalType":"bool"},{"name":"policyConfigHash","type":"bytes32","internalType":"bytes32"}],"stateMutability":"view"},{"type":"function","name":"setAgentActive","inputs":[{"name":"agent","type":"address","internalType":"address"},{"name":"active","type":"bool","internalType":"bool"}],"outputs":[],"stateMutability":"nonpayable"},{"type":"function","name":"setPolicy","inputs":[{"name":"agent","type":"address","internalType":"address"},{"name":"maxTradesPerHour","type":"uint256","internalType":"uint256"},{"name":"maxNotionalUsd","type":"uint256","internalType":"uint256"},{"name":"policyConfigHash","type":"bytes32","internalType":"bytes32"}],"outputs":[],"stateMutability":"nonpayable"},{"type":"event","name":"AgentPaused","inputs":[{"name":"agent","type":"address","indexed":true,"internalType":"address"},{"name":"active","type":"bool","indexed":false,"internalType":"bool"}],"anonymous":false},{"type":"event","name":"PolicyUpdated","inputs":[{"name":"agent","type":"address","indexed":true,"internalType":"address"},{"name":"maxTradesPerHour","type":"uint256","indexed":false,"internalType":"uint256"},{"name":"maxNotionalUsd","type":"uint256","indexed":false,"internalType":"uint256"},{"name":"policyConfigHash","type":"bytes32","indexed":false,"internalType":"bytes32"}],"anonymous":false}],"bytecode":{"object":"0x6080604052348015600e575f5ffd5b503360015f6101000a81548173ffffffffffffffffffffffffffffffffffffffff021916908373ffffffffffffffffffffffffffffffffffffffff1602179055506108318061005c5f395ff3fe608060405234801561000f575f5ffd5b506004361061004a575f3560e01c806320e986981461004e5780638da5cb5b14610081578063acb5cb8e1461009f578063cbfc0aed146100bb575b5f5ffd5b610068600480360381019061006391906104cd565b6100d7565b6040516100789493929190610542565b60405180910390f35b61008961010e565b6040516100969190610594565b60405180910390f35b6100b960048036038101906100b491906105d7565b610133565b005b6100d560048036038101906100d09190610669565b6102ea565b005b5f602052805f5260405f205f91509050805f015490806001015490806002015f9054906101000a900460ff16908060030154905084565b60015f9054906101000a900473ffffffffffffffffffffffffffffffffffffffff1681565b60015f9054906101000a900473ffffffffffffffffffffffffffffffffffffffff1673ffffffffffffffffffffffffffffffffffffffff163373ffffffffffffffffffffffffffffffffffffffff16146101c2576040517f08c379a00000000000000000000000000000000000000000000000000000000081526004016101b990610727565b60405180910390fd5b5f5f5f8473ffffffffffffffffffffffffffffffffffffffff1673ffffffffffffffffffffffffffffffffffffffff1681526020019081526020015f205f015411610242576040517f08c379a00000000000000000000000000000000000000000000000000000000081526004016102399061078f565b60405180910390fd5b805f5f8473ffffffffffffffffffffffffffffffffffffffff1673ffffffffffffffffffffffffffffffffffffffff1681526020019081526020015f206002015f6101000a81548160ff0219169083151502179055508173ffffffffffffffffffffffffffffffffffffffff167fb74b2180a80b49c0d9edc3acae9999198c3f5151b1562ae1efd05cd70ab5affa826040516102de91906107ad565b60405180910390a25050565b60015f9054906101000a900473ffffffffffffffffffffffffffffffffffffffff1673ffffffffffffffffffffffffffffffffffffffff163373ffffffffffffffffffffffffffffffffffffffff1614610379576040517f08c379a000000000000000000000000000000000000000000000000000000000815260040161037090610727565b60405180910390fd5b6040518060800160405280848152602001838152602001600115158152602001828152505f5f8673ffffffffffffffffffffffffffffffffffffffff1673ffffffffffffffffffffffffffffffffffffffff1681526020019081526020015f205f820151815f0155602082015181600101556040820151816002015f6101000a81548160ff021916908315150217905550606082015181600301559050508373ffffffffffffffffffffffffffffffffffffffff167ff8ebd7056d2a3fc7725a4e7c84a2337068c1f5aef31a912b65d1da73948aad18848484604051610461939291906107c6565b60405180910390a250505050565b5f5ffd5b5f73ffffffffffffffffffffffffffffffffffffffff82169050919050565b5f61049c82610473565b9050919050565b6104ac81610492565b81146104b6575f5ffd5b50565b5f813590506104c7816104a3565b92915050565b5f602082840312156104e2576104e161046f565b5b5f6104ef848285016104b9565b91505092915050565b5f819050919050565b61050a816104f8565b82525050565b5f8115159050919050565b61052481610510565b82525050565b5f819050919050565b61053c8161052a565b82525050565b5f6080820190506105555f830187610501565b6105626020830186610501565b61056f604083018561051b565b61057c6060830184610533565b95945050505050565b61058e81610492565b82525050565b5f6020820190506105a75f830184610585565b92915050565b6105b681610510565b81146105c0575f5ffd5b50565b5f813590506105d1816105ad565b92915050565b5f5f604083850312156105ed576105ec61046f565b5b5f6105fa858286016104b9565b925050602061060b858286016105c3565b9150509250929050565b61061e816104f8565b8114610628575f5ffd5b50565b5f8135905061063981610615565b92915050565b6106488161052a565b8114610652575f5ffd5b50565b5f813590506106638161063f565b92915050565b5f5f5f5f608085870312156106815761068061046f565b5b5f61068e878288016104b9565b945050602061069f8782880161062b565b93505060406106b08782880161062b565b92505060606106c187828801610655565b91505092959194509250565b5f82825260208201905092915050565b7f4f6e6c79206f776e6572000000000000000000000000000000000000000000005f82015250565b5f610711600a836106cd565b915061071c826106dd565b602082019050919050565b5f6020820190508181035f83015261073e81610705565b9050919050565b7f706f6c696379206e6f74207365740000000000000000000000000000000000005f82015250565b5f610779600e836106cd565b915061078482610745565b602082019050919050565b5f6020820190508181035f8301526107a68161076d565b9050919050565b5f6020820190506107c05f83018461051b565b92915050565b5f6060820190506107d95f830186610501565b6107e66020830185610501565b6107f36040830184610533565b94935050505056fea26469706673582212205ce8225e3abcc2a579b41857bc12f3bed4d0dc65a1553cfb50a9b2d7fef3b8b664736f6c63430008210033","linkReferences":{}},"methodIdentifiers":{"owner()":"8da5cb5b","policies(address)":"20e98698","setAgentActive(address,bool)":"acb5cb8e","setPolicy(address,uint256,uint256,bytes32)":"cbfc0aed"},"id":5}