{"abi":[{"type":"constructor","inputs":[],"stateMutability":"nonpayable"},{"type":"function","name":"owner","inputs":[],"outputs":[{"name":"","type":"address","internalType":"address"}],"stateMutability":"view"},{"type":"function","name":"policies","inputs":[{"name":"","type":"address","internalType":"address"}],"outputs":[{"name":"maxTradesPerHour","type":"uint256","internalType":"uint256"},{"name":"maxNotionalUsd","type":"uint256","internalType":"uint256"},{"name":"active","type":"bool","internalType":"bool"},{"name":"policyConfigHash","type":"bytes32","internalType":"bytes32"}],"stateMutability":"view"},{"type":"function","name":"setAgentActive","inputs":[{"name":"agent","type":"address","internalType":"address"},{"name":"active","type":"bool","internalType":"bool"}],"outputs":[],"stateMutability":"nonpayable"},{"type":"function","name":"setPolicy","inputs":[{"name":"agent","type":"address","internalType":"address"},{"name":"maxTradesPerHour","type":"uint256","internalType":"uint256"},{"name":"maxNotionalUsd","type":"uint256","internalType":"uint256"},{"name":"policyConfigHash","type":"bytes32","internalType":"bytes32"}],"outputs":[],"stateMutability":"nonpayable"},{"type":"event","name":"AgentPaused","inputs":[{"name":"agent","type":"address","indexed":true,"internalType":"address"},{"name":"active","type":"bool","indexed":false,"internalType":"bool"}],"anonymous":false},{"type":"event","name":"PolicyUpdated","inputs":[{"name":"agent","type":"address","indexed":true,"internalType":"address"},{"name":"maxTradesPerHour","type":"uint256","indexed":false,"internalType":"uint256"},{"name":"maxNotionalUsd","type":"uint256","indexed":false,"internalType":"uint256"},{"name":"policyConfigHash","type":"bytes32","indexed":false,"internalType":"bytes32"}],"anonymous":false}],"bytecode":{"object":"0x60808060405234602757600180546001600160a01b0319163317905561032b908161002c8239f35b5f80fdfe6080806040526004361015610012575f80fd5b5f3560e01c90816320e986981461024c575080638da5cb5b14610224578063acb5cb8e146101485763cbfc0aed14610048575f80fd5b34610144576080366003190112610144576100616102a6565b6024356044356064359161008060018060a01b036001541633146102bc565b60405192608084019284841067ffffffffffffffff851117610130577ff8ebd7056d2a3fc7725a4e7c84a2337068c1f5aef31a912b65d1da73948aad18946060946040528381526003602082019783895261011960408401600181528885019287845260018060a01b03169a8b5f525f60205260405f2095518655516001860155511515600285019060ff801983541691151516179055565b5191015560405192835260208301526040820152a2005b634e487b7160e01b5f52604160045260245ffd5b5f80fd5b34610144576040366003190112610144576101616102a6565b60243590811515908183036101445761018560018060a01b036001541633146102bc565b60018060a01b031691825f525f60205260405f2054156101ee577fb74b2180a80b49c0d9edc3acae9999198c3f5151b1562ae1efd05cd70ab5affa916101e5602092855f525f8452600260405f20019060ff801983541691151516179055565b604051908152a2005b60405162461bcd60e51b815260206004820152600e60248201526d1c1bdb1a58de481b9bdd081cd95d60921b6044820152606490fd5b34610144575f366003190112610144576001546040516001600160a01b039091168152602090f35b34610144576020366003190112610144576080906001600160a01b036102706102a6565b165f525f60205260405f208054906001810154600360ff6002840154169201549284526020840152151560408301526060820152f35b600435906001600160a01b038216820361014457565b156102c357565b60405162461bcd60e51b815260206004820152600a60248201526927b7363c9037bbb732b960b11b6044820152606490fdfea264697066735822122080ab06b325a55c8a8543a518acce7f947d1f3aeda2c9894cb941bed39bf32d7364736f6c63430008210033","linkReferences":{}},"methodIdentifiers":{"owner()":"8da5cb5b","policies(address)":"20e98698","setAgentActive(address,bool)":"acb5cb8e","setPolicy(address,uint256,uint256,bytes32)":"cbfc0aed"},"id":7}