{"abi":[{"type":"constructor","inputs":[],"stateMutability":"nonpayable"},{"type":"function","name":"agentList","inputs":[{"name":"","type":"uint256","internalType":"uint256"}],"outputs":[{"name":"","type":"address","internalType":"address"}],"stateMutability":"view"},{"type":"function","name":"agents","inputs":[{"name":"","type":"address","internalType":"address"}],"outputs":[{"name":"name","type":"string","internalType":"string"},{"name":"role","type":"string","internalType":"string"},{"name":"active","type":"bool","internalType":"bool"},{"name":"registeredAt","type":"uint256","internalType":"uint256"}],"stateMutability":"view"},{"type":"function","name":"deactivateAgent","inputs":[{"name":"_agent","type":"address","internalType":"address"}],"outputs":[],"stateMutability":"nonpayable"},{"type":"function","name":"getAgent","inputs":[{"name":"_agent","type":"address","internalType":"address"}],"outputs":[{"name":"name","type":"string","internalType":"string"},{"name":"role","type":"string","internalType":"string"},{"name":"active","type":"bool","internalType":"bool"}],"stateMutability":"view"},{"type":"function","name":"getAgentCount","inputs":[],"outputs":[{"name":"","type":"uint256","internalType":"uint256"}],"stateMutability":"view"},{"type":"function","name":"owner","inputs":[],"outputs":[{"name":"","type":"address","internalType":"address"}],"stateMutability":"view"},{"type":"function","name":"registerAgent","inputs":[{"name":"_agent","type":"address","internalType":"address"},{"name":"_name","type":"string","internalType":"string"},{"name":"_role","type":"string","internalType":"string"}],"outputs":[],"stateMutability":"nonpayable"},{"type":"event","name":"AgentDeactivated","inputs":[{"name":"agent","type":"address","indexed":true,"internalType":"address"}],"anonymous":false},{"type":"event","name":"AgentRegistered","inputs":[{"name":"agent","type":"address","indexed":true,"internalType":"address"},{"name":"name","type":"string","indexed":false,"internalType":"string"},{"name":"role","type":"string","indexed":false,"internalType":"string"}],"anonymous":false}],"bytecode":{"object":"0x60808060405234602757600280546001600160a01b0319163317905561093d908161002c8239f35b5f80fdfe60806040526004361015610011575f80fd5b5f3560e01c80632f80c54f146106ba5780637216fe48146102a15780638da5cb5b1461027957806391cab63e1461025c578063b0a0a92714610198578063fb3551ff146100f35763fd66091e14610066575f80fd5b346100ef5760203660031901126100ef576001600160a01b03610087610728565b165f525f6020526100d060405f2061009e8161082e565b906100ab6001820161082e565b6100de600360ff600285015416930154916040519586956080875260808701906107d2565b9085820360208701526107d2565b911515604084015260608301520390f35b5f80fd5b346100ef5760203660031901126100ef576001600160a01b03610114610728565b165f525f60205261018060405f206040519061012f8261073e565b6101388161082e565b825261018e6101496001830161082e565b92836020820152600360ff6002850154161515938460408401520154606082015251926040519485946060865260608601906107d2565b9084820360208601526107d2565b9060408301520390f35b346100ef5760203660031901126100ef576101b1610728565b6101c660018060a01b036002541633146108ce565b6001600160a01b03165f8181526020819052604090206002015460ff161561022457805f525f602052600260405f200160ff1981541690557fa58c733780f5c1527d6106ff1e731cbf2e9ffc0eb11ad399ca33ea55f057ddf45f80a2005b60405162461bcd60e51b815260206004820152601060248201526f4167656e74206e6f742061637469766560801b6044820152606490fd5b346100ef575f3660031901126100ef576020600154604051908152f35b346100ef575f3660031901126100ef576002546040516001600160a01b039091168152602090f35b346100ef5760603660031901126100ef576102ba610728565b60243567ffffffffffffffff81116100ef576102da90369060040161077c565b60443567ffffffffffffffff81116100ef576102fa90369060040161077c565b9161031060018060a01b036002541633146108ce565b60018060a01b031691825f525f60205260ff600260405f2001541615801561069f575b1561065a576040516103448161073e565b8281526020810182815260408201600181526060830191428352865f525f60205260405f20935180519067ffffffffffffffff82116104bc57819061038987546107f6565b601f8111610601575b50602090601f831160011461059e575f92610593575b50508160011b915f199060031b1c19161784555b518051600185019167ffffffffffffffff82116104bc576103dd83546107f6565b601f8111610542575b50602090601f83116001146104db57600395949392915f91836104d0575b50508160011b915f1990871b1c19161790555b600284019051151560ff801983541691161790555191015560015491680100000000000000008310156104bc576104b76104a99261047c8560017f37b3aaf4f807403887412a5994aa1832eface4a8c15501a3311bf21d3279ea3f97016001556106fc565b81549060031b9088821b9160018060a01b03901b19161790556040519384936040855260408501906107d2565b9083820360208501526107d2565b0390a2005b634e487b7160e01b5f52604160045260245ffd5b015190508a80610404565b90601f19831691845f52815f20925f5b81811061052a57509160019391856003999897969410610513575b505050811b019055610417565b01515f1983891b60f8161c191690558a8080610506565b929360206001819287860151815501950193016104eb565b828111156103e657835f5260205f20601f840160051c906020851061058b575b81601f9101920160051c03905f5b82811061057e5750506103e6565b5f82820155600101610570565b5f9150610562565b0151905089806103a8565b5f8881528281209350601f198516905b8181106105e957509084600195949392106105d1575b505050811b0184556103bc565b01515f1960f88460031b161c191690558980806105c4565b929360206001819287860151815501950193016105ae565b8281111561039257909150865f5260205f20601f840160051c9060208510610652575b849392601f0160051c82900391015f5b828110610642575050610392565b5f81830155859450600101610634565b5f9150610624565b60405162461bcd60e51b815260206004820152601860248201527f4167656e7420616c7265616479207265676973746572656400000000000000006044820152606490fd5b50825f525f6020526106b460405f20546107f6565b15610333565b346100ef5760203660031901126100ef576004356001548110156100ef576106e36020916106fc565b905460405160039290921b1c6001600160a01b03168152f35b6001548110156107145760015f5260205f2001905f90565b634e487b7160e01b5f52603260045260245ffd5b600435906001600160a01b03821682036100ef57565b6080810190811067ffffffffffffffff8211176104bc57604052565b90601f8019910116810190811067ffffffffffffffff8211176104bc57604052565b81601f820112156100ef5780359067ffffffffffffffff82116104bc57604051926107b1601f8401601f19166020018561075a565b828452602083830101116100ef57815f926020809301838601378301015290565b805180835260209291819084018484015e5f828201840152601f01601f1916010190565b90600182811c92168015610824575b602083101461081057565b634e487b7160e01b5f52602260045260245ffd5b91607f1691610805565b9060405191825f825492610841846107f6565b80845293600181169081156108ac5750600114610868575b506108669250038361075a565b565b90505f9291925260205f20905f915b818310610890575050906020610866928201015f610859565b6020919350806001915483858901015201910190918492610877565b90506020925061086694915060ff191682840152151560051b8201015f610859565b156108d557565b60405162461bcd60e51b815260206004820152600a60248201526927b7363c9037bbb732b960b11b6044820152606490fdfea26469706673582212206721c7ad906dbfd54f9a04db0deeb20108c01d60353fe7247b8403b80eebf3f364736f6c63430008210033","linkReferences":{}},"methodIdentifiers":{"agentList(uint256)":"2f80c54f","agents(address)":"fd66091e","deactivateAgent(address)":"b0a0a927","getAgent(address)":"fb3551ff","getAgentCount()":"91cab63e","owner()":"8da5cb5b","registerAgent(address,string,string)":"7216fe48"},"id":4}