{"abi":[{"type":"constructor","inputs":[],"stateMutability":"nonpayable"},{"type":"function","name":"agentList","inputs":[{"name":"","type":"uint256","internalType":"uint256"}],"outputs":[{"name":"","type":"address","internalType":"address"}],"stateMutability":"view"},{"type":"function","name":"agents","inputs":[{"name":"","type":"address","internalType":"address"}],"outputs":[{"name":"name","type":"string","internalType":"string"},{"name":"role","type":"string","internalType":"string"},{"name":"active","type":"bool","internalType":"bool"},{"name":"registeredAt","type":"uint256","internalType":"uint256"}],"stateMutability":"view"},{"type":"function","name":"deactivateAgent","inputs":[{"name":"_agent","type":"address","internalType":"address"}],"outputs":[],"stateMutability":"nonpayable"},{"type":"function","name":"getAgent","inputs":[{"name":"_agent","type":"address","internalType":"address"}],"outputs":[{"name":"name","type":"string","internalType":"string"},{"name":"role","type":"string","internalType":"string"},{"name":"active","type":"bool","internalType":"bool"}],"stateMutability":"view"},{"type":"function","name":"getAgentCount","inputs":[],"outputs":[{"name":"","type":"uint256","internalType":"uint256"}],"stateMutability":"view"},{"type":"function","name":"owner","inputs":[],"outputs":[{"name":"","type":"address","internalType":"address"}],"stateMutability":"view"},{"type":"function","name":"registerAgent","inputs":[{"name":"_agent","type":"address","internalType":"address"},{"name":"_name","type":"string","internalType":"string"},{"name":"_role","type":"string","internalType":"string"}],"outputs":[],"stateMutability":"nonpayable"},{"type":"event","name":"AgentDeactivated","inputs":[{"name":"agent","type":"address","indexed":true,"internalType":"address"}],"anonymous":false},{"type":"event","name":"AgentRegistered","inputs":[{"name":"agent","type":"address","indexed":true,"internalType":"address"},{"name":"name","type":"string","indexed":false,"internalType":"string"},{"name":"role","type":"string","indexed":false,"internalType":"string"}],"anonymous":false}],"bytecode":{"object":"0x6080604052348015600e575f5ffd5b503360025f6101000a81548173ffffffffffffffffffffffffffffffffffffffff021916908373ffffffffffffffffffffffffffffffffffffffff16021790555061120a8061005c5f395ff3fe608060405234801561000f575f5ffd5b506004361061007b575f3560e01c806391cab63e1161005957806391cab63e146100e9578063b0a0a92714610107578063fb3551ff14610123578063fd66091e146101555761007b565b80632f80c54f1461007f5780637216fe48146100af5780638da5cb5b146100cb575b5f5ffd5b610099600480360381019061009491906109b8565b610188565b6040516100a69190610a22565b60405180910390f35b6100c960048036038101906100c49190610ba1565b6101c3565b005b6100d361049d565b6040516100e09190610a22565b60405180910390f35b6100f16104c2565b6040516100fe9190610c38565b60405180910390f35b610121600480360381019061011c9190610c51565b6104ce565b005b61013d60048036038101906101389190610c51565b610684565b60405161014c93929190610cf6565b60405180910390f35b61016f600480360381019061016a9190610c51565b610831565b60405161017f9493929190610d39565b60405180910390f35b60018181548110610197575f80fd5b905f5260205f20015f915054906101000a900473ffffffffffffffffffffffffffffffffffffffff1681565b60025f9054906101000a900473ffffffffffffffffffffffffffffffffffffffff1673ffffffffffffffffffffffffffffffffffffffff163373ffffffffffffffffffffffffffffffffffffffff1614610252576040517f08c379a000000000000000000000000000000000000000000000000000000000815260040161024990610dd4565b60405180910390fd5b5f5f8473ffffffffffffffffffffffffffffffffffffffff1673ffffffffffffffffffffffffffffffffffffffff1681526020019081526020015f206002015f9054906101000a900460ff1615806102f357505f5f5f8573ffffffffffffffffffffffffffffffffffffffff1673ffffffffffffffffffffffffffffffffffffffff1681526020019081526020015f205f0180546102ef90610e1f565b9050145b610332576040517f08c379a000000000000000000000000000000000000000000000000000000000815260040161032990610e99565b60405180910390fd5b6040518060800160405280838152602001828152602001600115158152602001428152505f5f8573ffffffffffffffffffffffffffffffffffffffff1673ffffffffffffffffffffffffffffffffffffffff1681526020019081526020015f205f820151815f0190816103a59190611068565b5060208201518160010190816103bb9190611068565b506040820151816002015f6101000a81548160ff02191690831515021790555060608201518160030155905050600183908060018154018082558091505060019003905f5260205f20015f9091909190916101000a81548173ffffffffffffffffffffffffffffffffffffffff021916908373ffffffffffffffffffffffffffffffffffffffff1602179055508273ffffffffffffffffffffffffffffffffffffffff167f37b3aaf4f807403887412a5994aa1832eface4a8c15501a3311bf21d3279ea3f8383604051610490929190611137565b60405180910390a2505050565b60025f9054906101000a900473ffffffffffffffffffffffffffffffffffffffff1681565b5f600180549050905090565b60025f9054906101000a900473ffffffffffffffffffffffffffffffffffffffff1673ffffffffffffffffffffffffffffffffffffffff163373ffffffffffffffffffffffffffffffffffffffff161461055d576040517f08c379a000000000000000000000000000000000000000000000000000000000815260040161055490610dd4565b60405180910390fd5b5f5f8273ffffffffffffffffffffffffffffffffffffffff1673ffffffffffffffffffffffffffffffffffffffff1681526020019081526020015f206002015f9054906101000a900460ff166105e8576040517f08c379a00000000000000000000000000000000000000000000000000000000081526004016105df906111b6565b60405180910390fd5b5f5f5f8373ffffffffffffffffffffffffffffffffffffffff1673ffffffffffffffffffffffffffffffffffffffff1681526020019081526020015f206002015f6101000a81548160ff0219169083151502179055508073ffffffffffffffffffffffffffffffffffffffff167fa58c733780f5c1527d6106ff1e731cbf2e9ffc0eb11ad399ca33ea55f057ddf460405160405180910390a250565b6060805f5f5f5f8673ffffffffffffffffffffffffffffffffffffffff1673ffffffffffffffffffffffffffffffffffffffff1681526020019081526020015f206040518060800160405290815f820180546106df90610e1f565b80601f016020809104026020016040519081016040528092919081815260200182805461070b90610e1f565b80156107565780601f1061072d57610100808354040283529160200191610756565b820191905f5260205f20905b81548152906001019060200180831161073957829003601f168201915b5050505050815260200160018201805461076f90610e1f565b80601f016020809104026020016040519081016040528092919081815260200182805461079b90610e1f565b80156107e65780601f106107bd576101008083540402835291602001916107e6565b820191905f5260205f20905b8154815290600101906020018083116107c957829003601f168201915b50505050508152602001600282015f9054906101000a900460ff161515151581526020016003820154815250509050805f015181602001518260400151935093509350509193909250565b5f602052805f5260405f205f91509050805f01805461084f90610e1f565b80601f016020809104026020016040519081016040528092919081815260200182805461087b90610e1f565b80156108c65780601f1061089d576101008083540402835291602001916108c6565b820191905f5260205f20905b8154815290600101906020018083116108a957829003601f168201915b5050505050908060010180546108db90610e1f565b80601f016020809104026020016040519081016040528092919081815260200182805461090790610e1f565b80156109525780601f1061092957610100808354040283529160200191610952565b820191905f5260205f20905b81548152906001019060200180831161093557829003601f168201915b505050505090806002015f9054906101000a900460ff16908060030154905084565b5f604051905090565b5f5ffd5b5f5ffd5b5f819050919050565b61099781610985565b81146109a1575f5ffd5b50565b5f813590506109b28161098e565b92915050565b5f602082840312156109cd576109cc61097d565b5b5f6109da848285016109a4565b91505092915050565b5f73ffffffffffffffffffffffffffffffffffffffff82169050919050565b5f610a0c826109e3565b9050919050565b610a1c81610a02565b82525050565b5f602082019050610a355f830184610a13565b92915050565b610a4481610a02565b8114610a4e575f5ffd5b50565b5f81359050610a5f81610a3b565b92915050565b5f5ffd5b5f5ffd5b5f601f19601f8301169050919050565b7f4e487b71000000000000000000000000000000000000000000000000000000005f52604160045260245ffd5b610ab382610a6d565b810181811067ffffffffffffffff82111715610ad257610ad1610a7d565b5b80604052505050565b5f610ae4610974565b9050610af08282610aaa565b919050565b5f67ffffffffffffffff821115610b0f57610b0e610a7d565b5b610b1882610a6d565b9050602081019050919050565b828183375f83830152505050565b5f610b45610b4084610af5565b610adb565b905082815260208101848484011115610b6157610b60610a69565b5b610b6c848285610b25565b509392505050565b5f82601f830112610b8857610b87610a65565b5b8135610b98848260208601610b33565b91505092915050565b5f5f5f60608486031215610bb857610bb761097d565b5b5f610bc586828701610a51565b935050602084013567ffffffffffffffff811115610be657610be5610981565b5b610bf286828701610b74565b925050604084013567ffffffffffffffff811115610c1357610c12610981565b5b610c1f86828701610b74565b9150509250925092565b610c3281610985565b82525050565b5f602082019050610c4b5f830184610c29565b92915050565b5f60208284031215610c6657610c6561097d565b5b5f610c7384828501610a51565b91505092915050565b5f81519050919050565b5f82825260208201905092915050565b8281835e5f83830152505050565b5f610cae82610c7c565b610cb88185610c86565b9350610cc8818560208601610c96565b610cd181610a6d565b840191505092915050565b5f8115159050919050565b610cf081610cdc565b82525050565b5f6060820190508181035f830152610d0e8186610ca4565b90508181036020830152610d228185610ca4565b9050610d316040830184610ce7565b949350505050565b5f6080820190508181035f830152610d518187610ca4565b90508181036020830152610d658186610ca4565b9050610d746040830185610ce7565b610d816060830184610c29565b95945050505050565b7f4f6e6c79206f776e6572000000000000000000000000000000000000000000005f82015250565b5f610dbe600a83610c86565b9150610dc982610d8a565b602082019050919050565b5f6020820190508181035f830152610deb81610db2565b9050919050565b7f4e487b71000000000000000000000000000000000000000000000000000000005f52602260045260245ffd5b5f6002820490506001821680610e3657607f821691505b602082108103610e4957610e48610df2565b5b50919050565b7f4167656e7420616c7265616479207265676973746572656400000000000000005f82015250565b5f610e83601883610c86565b9150610e8e82610e4f565b602082019050919050565b5f6020820190508181035f830152610eb081610e77565b9050919050565b5f819050815f5260205f209050919050565b5f6020601f8301049050919050565b5f82821b905092915050565b5f60088302610f137fffffffffffffffffffffffffffffffffffffffffffffffffffffffffffffffff82610ed8565b610f1d8683610ed8565b95508019841693508086168417925050509392505050565b5f819050919050565b5f610f58610f53610f4e84610985565b610f35565b610985565b9050919050565b5f819050919050565b610f7183610f3e565b610f85610f7d82610f5f565b848454610ee4565b825550505050565b5f5f905090565b610f9c610f8d565b610fa7818484610f68565b505050565b5f5b82811015610fcd57610fc25f828401610f94565b600181019050610fae565b505050565b601f821115611020578282111561101f57610fec81610eb7565b610ff583610ec9565b610ffe85610ec9565b602086101561100b575f90505b80830161101a82840382610fac565b505050505b5b505050565b5f82821c905092915050565b5f6110405f1984600802611025565b1980831691505092915050565b5f6110588383611031565b9150826002028217905092915050565b61107182610c7c565b67ffffffffffffffff81111561108a57611089610a7d565b5b6110948254610e1f565b61109f828285610fd2565b5f60209050601f8311600181146110d0575f84156110be578287015190505b6110c8858261104d565b86555061112f565b601f1984166110de86610eb7565b5f5b82811015611105578489015182556001820191506020850194506020810190506110e0565b86831015611122578489015161111e601f891682611031565b8355505b6001600288020188555050505b505050505050565b5f6040820190508181035f83015261114f8185610ca4565b905081810360208301526111638184610ca4565b90509392505050565b7f4167656e74206e6f7420616374697665000000000000000000000000000000005f82015250565b5f6111a0601083610c86565b91506111ab8261116c565b602082019050919050565b5f6020820190508181035f8301526111cd81611194565b905091905056fea26469706673582212204f3bd47bad65f124e7ad2899706c31e893eab4f515071b845a296c37231d8ccb64736f6c63430008210033","linkReferences":{}},"methodIdentifiers":{"agentList(uint256)":"2f80c54f","agents(address)":"fd66091e","deactivateAgent(address)":"b0a0a927","getAgent(address)":"fb3551ff","getAgentCount()":"91cab63e","owner()":"8da5cb5b","registerAgent(address,string,string)":"7216fe48"},"id":3}