{"abi":[{"type":"constructor","inputs":[],"stateMutability":"nonpayable"},{"type":"function","name":"agentLatestHash","inputs":[{"name":"","type":"string","internalType":"string"}],"outputs":[{"name":"","type":"bytes32","internalType":"bytes32"}],"stateMutability":"view"},{"type":"function","name":"agentRecords","inputs":[{"name":"","type":"string","internalType":"string"},{"name":"","type":"uint256","internalType":"uint256"}],"outputs":[{"name":"","type":"uint256","internalType":"uint256"}],"stateMutability":"view"},{"type":"function","name":"agentSummaries","inputs":[{"name":"","type":"string","internalType":"string"}],"outputs":[{"name":"totalRecords","type":"uint256","internalType":"uint256"},{"name":"lastRecordTimestamp","type":"uint256","internalType":"uint256"},{"name":"lastDataHash","type":"bytes32","internalType":"bytes32"}],"stateMutability":"view"},{"type":"function","name":"getAgentRecordCount","inputs":[{"name":"_agentId","type":"string","internalType":"string"}],"outputs":[{"name":"","type":"uint256","internalType":"uint256"}],"stateMutability":"view"},{"type":"function","name":"getAgentRecordIds","inputs":[{"name":"_agentId","type":"string","internalType":"string"}],"outputs":[{"name":"","type":"uint256[]","internalType":"uint256[]"}],"stateMutability":"view"},{"type":"function","name":"getAgentSummary","inputs":[{"name":"_agentId","type":"string","internalType":"string"}],"outputs":[{"name":"totalRecords","type":"uint256","internalType":"uint256"},{"name":"lastRecordTimestamp","type":"uint256","internalType":"uint256"},{"name":"lastDataHash","type":"bytes32","internalType":"bytes32"}],"stateMutability":"view"},{"type":"function","name":"getLatestAgentHash","inputs":[{"name":"_agentId","type":"string","internalType":"string"}],"outputs":[{"name":"","type":"bytes32","internalType":"bytes32"}],"stateMutability":"view"},{"type":"function","name":"getRecord","inputs":[{"name":"_recordId","type":"uint256","internalType":"uint256"}],"outputs":[{"name":"submitter","type":"address","internalType":"address"},{"name":"agentId","type":"string","internalType":"string"},{"name":"dataType","type":"uint8","internalType":"enum DataRecorder.DataType"},{"name":"dataHash","type":"bytes32","internalType":"bytes32"},{"name":"ipfsCid","type":"string","internalType":"string"},{"name":"timestamp","type":"uint256","internalType":"uint256"},{"name":"prevRecordId","type":"uint256","internalType":"uint256"},{"name":"verified","type":"bool","internalType":"bool"}],"stateMutability":"view"},{"type":"function","name":"getTotalRecordCount","inputs":[],"outputs":[{"name":"","type":"uint256","internalType":"uint256"}],"stateMutability":"view"},{"type":"function","name":"getTypeRecordCount","inputs":[{"name":"_dataType","type":"uint8","internalType":"enum DataRecorder.DataType"}],"outputs":[{"name":"","type":"uint256","internalType":"uint256"}],"stateMutability":"view"},{"type":"function","name":"owner","inputs":[],"outputs":[{"name":"","type":"address","internalType":"address"}],"stateMutability":"view"},{"type":"function","name":"recordById","inputs":[{"name":"","type":"uint256","internalType":"uint256"}],"outputs":[{"name":"id","type":"uint256","internalType":"uint256"},{"name":"submitter","type":"address","internalType":"address"},{"name":"agentId","type":"string","internalType":"string"},{"name":"dataType","type":"uint8","internalType":"enum DataRecorder.DataType"},{"name":"dataHash","type":"bytes32","internalType":"bytes32"},{"name":"ipfsCid","type":"string","internalType":"string"},{"name":"compressedData","type":"bytes","internalType":"bytes"},{"name":"timestamp","type":"uint256","internalType":"uint256"},{"name":"prevRecordId","type":"uint256","internalType":"uint256"},{"name":"verified","type":"bool","internalType":"bool"}],"stateMutability":"view"},{"type":"function","name":"recordCompressedData","inputs":[{"name":"_agentId","type":"string","internalType":"string"},{"name":"_dataType","type":"uint8","internalType":"enum DataRecorder.DataType"},{"name":"_dataHash","type":"bytes32","internalType":"bytes32"},{"name":"_compressedData","type":"bytes","internalType":"bytes"}],"outputs":[{"name":"","type":"uint256","internalType":"uint256"}],"stateMutability":"nonpayable"},{"type":"function","name":"recordCount","inputs":[],"outputs":[{"name":"","type":"uint256","internalType":"uint256"}],"stateMutability":"view"},{"type":"function","name":"recordData","inputs":[{"name":"_agentId","type":"string","internalType":"string"},{"name":"_dataType","type":"uint8","internalType":"enum DataRecorder.DataType"},{"name":"_dataHash","type":"bytes32","internalType":"bytes32"},{"name":"_ipfsCid","type":"string","internalType":"string"}],"outputs":[{"name":"","type":"uint256","internalType":"uint256"}],"stateMutability":"nonpayable"},{"type":"function","name":"records","inputs":[{"name":"","type":"uint256","internalType":"uint256"}],"outputs":[{"name":"id","type":"uint256","internalType":"uint256"},{"name":"submitter","type":"address","internalType":"address"},{"name":"agentId","type":"string","internalType":"string"},{"name":"dataType","type":"uint8","internalType":"enum DataRecorder.DataType"},{"name":"dataHash","type":"bytes32","internalType":"bytes32"},{"name":"ipfsCid","type":"string","internalType":"string"},{"name":"compressedData","type":"bytes","internalType":"bytes"},{"name":"timestamp","type":"uint256","internalType":"uint256"},{"name":"prevRecordId","type":"uint256","internalType":"uint256"},{"name":"verified","type":"bool","internalType":"bool"}],"stateMutability":"view"},{"type":"function","name":"typeRecords","inputs":[{"name":"","type":"uint8","internalType":"enum DataRecorder.DataType"},{"name":"","type":"uint256","internalType":"uint256"}],"outputs":[{"name":"","type":"uint256","internalType":"uint256"}],"stateMutability":"view"},{"type":"function","name":"verifiers","inputs":[{"name":"","type":"uint256","internalType":"uint256"}],"outputs":[{"name":"","type":"address","internalType":"address"}],"stateMutability":"view"},{"type":"function","name":"verifyChainIntegrity","inputs":[{"name":"_agentId","type":"string","internalType":"string"}],"outputs":[{"name":"valid","type":"bool","internalType":"bool"},{"name":"totalRecords","type":"uint256","internalType":"uint256"},{"name":"latestHash","type":"bytes32","internalType":"bytes32"}],"stateMutability":"view"},{"type":"function","name":"verifyRecord","inputs":[{"name":"_recordId","type":"uint256","internalType":"uint256"}],"outputs":[],"stateMutability":"nonpayable"},{"type":"event","name":"ChainIntegrityVerified","inputs":[{"name":"agentId","type":"string","indexed":false,"internalType":"string"},{"name":"recordCount","type":"uint256","indexed":false,"internalType":"uint256"},{"name":"latestHash","type":"bytes32","indexed":false,"internalType":"bytes32"}],"anonymous":false},{"type":"event","name":"DataRecorded","inputs":[{"name":"recordId","type":"uint256","indexed":true,"internalType":"uint256"},{"name":"agentId","type":"string","indexed":true,"internalType":"string"},{"name":"dataType","type":"uint8","indexed":false,"internalType":"enum DataRecorder.DataType"},{"name":"dataHash","type":"bytes32","indexed":false,"internalType":"bytes32"},{"name":"ipfsCid","type":"string","indexed":false,"internalType":"string"}],"anonymous":false},{"type":"event","name":"DataVerified","inputs":[{"name":"recordId","type":"uint256","indexed":true,"internalType":"uint256"},{"name":"verifier","type":"address","indexed":true,"internalType":"address"}],"anonymous":false}],"bytecode":{"object":"0x608080604052346029575f80546001600160a01b0319163317815560015561155a908161002e8239f35b5f80fdfe60806040526004361015610011575f80fd5b5f3560e01c806303e9e60914610c0057806312be31381461096757806319ee2538146108f057806321ec29561461069a5780632400b032146106655780632626fdbc146105e157806334461067146105985780633af4d950146104d357806348f6db69146104955780635b41a97f1461040c5780636bbe0a9a146103db5780638275b1581461038a5780638899a9cf146102ca5780638da5cb5b146102a3578063900407bc146101ff5780639311762d1461024e578063ac1eff681461021c578063db771b76146101ff578063e3469ea21461018d5763f398a64e146100f5575f80fd5b34610189576020366003190112610189576004356001600160401b038111610189576101276020913690600401610db5565b91908260405193849283378101600681520301902060405161014881610e73565b6101856040835492838152600260018601549586602084015201549182910152604051938493846040919493926060820195825260208201520152565b0390f35b5f80fd5b34610189576040366003190112610189576004356001600160401b038111610189576101bd903690600401610ef4565b604051815160243592602091839181908401835e810160048152030190208054821015610189576020916101f0916110ad565b90549060031b1c604051908152f35b34610189575f366003190112610189576020600154604051908152f35b34610189576020366003190112610189576004355f526007602052602060018060a01b0360405f205416604051908152f35b34610189576020366003190112610189576004356001600160401b0381116101895760208061028281933690600401610ef4565b604051928184925191829101835e8101600881520301902054604051908152f35b34610189575f366003190112610189575f546040516001600160a01b039091168152602090f35b34610189576020366003190112610189576004356001600160401b038111610189576102fd610303913690600401610db5565b90611155565b604051806020835491828152019081935f5260205f20905f5b8181106103745750505081610332910382610e8e565b604051918291602083019060208452518091526040830191905f5b81811061035b575050500390f35b825184528594506020938401939092019160010161034d565b825484526020909301926001928301920161031c565b34610189576020366003190112610189576004356001600160401b0381116101895760206103bd81923690600401610db5565b91908260405193849283378101600881520301902054604051908152f35b3461018957602036600319011261018957600435600781101561018957610403602091611096565b54604051908152f35b34610189576020366003190112610189576004355f908152600360205260409020805460018201546001600160a01b0316916101859061044e60028201610f7a565b9060ff600382015416600482015461046860058401610f7a565b61047460068501610f7a565b9160078501549360ff6009600888015497015416966040519a8b9a8b61101a565b34610189576040366003190112610189576004356007811015610189576104be60243591611096565b8054821015610189576020916101f0916110ad565b34610189576020366003190112610189576004356104fb60018060a01b035f5416331461110e565b8015158061058c575b61050d906110c2565b5f19810181811161057857610523600991610f12565b5001805460ff191660011790555f81815260076020526040812080546001600160a01b0319163390811790915591907f4e206a2da258866fea320fabca330294731f7d223dd64c52cadd28e22ba479ad9080a3005b634e487b7160e01b5f52601160045260245ffd5b50600154811115610504565b3461018957602036600319011261018957600435600254811015610189576105bf90610f12565b50805460018201546001600160a01b0316916101859061044e60028201610f7a565b34610189576020366003190112610189576004356001600160401b0381116101895760206106156060923690600401610db5565b9190826040519384928337810160068152030190206040805161063781610e73565b6002835493848352600181015460208401520154918291015260405191801515835260208301526040820152f35b34610189576020366003190112610189576004356001600160401b038111610189576104036102fd6020923690600401610db5565b34610189576106a836610de2565b919294936106c060018060a01b035f5416331461110e565b6106cb600154611147565b9485600155604051828282376004838201908152819003602001902054156108e957604051828282376020818481016004815203019020604051838382376020818581016004815203019020545f1981019081116105785761072c916110ad565b90549060031b1c965b6107c460405161074481610e43565b888152336020820152610758368686610eaf565b604082015261076a8360608301611102565b87608082015261077b368888610eaf565b60a08201526020996040516107908c82610e8e565b5f815260c08301524260e08301526101008201525f6101208201526107b48161149d565b885f5260038a5260405f206111cc565b6107e187604051858582378a8187810160048152030190206114f0565b6107f3876107ee83611096565b6114f0565b604051838382378881858101600681520301902054946001860180961161057857807fb1a97dd397424954a71fd3ea54f1107f574880aaae00f1bdcb48553d8619a946956108b8956080958b9960028c8f6040519361085185610e73565b84528084019042825260408501928352604051908787833781888101600681520301902093518455516001840155519101558a8d60405190848483378185810160088152030190205581604051928392833781015f81520390209860405196878096610da8565b8b85015260606040850152816060850152848401375f828201840152601f01601f19168101030190a3604051908152f35b5f96610735565b34610189576020366003190112610189576004356001600160401b03811161018957602061092381923690600401610ef4565b604051928184925191829101835e81016006815203019020805461018560026001840154930154604051938493846040919493926060820195825260208201520152565b346101895761097536610de2565b949093919261098e60018060a01b035f5416331461110e565b6101008611610ba9576109a2600154611147565b948560015560405184848237600485820190815281900360200190205415610b9f576040518484823760208186810160048152030190209060405185858237602081878101600481520301902054915f19830192831161057857610a9d92610a09916110ad565b90549060031b1c5b610a6c60405192610a2184610e43565b898452336020850152610a35368989610eaf565b6040850152610a478660608601611102565b88608085015260209a604051610a5d8d82610e8e565b5f815260a08601523691610eaf565b60c08301524260e08301526101008201525f610120820152610a8d8161149d565b865f526003885260405f206111cc565b610aba8560405185858237888187810160048152030190206114f0565b610ac7856107ee83611096565b60405183838237868185810160068152030190205490600182018092116105785785937fb1a97dd397424954a71fd3ea54f1107f574880aaae00f1bdcb48553d8619a9469360809360405190610b1c82610e73565b815260028a820142815260408301908a8252604051868682378d818881016006815203019020935184555160018401555191015586604051838382378a8185810160088152030190205581604051928392833781015f815203902094610b856040518093610da8565b87820152606060408201525f6060820152a3604051908152f35b610a9d905f610a11565b60405162461bcd60e51b815260206004820152602960248201527f436f6d70726573736564206461746120746f6f206c6172676520286d6178203260448201526835362062797465732960b81b6064820152608490fd5b346101895760203660031901126101895760043580151580610d78575b610c26906110c2565b5f19810190811161057857610c3a90610f12565b5060405190610c4882610e43565b8054825260018101546001600160a01b03166020830190815290610c6e60028201610f7a565b916040840192835260ff60038301541693610c8d606082019586611102565b600483015460808201908152610ca560058501610f7a565b9260a08301938452610cb960068601610f7a565b60c084015260078501549060e0840191825261012060ff60096008890154986101008801998a520154169401931515845260018060a01b0390511695519651906007821015610d6457610d5092519451905195519351151594610d3e610d336040519a8b9a8b5261010060208c01526101008b0190610d84565b9360408a0190610da8565b60608801528682036080880152610d84565b9260a085015260c084015260e08301520390f35b634e487b7160e01b5f52602160045260245ffd5b50600154811115610c1d565b805180835260209291819084018484015e5f828201840152601f01601f1916010190565b906007821015610d645752565b9181601f84011215610189578235916001600160401b038311610189576020838186019501011161018957565b6080600319820112610189576004356001600160401b0381116101895781610e0c91600401610db5565b929092916024356007811015610189579160443591606435906001600160401b03821161018957610e3f91600401610db5565b9091565b61014081019081106001600160401b03821117610e5f57604052565b634e487b7160e01b5f52604160045260245ffd5b606081019081106001600160401b03821117610e5f57604052565b90601f801991011681019081106001600160401b03821117610e5f57604052565b9291926001600160401b038211610e5f5760405191610ed8601f8201601f191660200184610e8e565b829481845281830111610189578281602093845f960137010152565b9080601f8301121561018957816020610f0f93359101610eaf565b90565b600254811015610f2e5760025f52600a60205f20910201905f90565b634e487b7160e01b5f52603260045260245ffd5b90600182811c92168015610f70575b6020831014610f5c57565b634e487b7160e01b5f52602260045260245ffd5b91607f1691610f51565b9060405191825f825492610f8d84610f42565b8084529360018116908115610ff85750600114610fb4575b50610fb292500383610e8e565b565b90505f9291925260205f20905f915b818310610fdc575050906020610fb2928201015f610fa5565b6020919350806001915483858901015201910190918492610fc3565b905060209250610fb294915060ff191682840152151560051b8201015f610fa5565b98959094611063611058611075956101406101209c9f9e9b98968e6040916110839c825260018060a01b0316602082015201526101408d0190610d84565b9360608c0190610da8565b60808a015288820360a08a0152610d84565b9086820360c0880152610d84565b9560e08501526101008401521515910152565b6007811015610d64575f52600560205260405f2090565b8054821015610f2e575f5260205f2001905f90565b156110c957565b60405162461bcd60e51b8152602060048201526011602482015270125b9d985b1a59081c9958dbdc99081251607a1b6044820152606490fd5b6007821015610d645752565b1561111557565b60405162461bcd60e51b815260206004820152600a60248201526927b7363c9037bbb732b960b11b6044820152606490fd5b5f1981146105785760010190565b6020908260405193849283378101600481520301902090565b919091601f831161117f575b505050565b81831161118b57505050565b5f5260205f206020601f830160051c92106111c4575b81601f9101920160051c03905f5b8281101561117a575f828201556001016111af565b5f91506111a1565b8151815560208201516001820180546001600160a01b0319166001600160a01b03929092169190911790556040820151805160028301916001600160401b038211610e5f576112258261121f8554610f42565b8561116e565b602090601f831160011461143a5761125492915f9183611362575b50508160011b915f199060031b1c19161790565b90555b6003810160608301516007811015610d645760ff80198354169116179055608082015160048201556005810160a08301518051906001600160401b038211610e5f576112a78261121f8554610f42565b602090601f83116001146113d7576112d592915f91836113625750508160011b915f199060031b1c19161790565b90555b6006810160c08301518051906001600160401b038211610e5f576113008261121f8554610f42565b602090601f831160011461136d5782610120959360099593611336935f926113625750508160011b915f199060031b1c19161790565b90555b60e08401516007820155610100840151600882015501910151151560ff80198354169116179055565b015190505f80611240565b90601f19831691845f52815f20925f5b8181106113bf5750926001928592610120989660099896106113a7575b505050811b019055611339565b01515f1960f88460031b161c191690555f808061139a565b9293602060018192878601518155019501930161137d565b90601f19831691845f52815f20925f5b818110611422575090846001959493921061140a575b505050811b0190556112d8565b01515f1960f88460031b161c191690555f80806113fd565b929360206001819287860151815501950193016113e7565b90601f19831691845f52815f20925f5b818110611485575090846001959493921061146d575b505050811b019055611257565b01515f1960f88460031b161c191690555f8080611460565b9293602060018192878601518155019501930161144a565b600254600160401b811015610e5f5760018101600255600254811015610f2e5760025f52600a027f405787fa12a823e0f2b7631cc41b3ba8828b3321ca811111fa75cd3aa3bb5ace0190610fb2916111cc565b8054600160401b811015610e5f5761150d916001820181556110ad565b819291549060031b91821b915f19901b191617905556fea2646970667358221220b7106e99fdd926d5119f599336a440ccde5dfbafd8299c4144b0fed6683ae11964736f6c63430008210033","linkReferences":{}},"methodIdentifiers":{"agentLatestHash(string)":"9311762d","agentRecords(string,uint256)":"e3469ea2","agentSummaries(string)":"19ee2538","getAgentRecordCount(string)":"2400b032","getAgentRecordIds(string)":"8899a9cf","getAgentSummary(string)":"f398a64e","getLatestAgentHash(string)":"8275b158","getRecord(uint256)":"03e9e609","getTotalRecordCount()":"db771b76","getTypeRecordCount(uint8)":"6bbe0a9a","owner()":"8da5cb5b","recordById(uint256)":"5b41a97f","recordCompressedData(string,uint8,bytes32,bytes)":"12be3138","recordCount()":"900407bc","recordData(string,uint8,bytes32,string)":"21ec2956","records(uint256)":"34461067","typeRecords(uint8,uint256)":"48f6db69","verifiers(uint256)":"ac1eff68","verifyChainIntegrity(string)":"2626fdbc","verifyRecord(uint256)":"3af4d950"},"id":2}