{"abi":[{"type":"constructor","inputs":[{"name":"_votingPeriod","type":"uint256","internalType":"uint256"},{"name":"_quorumNumerator","type":"uint256","internalType":"uint256"},{"name":"_quorumDenominator","type":"uint256","internalType":"uint256"},{"name":"_timelockDelay","type":"uint256","internalType":"uint256"},{"name":"_proposalThreshold","type":"uint256","internalType":"uint256"}],"stateMutability":"nonpayable"},{"type":"function","name":"agentReputation","inputs":[{"name":"","type":"address","internalType":"address"}],"outputs":[{"name":"","type":"uint256","internalType":"uint256"}],"stateMutability":"view"},{"type":"function","name":"cancelProposal","inputs":[{"name":"_proposalId","type":"uint256","internalType":"uint256"}],"outputs":[],"stateMutability":"nonpayable"},{"type":"function","name":"castVote","inputs":[{"name":"_proposalId","type":"uint256","internalType":"uint256"},{"name":"_support","type":"uint8","internalType":"uint8"}],"outputs":[],"stateMutability":"nonpayable"},{"type":"function","name":"createProposal","inputs":[{"name":"_title","type":"string","internalType":"string"},{"name":"_description","type":"string","internalType":"string"},{"name":"_executionData","type":"bytes","internalType":"bytes"},{"name":"_targetContract","type":"address","internalType":"address"}],"outputs":[{"name":"","type":"uint256","internalType":"uint256"}],"stateMutability":"nonpayable"},{"type":"function","name":"delegateVotingPower","inputs":[{"name":"_to","type":"address","internalType":"address"}],"outputs":[],"stateMutability":"nonpayable"},{"type":"function","name":"executeProposal","inputs":[{"name":"_proposalId","type":"uint256","internalType":"uint256"}],"outputs":[],"stateMutability":"nonpayable"},{"type":"function","name":"getEffectiveVotingPower","inputs":[{"name":"_voter","type":"address","internalType":"address"}],"outputs":[{"name":"","type":"uint256","internalType":"uint256"}],"stateMutability":"view"},{"type":"function","name":"getProposalDetails","inputs":[{"name":"_proposalId","type":"uint256","internalType":"uint256"}],"outputs":[{"name":"proposer","type":"address","internalType":"address"},{"name":"title","type":"string","internalType":"string"},{"name":"description","type":"string","internalType":"string"},{"name":"forVotes","type":"uint256","internalType":"uint256"},{"name":"againstVotes","type":"uint256","internalType":"uint256"},{"name":"abstainVotes","type":"uint256","internalType":"uint256"},{"name":"voteStart","type":"uint256","internalType":"uint256"},{"name":"voteEnd","type":"uint256","internalType":"uint256"},{"name":"executed","type":"bool","internalType":"bool"}],"stateMutability":"view"},{"type":"function","name":"getProposalState","inputs":[{"name":"_proposalId","type":"uint256","internalType":"uint256"}],"outputs":[{"name":"","type":"uint8","internalType":"enum MABCGovernance.ProposalState"}],"stateMutability":"view"},{"type":"function","name":"getVoteReceipt","inputs":[{"name":"_proposalId","type":"uint256","internalType":"uint256"},{"name":"_voter","type":"address","internalType":"address"}],"outputs":[{"name":"hasVoted","type":"bool","internalType":"bool"},{"name":"support","type":"uint8","internalType":"uint8"},{"name":"votingPower","type":"uint256","internalType":"uint256"}],"stateMutability":"view"},{"type":"function","name":"owner","inputs":[],"outputs":[{"name":"","type":"address","internalType":"address"}],"stateMutability":"view"},{"type":"function","name":"proposalCount","inputs":[],"outputs":[{"name":"","type":"uint256","internalType":"uint256"}],"stateMutability":"view"},{"type":"function","name":"proposalThreshold","inputs":[],"outputs":[{"name":"","type":"uint256","internalType":"uint256"}],"stateMutability":"view"},{"type":"function","name":"proposals","inputs":[{"name":"","type":"uint256","internalType":"uint256"}],"outputs":[{"name":"id","type":"uint256","internalType":"uint256"},{"name":"proposer","type":"address","internalType":"address"},{"name":"title","type":"string","internalType":"string"},{"name":"description","type":"string","internalType":"string"},{"name":"executionData","type":"bytes","internalType":"bytes"},{"name":"targetContract","type":"address","internalType":"address"},{"name":"voteStart","type":"uint256","internalType":"uint256"},{"name":"voteEnd","type":"uint256","internalType":"uint256"},{"name":"forVotes","type":"uint256","internalType":"uint256"},{"name":"againstVotes","type":"uint256","internalType":"uint256"},{"name":"abstainVotes","type":"uint256","internalType":"uint256"},{"name":"quorumRequired","type":"uint256","internalType":"uint256"},{"name":"timelockEnd","type":"uint256","internalType":"uint256"},{"name":"executed","type":"bool","internalType":"bool"}],"stateMutability":"view"},{"type":"function","name":"queueProposal","inputs":[{"name":"_proposalId","type":"uint256","internalType":"uint256"}],"outputs":[],"stateMutability":"nonpayable"},{"type":"function","name":"quorumDenominator","inputs":[],"outputs":[{"name":"","type":"uint256","internalType":"uint256"}],"stateMutability":"view"},{"type":"function","name":"quorumNumerator","inputs":[],"outputs":[{"name":"","type":"uint256","internalType":"uint256"}],"stateMutability":"view"},{"type":"function","name":"registerVoter","inputs":[{"name":"_voter","type":"address","internalType":"address"},{"name":"_votingPower","type":"uint256","internalType":"uint256"}],"outputs":[],"stateMutability":"nonpayable"},{"type":"function","name":"timelockDelay","inputs":[],"outputs":[{"name":"","type":"uint256","internalType":"uint256"}],"stateMutability":"view"},{"type":"function","name":"undelegate","inputs":[],"outputs":[],"stateMutability":"nonpayable"},{"type":"function","name":"updateReputation","inputs":[{"name":"_agent","type":"address","internalType":"address"},{"name":"_score","type":"uint256","internalType":"uint256"}],"outputs":[],"stateMutability":"nonpayable"},{"type":"function","name":"updateVotingPower","inputs":[{"name":"_voter","type":"address","internalType":"address"},{"name":"_newPower","type":"uint256","internalType":"uint256"}],"outputs":[],"stateMutability":"nonpayable"},{"type":"function","name":"voters","inputs":[{"name":"","type":"address","internalType":"address"}],"outputs":[{"name":"votingPower","type":"uint256","internalType":"uint256"},{"name":"delegatedTo","type":"address","internalType":"address"},{"name":"delegationCount","type":"uint256","internalType":"uint256"},{"name":"isRegistered","type":"bool","internalType":"bool"}],"stateMutability":"view"},{"type":"function","name":"votingPeriod","inputs":[],"outputs":[{"name":"","type":"uint256","internalType":"uint256"}],"stateMutability":"view"},{"type":"event","name":"AgentReputationUpdated","inputs":[{"name":"agent","type":"address","indexed":true,"internalType":"address"},{"name":"newScore","type":"uint256","indexed":false,"internalType":"uint256"}],"anonymous":false},{"type":"event","name":"ProposalCancelled","inputs":[{"name":"proposalId","type":"uint256","indexed":true,"internalType":"uint256"}],"anonymous":false},{"type":"event","name":"ProposalCreated","inputs":[{"name":"proposalId","type":"uint256","indexed":true,"internalType":"uint256"},{"name":"proposer","type":"address","indexed":true,"internalType":"address"},{"name":"title","type":"string","indexed":false,"internalType":"string"}],"anonymous":false},{"type":"event","name":"ProposalExecuted","inputs":[{"name":"proposalId","type":"uint256","indexed":true,"internalType":"uint256"},{"name":"targetContract","type":"address","indexed":false,"internalType":"address"},{"name":"executionData","type":"bytes","indexed":false,"internalType":"bytes"}],"anonymous":false},{"type":"event","name":"ProposalQueued","inputs":[{"name":"proposalId","type":"uint256","indexed":true,"internalType":"uint256"},{"name":"timelockEnd","type":"uint256","indexed":false,"internalType":"uint256"}],"anonymous":false},{"type":"event","name":"VoteCast","inputs":[{"name":"proposalId","type":"uint256","indexed":true,"internalType":"uint256"},{"name":"voter","type":"address","indexed":true,"internalType":"address"},{"name":"support","type":"uint8","indexed":false,"internalType":"uint8"},{"name":"votingPower","type":"uint256","indexed":false,"internalType":"uint256"}],"anonymous":false},{"type":"event","name":"VoterRegistered","inputs":[{"name":"voter","type":"address","indexed":true,"internalType":"address"},{"name":"votingPower","type":"uint256","indexed":false,"internalType":"uint256"}],"anonymous":false},{"type":"event","name":"VotingPowerDelegated","inputs":[{"name":"from","type":"address","indexed":true,"internalType":"address"},{"name":"to","type":"address","indexed":true,"internalType":"address"},{"name":"votingPower","type":"uint256","indexed":false,"internalType":"uint256"}],"anonymous":false}],"bytecode":{"object":"0x608034608157601f611b4338819003918201601f19168301916001600160401b0383118484101760855780849260a094604052833981010312608157805190602081015160408201519060806060840151930151933360018060a01b03195f5416175f55600255600355600455600555600655604051611aa9908161009a8239f35b5f80fd5b634e487b7160e01b5f52604160045260245ffdfe6080806040526004361015610012575f80fd5b5f3560e01c908163013cf08b146115865750806302a251a3146115695780630d61b5191461123f5780633b4d01a71461116357806354de6e321461112b5780635678138814610ec75780636a292c0314610e9c5780638da5cb5b14610e755780639080936f14610e46578063920f80eb14610dbb57806392ab89bb14610cdd57806394a14a3414610beb57806397c3d33414610bce578063a3ec138d14610b67578063a7713a7014610b4a578063b58131b014610b2d578063b814a8de146106b9578063cbea81ef14610580578063da35c66414610563578063e0a8f6f514610433578063eadc29c71461036d578063eef09bad14610350578063f3ff955a1461019e5763f5c91a0814610124575f80fd5b3461019a57604036600319011261019a5761013d611805565b7f51e815533a649ed776696de09437559a6fd76729389c8187fbf65b034a90082a60206024359261017860018060a01b035f5416331461199d565b6001600160a01b03165f818152600983526040908190208590555193845292a2005b5f80fd5b3461019a57602036600319011261019a576101b7611805565b335f5260086020526101d260ff600360405f20015416611849565b6001600160a01b031633811461030b57805f52600860205260ff600360405f20015416156102c657335f52600860205260405f20600181019060018060a01b0382541661028d575490826001600160601b0360a01b825416179055815f526008602052600260405f20018054906001820180921161027957556040519081527fde693742b9ba86d1b465a9a02ab4e3f491c6b1e9d6b3728d4431c7232b8bbd2660203392a3005b634e487b7160e01b5f52601160045260245ffd5b60405162461bcd60e51b8152602060048201526011602482015270105b1c9958591e4819195b1959d85d1959607a1b6044820152606490fd5b60405162461bcd60e51b815260206004820152601760248201527f44656c6567617465206e6f7420726567697374657265640000000000000000006044820152606490fd5b60405162461bcd60e51b815260206004820152601760248201527f43616e6e6f742064656c656761746520746f2073656c660000000000000000006044820152606490fd5b3461019a575f36600319011261019a576020600554604051908152f35b3461019a57604036600319011261019a57610386611805565b6024359061039e60018060a01b035f5416331461199d565b6001600160a01b03165f8181526008602052604090206003015490919060ff16156103fd5760207ff16ce2c2236e2c6e3df646f80d657bceef4cd7f3a240c47e82adfa17a5f4724191835f52600882528060405f2055604051908152a2005b60405162461bcd60e51b815260206004820152600e60248201526d139bdd081c9959da5cdd195c995960921b6044820152606490fd5b3461019a57602036600319011261019a57600435805f52600760205260405f2060018060a01b0360018201541633148015610550575b1561051357610477826119d6565b60078110156104ff576104b05760075f9101557f416e669c63d9a3a5e36ee7cc7e2104b8db28ccd286aa18966e98fa230c73b08c5f80a2005b60405162461bcd60e51b815260206004820152602160248201527f43616e206f6e6c792063616e63656c2070656e64696e672070726f706f73616c6044820152607360f81b6064820152608490fd5b634e487b7160e01b5f52602160045260245ffd5b60405162461bcd60e51b81526020600482015260156024820152742737ba10383937b837b9b2b91037b91037bbb732b960591b6044820152606490fd5b505f546001600160a01b03163314610469565b3461019a575f36600319011261019a576020600154604051908152f35b3461019a57604036600319011261019a57610599611805565b602435906105b160018060a01b035f5416331461199d565b6001600160a01b03165f8181526008602052604090206003015490919060ff1661067f5760207ff16ce2c2236e2c6e3df646f80d657bceef4cd7f3a240c47e82adfa17a5f4724191610676604051610608816117a3565b82815260038482015f8152604083015f8152606084019160018352895f526008885260405f209451855560018060a01b03905116600185019060018060a01b03166001600160601b0360a01b82541617905551600284015551151591019060ff801983541691151516179055565b604051908152a2005b60405162461bcd60e51b8152602060048201526012602482015271105b1c9958591e481c9959da5cdd195c995960721b6044820152606490fd5b3461019a57608036600319011261019a5760043567ffffffffffffffff811161019a576106ea90369060040161181b565b9060243567ffffffffffffffff811161019a5761070b90369060040161181b565b92909160443567ffffffffffffffff811161019a5761072e90369060040161181b565b60643591906001600160a01b038316830361019a57335f52600860205261075e60ff600360405f20015416611849565b6107673361189b565b60065411610ae8576001545f1981146102795760019081018082555f81815260076020526040902081815591820180546001600160a01b0319163317905590979096906002890167ffffffffffffffff88116109f6576107d1886107cb83546116ce565b8361193f565b5f88601f8111600114610a8457806107fd925f91610a79575b508160011b915f199060031b1c19161790565b90555b600389019167ffffffffffffffff82116109f6576108288261082285546116ce565b8561193f565b5f90601f8311600114610a155761085692915f9183610a0a575b50508160011b915f199060031b1c19161790565b90555b600487019167ffffffffffffffff82116109f65761087b8261082285546116ce565b5f90601f8311600114610992576108a892915f91836109875750508160011b915f199060031b1c19161790565b90555b600585019060018060a01b03166001600160601b0360a01b82541617905562015180420180421161027957806108e99160068701556002549061188e565b600785015560035415600117156102795760045415610973577f7585f467599d0f008985f231af99293be388626ac16ca59505c2f8f88969cd638391600d6020965f600b8201555f600c8201550160ff1981541690558360405191878352818884015260408301375f604085830101526040813395601f80199101168101030190a3604051908152f35b634e487b7160e01b5f52601260045260245ffd5b013590508980610842565b601f19831691845f5260205f20925f5b8181106109de57509084600195949392106109c5575b505050811b0190556108ab565b01355f19600384901b60f8161c191690558880806109b8565b919360206001819287870135815501950192016109a2565b634e487b7160e01b5f52604160045260245ffd5b013590508b80610842565b601f19831691845f5260205f20925f5b818110610a615750908460019594939210610a48575b505050811b019055610859565b01355f19600384901b60f8161c191690558a8080610a3b565b91936020600181928787013581550195019201610a25565b90508901358d6107ea565b50601f19891690825f528960205f20925f5b8b828210610ace57505010610ab5575b5050600188811b019055610800565b8801355f1960038b901b60f8161c191690558a80610aa6565b84013585556001909401936020938401938d935001610a96565b60405162461bcd60e51b815260206004820152601860248201527f42656c6f772070726f706f73616c207468726573686f6c6400000000000000006044820152606490fd5b3461019a575f36600319011261019a576020600654604051908152f35b3461019a575f36600319011261019a576020600354604051908152f35b3461019a57602036600319011261019a576001600160a01b03610b88611805565b165f526008602052608060405f2080549060018060a01b036001820154169060ff6003600283015492015416916040519384526020840152604083015215156060820152f35b3461019a575f36600319011261019a576020600454604051908152f35b3461019a57602036600319011261019a57600435805f52600760205260405f20610c14826119d6565b60078110156104ff57600303610c9f57600c018054610c695760207f9a2e42fd6722813d69113e7d0079d3d940171428df7373df9c7f7617cfda289291610c5d6005544261188e565b809155604051908152a2005b60405162461bcd60e51b815260206004820152600e60248201526d105b1c9958591e481c5d595d595960921b6044820152606490fd5b60405162461bcd60e51b8152602060048201526016602482015275141c9bdc1bdcd85b081b9bdd081cdd58d8d95959195960521b6044820152606490fd5b3461019a575f36600319011261019a57335f526008602052610d0860ff600360405f20015416611849565b335f90815260086020526040902060010180546001600160a01b03168015610d86575f526008602052600260405f20018054905f19820191821161027957556001600160601b0360a01b81541690555f6040518181527fde693742b9ba86d1b465a9a02ab4e3f491c6b1e9d6b3728d4431c7232b8bbd2660203392a3005b60405162461bcd60e51b815260206004820152600d60248201526c139bdd0819195b1959d85d1959609a1b6044820152606490fd5b3461019a57604036600319011261019a576024356001600160a01b038116810361019a576004355f526007602052600e60405f20019060018060a01b03165f52602052606060405f206040805191610e1283611787565b805492600160ff80861615159586845260081c16928360208401520154928391015260405192835260208301526040820152f35b3461019a57602036600319011261019a57610e626004356119d6565b60405160078210156104ff576020918152f35b3461019a575f36600319011261019a575f546040516001600160a01b039091168152602090f35b3461019a57602036600319011261019a576020610ebf610eba611805565b61189b565b604051908152f35b3461019a57604036600319011261019a576004356024359060ff821680920361019a57335f526008602052610f0560ff600360405f20015416611849565b600282116110d457805f52600760205260405f206006810154421061109a576007810154421161106657600e81019060018060a01b0333165f528160205260ff60405f20541661103157610f583361189b565b91600160405191610f6883611787565b818352602083018781526040840191868352838060a01b0333165f52602052610fa460405f2094511515859060ff801983541691151516179055565b51835461ff00191660089190911b61ff0016178355519101558361100657600901610fd082825461188e565b90555b60405192835260208301527fb83d25c6a5d258561330739951487acb4bd09ba5190b5d32c4f261817d90679260403393a3005b600184036110235760080161101c82825461188e565b9055610fd3565b600a0161101c82825461188e565b60405162461bcd60e51b815260206004820152600d60248201526c105b1c9958591e481d9bdd1959609a1b6044820152606490fd5b60405162461bcd60e51b815260206004820152600c60248201526b159bdd1a5b99c8195b99195960a21b6044820152606490fd5b60405162461bcd60e51b8152602060048201526012602482015271159bdd1a5b99c81b9bdd081cdd185c9d195960721b6044820152606490fd5b60405162461bcd60e51b815260206004820152602960248201527f496e76616c696420766f74653a20303d616761696e73742c20313d666f722c20604482015268191eb0b139ba30b4b760b91b6064820152608490fd5b3461019a57602036600319011261019a576001600160a01b0361114c611805565b165f526009602052602060405f2054604051908152f35b3461019a57602036600319011261019a576004355f52600760205260405f2060018060a01b0360018201541660088201546009830154600a840154600685015460078601549160ff600d880154169361121960036111ed6040519a6111d68c6111cf8160028501611706565b038d6117bf565b6111e66040518094819301611706565b03826117bf565b61120b6040519a8b9a8b5261012060208c01526101208b01906117e1565b9089820360408b01526117e1565b956060880152608087015260a086015260c085015260e084015215156101008301520390f35b3461019a57602036600319011261019a57600435805f52600760205260405f20611268826119d6565b60078110156104ff5760040361152e57600c81015442106114f257600d8101805460ff81166114ba5760019060ff191617905560058101600460018060a01b038254169201916040515f84546112bd816116ce565b90600181169081156114a55750600114611474575b5091815f809493819403925af13d1561146f573d67ffffffffffffffff81116109f6576040519061130d601f8201601f1916602001836117bf565b81525f60203d92013e5b1561142a5754604080516001600160a01b0390921682526020820152815490915f9190611343826116ce565b918260408601526001811690815f146113e75750600114611388575b847fc98fbf8f20b11b050a9541d12aee1c11fcd31e8e42975cc885fb3d33a6accc8285850386a2005b5f90815260208120939250905b8082106113cc57509091508101606001817fc98fbf8f20b11b050a9541d12aee1c11fcd31e8e42975cc885fb3d33a6accc8261135f565b91926001816020925460608588010152019101909291611395565b859450606092507fc98fbf8f20b11b050a9541d12aee1c11fcd31e8e42975cc885fb3d33a6accc829593915060ff191682840152151560051b820101919261135f565b60405162461bcd60e51b815260206004820152601960248201527f50726f706f73616c20657865637574696f6e206661696c6564000000000000006044820152606490fd5b611317565b9050845f5260205f205f905b8282106114915750508101816112d2565b600181602092548487015201910190611480565b60ff19168452508015150282019050816112d2565b60405162461bcd60e51b815260206004820152601060248201526f105b1c9958591e48195e1958dd5d195960821b6044820152606490fd5b60405162461bcd60e51b8152602060048201526014602482015273151a5b595b1bd8dac81b9bdd08195e1c1a5c995960621b6044820152606490fd5b60405162461bcd60e51b8152602060048201526013602482015272141c9bdc1bdcd85b081b9bdd081c5d595d5959606a1b6044820152606490fd5b3461019a575f36600319011261019a576020600254604051908152f35b3461019a57602036600319011261019a576004355f908152600760205260409020805460018201546001600160a01b031692909190806115c98160028501611706565b036115d490826117bf565b60405191826115e68160038401611706565b036115f190846117bf565b60405192836116038160048501611706565b0361160e90856117bf565b600160a01b600190036005830154169360068301546007840154600885015490600986015492600a87015494600b88015496600c89015498600d015460ff16996040519d8e809e81526020015260408d016101c090526101c08d01611672916117e1565b8c810360608e0152611683916117e1565b8b810360808d0152611694916117e1565b9860a08b015260c08a015260e089015261010088015261012087015261014086015261016085015261018084015215156101a08301520390f35b90600182811c921680156116fc575b60208310146116e857565b634e487b7160e01b5f52602260045260245ffd5b91607f16916116dd565b5f9291815491611715836116ce565b808352926001811690811561176a575060011461173157505050565b5f9081526020812093945091925b838310611750575060209250010190565b60018160209294939454838587010152019101919061173f565b915050602093945060ff929192191683830152151560051b010190565b6060810190811067ffffffffffffffff8211176109f657604052565b6080810190811067ffffffffffffffff8211176109f657604052565b90601f8019910116810190811067ffffffffffffffff8211176109f657604052565b805180835260209291819084018484015e5f828201840152601f01601f1916010190565b600435906001600160a01b038216820361019a57565b9181601f8401121561019a5782359167ffffffffffffffff831161019a576020838186019501011161019a57565b1561185057565b60405162461bcd60e51b81526020600482015260166024820152752737ba1030903932b3b4b9ba32b932b2103b37ba32b960511b6044820152606490fd5b9190820180921161027957565b60018060a01b0316805f52600860205260405f209060ff6003604051936118c1856117a3565b8054855260018101546001600160a01b03166020860152600281015460408601520154161580156060840152611939575f52600960205260405f205460011c90519061190d818361188e565b918060011b928184046002148215171561027957831061193457611931925061188e565b90565b505090565b50505f90565b919091601f8311611950575b505050565b81831161195c57505050565b5f5260205f206020601f830160051c9210611995575b81601f9101920160051c03905f5b8281101561194b575f82820155600101611980565b5f9150611972565b156119a457565b60405162461bcd60e51b815260206004820152600a60248201526927b7363c9037bbb732b960b11b6044820152606490fd5b5f52600760205260405f2060ff600d82015416611a6d5760078101548015611a66576006820154421061193957421115611a605760088101546009820154811115611a5957600a820154611a299161188e565b600b82015411611a5357600c015480611a425750600390565b421015611a4e57600490565b600490565b50600290565b5050600290565b50600190565b5050600690565b5060059056fea2646970667358221220400b3020ab5a70f049c5377f91a5256fab768f70fa57b004a3b795287d42998264736f6c63430008210033","linkReferences":{}},"methodIdentifiers":{"agentReputation(address)":"54de6e32","cancelProposal(uint256)":"e0a8f6f5","castVote(uint256,uint8)":"56781388","createProposal(string,string,bytes,address)":"b814a8de","delegateVotingPower(address)":"f3ff955a","executeProposal(uint256)":"0d61b519","getEffectiveVotingPower(address)":"6a292c03","getProposalDetails(uint256)":"3b4d01a7","getProposalState(uint256)":"9080936f","getVoteReceipt(uint256,address)":"920f80eb","owner()":"8da5cb5b","proposalCount()":"da35c664","proposalThreshold()":"b58131b0","proposals(uint256)":"013cf08b","queueProposal(uint256)":"94a14a34","quorumDenominator()":"97c3d334","quorumNumerator()":"a7713a70","registerVoter(address,uint256)":"cbea81ef","timelockDelay()":"eef09bad","undelegate()":"92ab89bb","updateReputation(address,uint256)":"f5c91a08","updateVotingPower(address,uint256)":"eadc29c7","voters(address)":"a3ec138d","votingPeriod()":"02a251a3"},"id":6}