{"abi":[{"type":"constructor","inputs":[],"stateMutability":"nonpayable"},{"type":"receive","stateMutability":"payable"},{"type":"function","name":"bills","inputs":[{"name":"","type":"uint256","internalType":"uint256"}],"outputs":[{"name":"user","type":"address","internalType":"address"},{"name":"amount","type":"uint256","internalType":"uint256"},{"name":"timestamp","type":"uint256","internalType":"uint256"},{"name":"paid","type":"bool","internalType":"bool"}],"stateMutability":"view"},{"type":"function","name":"checkPaid","inputs":[{"name":"_user","type":"address","internalType":"address"}],"outputs":[{"name":"","type":"bool","internalType":"bool"}],"stateMutability":"view"},{"type":"function","name":"getTotalBills","inputs":[],"outputs":[{"name":"","type":"uint256","internalType":"uint256"}],"stateMutability":"view"},{"type":"function","name":"hasPaid","inputs":[{"name":"","type":"address","internalType":"address"}],"outputs":[{"name":"","type":"bool","internalType":"bool"}],"stateMutability":"view"},{"type":"function","name":"lastPaymentAmount","inputs":[{"name":"","type":"address","internalType":"address"}],"outputs":[{"name":"","type":"uint256","internalType":"uint256"}],"stateMutability":"view"},{"type":"function","name":"lastPaymentTime","inputs":[{"name":"","type":"address","internalType":"address"}],"outputs":[{"name":"","type":"uint256","internalType":"uint256"}],"stateMutability":"view"},{"type":"function","name":"owner","inputs":[],"outputs":[{"name":"","type":"address","internalType":"address"}],"stateMutability":"view"},{"type":"function","name":"recordPayment","inputs":[{"name":"_user","type":"address","internalType":"address"},{"name":"_amount","type":"uint256","internalType":"uint256"}],"outputs":[],"stateMutability":"nonpayable"},{"type":"function","name":"rewardAgent","inputs":[{"name":"_agent","type":"address","internalType":"address"},{"name":"_reward","type":"uint256","internalType":"uint256"}],"outputs":[],"stateMutability":"nonpayable"},{"type":"function","name":"totalBills","inputs":[],"outputs":[{"name":"","type":"uint256","internalType":"uint256"}],"stateMutability":"view"},{"type":"event","name":"AgentRewarded","inputs":[{"name":"agent","type":"address","indexed":true,"internalType":"address"},{"name":"reward","type":"uint256","indexed":false,"internalType":"uint256"}],"anonymous":false},{"type":"event","name":"PaymentRecorded","inputs":[{"name":"user","type":"address","indexed":true,"internalType":"address"},{"name":"amount","type":"uint256","indexed":false,"internalType":"uint256"}],"anonymous":false}],"bytecode":{"object":"0x60808060405234602757600480546001600160a01b03191633179055610527908161002c8239f35b5f80fdfe6080604052600436101561001a575b3615610018575f80fd5b005b5f3560e01c806328bdcde814610410578063381b54af146103f35780633c6fa765146103f3578063697532b2146103bb5780636e2998a1146103835780638da5cb5b1461035b57806397499b451461008d578063c11d2d18146101e5578063e52ccf99146100cd5763fbf47a9a0361000e575b346100c95760203660031901126100c9576001600160a01b036100ae6104a2565b165f525f602052602060ff60405f2054166040519015158152f35b5f80fd5b346100c95760403660031901126100c9576100e66104a2565b602435906100ff60018060a01b036004541633146104b8565b5f80808085855af13d156101e0573d67ffffffffffffffff81116101cc5760405190601f8101601f19908116603f0116820167ffffffffffffffff8111838210176101cc5760405281525f60203d92013e5b1561018e576040519182526001600160a01b0316907fbfb306f49a3ca3a1839ee1fc46a4a5ab81b7c33d1c79e28b78c06202c11abc3c90602090a2005b60405162461bcd60e51b815260206004820152601660248201527514995dd85c99081d1c985b9cd9995c8819985a5b195960521b6044820152606490fd5b634e487b7160e01b5f52604160045260245ffd5b610151565b346100c95760403660031901126100c9576101fe6104a2565b6024359061021760018060a01b036004541633146104b8565b6001600160a01b03165f81815260208181526040808320805460ff191660019081179091558252808320859055600290915290819020429055519091906080810167ffffffffffffffff8111828210176101cc5760405282815260208101908282526040810191428352606082019260018452600354680100000000000000008110156101cc578060016102ae9201600355610472565b9290926103485760039360018060a01b039051166bffffffffffffffffffffffff60a01b845416178355516001830155516002820155019051151560ff801983541691161790556005545f198114610334577f8d40b1e890ced9adf397d25a06046df796e132dd75cbfb5a21c868c2b4a4a75e91600160209201600555604051908152a2005b634e487b7160e01b5f52601160045260245ffd5b634e487b7160e01b5f525f60045260245ffd5b346100c9575f3660031901126100c9576004546040516001600160a01b039091168152602090f35b346100c95760203660031901126100c9576001600160a01b036103a46104a2565b165f526001602052602060405f2054604051908152f35b346100c95760203660031901126100c9576001600160a01b036103dc6104a2565b165f526002602052602060405f2054604051908152f35b346100c9575f3660031901126100c9576020600554604051908152f35b346100c95760203660031901126100c9576004356003548110156100c957610439608091610472565b5060018060a01b038154169060018101549060ff6003600283015492015416916040519384526020840152604083015215156060820152f35b60035481101561048e5760035f5260205f209060021b01905f90565b634e487b7160e01b5f52603260045260245ffd5b600435906001600160a01b03821682036100c957565b156104bf57565b60405162461bcd60e51b815260206004820152600a60248201526927b7363c9037bbb732b960b11b6044820152606490fdfea2646970667358221220b61a8e1bf67ff9d8e56fd23411d0e1ec43d209483fced6932eee0b4a1028b0d364736f6c63430008210033","linkReferences":{}},"methodIdentifiers":{"bills(uint256)":"28bdcde8","checkPaid(address)":"97499b45","getTotalBills()":"3c6fa765","hasPaid(address)":"fbf47a9a","lastPaymentAmount(address)":"6e2998a1","lastPaymentTime(address)":"697532b2","owner()":"8da5cb5b","recordPayment(address,uint256)":"c11d2d18","rewardAgent(address,uint256)":"e52ccf99","totalBills()":"381b54af"},"id":1}