{"abi":[{"type":"constructor","inputs":[],"stateMutability":"nonpayable"},{"type":"receive","stateMutability":"payable"},{"type":"function","name":"bills","inputs":[{"name":"","type":"uint256","internalType":"uint256"}],"outputs":[{"name":"user","type":"address","internalType":"address"},{"name":"amount","type":"uint256","internalType":"uint256"},{"name":"timestamp","type":"uint256","internalType":"uint256"},{"name":"paid","type":"bool","internalType":"bool"}],"stateMutability":"view"},{"type":"function","name":"checkPaid","inputs":[{"name":"_user","type":"address","internalType":"address"}],"outputs":[{"name":"","type":"bool","internalType":"bool"}],"stateMutability":"view"},{"type":"function","name":"getTotalBills","inputs":[],"outputs":[{"name":"","type":"uint256","internalType":"uint256"}],"stateMutability":"view"},{"type":"function","name":"hasPaid","inputs":[{"name":"","type":"address","internalType":"address"}],"outputs":[{"name":"","type":"bool","internalType":"bool"}],"stateMutability":"view"},{"type":"function","name":"lastPaymentAmount","inputs":[{"name":"","type":"address","internalType":"address"}],"outputs":[{"name":"","type":"uint256","internalType":"uint256"}],"stateMutability":"view"},{"type":"function","name":"lastPaymentTime","inputs":[{"name":"","type":"address","internalType":"address"}],"outputs":[{"name":"","type":"uint256","internalType":"uint256"}],"stateMutability":"view"},{"type":"function","name":"owner","inputs":[],"outputs":[{"name":"","type":"address","internalType":"address"}],"stateMutability":"view"},{"type":"function","name":"recordPayment","inputs":[{"name":"_user","type":"address","internalType":"address"},{"name":"_amount","type":"uint256","internalType":"uint256"}],"outputs":[],"stateMutability":"nonpayable"},{"type":"function","name":"rewardAgent","inputs":[{"name":"_agent","type":"address","internalType":"address"},{"name":"_reward","type":"uint256","internalType":"uint256"}],"outputs":[],"stateMutability":"nonpayable"},{"type":"function","name":"totalBills","inputs":[],"outputs":[{"name":"","type":"uint256","internalType":"uint256"}],"stateMutability":"view"},{"type":"event","name":"AgentRewarded","inputs":[{"name":"agent","type":"address","indexed":true,"internalType":"address"},{"name":"reward","type":"uint256","indexed":false,"internalType":"uint256"}],"anonymous":false},{"type":"event","name":"PaymentRecorded","inputs":[{"name":"user","type":"address","indexed":true,"internalType":"address"},{"name":"amount","type":"uint256","indexed":false,"internalType":"uint256"}],"anonymous":false}],"bytecode":{"object":"0x6080604052348015600e575f5ffd5b503360045f6101000a81548173ffffffffffffffffffffffffffffffffffffffff021916908373ffffffffffffffffffffffffffffffffffffffff160217905550610bb88061005c5f395ff3fe608060405260043610610094575f3560e01c80638da5cb5b116100585780638da5cb5b146101aa57806397499b45146101d4578063c11d2d1814610210578063e52ccf9914610238578063fbf47a9a146102605761009b565b806328bdcde81461009f578063381b54af146100de5780633c6fa76514610108578063697532b2146101325780636e2998a11461016e5761009b565b3661009b57005b5f5ffd5b3480156100aa575f5ffd5b506100c560048036038101906100c09190610839565b61029c565b6040516100d594939291906108cc565b60405180910390f35b3480156100e9575f5ffd5b506100f2610302565b6040516100ff919061090f565b60405180910390f35b348015610113575f5ffd5b5061011c610308565b604051610129919061090f565b60405180910390f35b34801561013d575f5ffd5b5061015860048036038101906101539190610952565b610311565b604051610165919061090f565b60405180910390f35b348015610179575f5ffd5b50610194600480360381019061018f9190610952565b610326565b6040516101a1919061090f565b60405180910390f35b3480156101b5575f5ffd5b506101be61033b565b6040516101cb919061097d565b60405180910390f35b3480156101df575f5ffd5b506101fa60048036038101906101f59190610952565b610360565b6040516102079190610996565b60405180910390f35b34801561021b575f5ffd5b50610236600480360381019061023191906109af565b6103b1565b005b348015610243575f5ffd5b5061025e600480360381019061025991906109af565b61065c565b005b34801561026b575f5ffd5b5061028660048036038101906102819190610952565b6107e6565b6040516102939190610996565b60405180910390f35b600381815481106102ab575f80fd5b905f5260205f2090600402015f91509050805f015f9054906101000a900473ffffffffffffffffffffffffffffffffffffffff1690806001015490806002015490806003015f9054906101000a900460ff16905084565b60055481565b5f600554905090565b6002602052805f5260405f205f915090505481565b6001602052805f5260405f205f915090505481565b60045f9054906101000a900473ffffffffffffffffffffffffffffffffffffffff1681565b5f5f5f8373ffffffffffffffffffffffffffffffffffffffff1673ffffffffffffffffffffffffffffffffffffffff1681526020019081526020015f205f9054906101000a900460ff169050919050565b60045f9054906101000a900473ffffffffffffffffffffffffffffffffffffffff1673ffffffffffffffffffffffffffffffffffffffff163373ffffffffffffffffffffffffffffffffffffffff1614610440576040517f08c379a000000000000000000000000000000000000000000000000000000000815260040161043790610a47565b60405180910390fd5b60015f5f8473ffffffffffffffffffffffffffffffffffffffff1673ffffffffffffffffffffffffffffffffffffffff1681526020019081526020015f205f6101000a81548160ff0219169083151502179055508060015f8473ffffffffffffffffffffffffffffffffffffffff1673ffffffffffffffffffffffffffffffffffffffff1681526020019081526020015f20819055504260025f8473ffffffffffffffffffffffffffffffffffffffff1673ffffffffffffffffffffffffffffffffffffffff1681526020019081526020015f2081905550600360405180608001604052808473ffffffffffffffffffffffffffffffffffffffff16815260200183815260200142815260200160011515815250908060018154018082558091505060019003905f5260205f2090600402015f909190919091505f820151815f015f6101000a81548173ffffffffffffffffffffffffffffffffffffffff021916908373ffffffffffffffffffffffffffffffffffffffff16021790555060208201518160010155604082015181600201556060820151816003015f6101000a81548160ff021916908315150217905550505060055f81548092919061060590610a92565b91905055508173ffffffffffffffffffffffffffffffffffffffff167f8d40b1e890ced9adf397d25a06046df796e132dd75cbfb5a21c868c2b4a4a75e82604051610650919061090f565b60405180910390a25050565b60045f9054906101000a900473ffffffffffffffffffffffffffffffffffffffff1673ffffffffffffffffffffffffffffffffffffffff163373ffffffffffffffffffffffffffffffffffffffff16146106eb576040517f08c379a00000000000000000000000000000000000000000000000000000000081526004016106e290610a47565b60405180910390fd5b5f8273ffffffffffffffffffffffffffffffffffffffff168260405161071090610b06565b5f6040518083038185875af1925050503d805f811461074a576040519150601f19603f3d011682016040523d82523d5f602084013e61074f565b606091505b5050905080610793576040517f08c379a000000000000000000000000000000000000000000000000000000000815260040161078a90610b64565b60405180910390fd5b8273ffffffffffffffffffffffffffffffffffffffff167fbfb306f49a3ca3a1839ee1fc46a4a5ab81b7c33d1c79e28b78c06202c11abc3c836040516107d9919061090f565b60405180910390a2505050565b5f602052805f5260405f205f915054906101000a900460ff1681565b5f5ffd5b5f819050919050565b61081881610806565b8114610822575f5ffd5b50565b5f813590506108338161080f565b92915050565b5f6020828403121561084e5761084d610802565b5b5f61085b84828501610825565b91505092915050565b5f73ffffffffffffffffffffffffffffffffffffffff82169050919050565b5f61088d82610864565b9050919050565b61089d81610883565b82525050565b6108ac81610806565b82525050565b5f8115159050919050565b6108c6816108b2565b82525050565b5f6080820190506108df5f830187610894565b6108ec60208301866108a3565b6108f960408301856108a3565b61090660608301846108bd565b95945050505050565b5f6020820190506109225f8301846108a3565b92915050565b61093181610883565b811461093b575f5ffd5b50565b5f8135905061094c81610928565b92915050565b5f6020828403121561096757610966610802565b5b5f6109748482850161093e565b91505092915050565b5f6020820190506109905f830184610894565b92915050565b5f6020820190506109a95f8301846108bd565b92915050565b5f5f604083850312156109c5576109c4610802565b5b5f6109d28582860161093e565b92505060206109e385828601610825565b9150509250929050565b5f82825260208201905092915050565b7f4f6e6c79206f776e6572000000000000000000000000000000000000000000005f82015250565b5f610a31600a836109ed565b9150610a3c826109fd565b602082019050919050565b5f6020820190508181035f830152610a5e81610a25565b9050919050565b7f4e487b71000000000000000000000000000000000000000000000000000000005f52601160045260245ffd5b5f610a9c82610806565b91507fffffffffffffffffffffffffffffffffffffffffffffffffffffffffffffffff8203610ace57610acd610a65565b5b600182019050919050565b5f81905092915050565b50565b5f610af15f83610ad9565b9150610afc82610ae3565b5f82019050919050565b5f610b1082610ae6565b9150819050919050565b7f526577617264207472616e73666572206661696c6564000000000000000000005f82015250565b5f610b4e6016836109ed565b9150610b5982610b1a565b602082019050919050565b5f6020820190508181035f830152610b7b81610b42565b905091905056fea26469706673582212200b00f3d23f69e13d3e0d104aa5cf73372d347fafd434dfd9c20a41d427a72b7b64736f6c63430008210033","linkReferences":{}},"methodIdentifiers":{"bills(uint256)":"28bdcde8","checkPaid(address)":"97499b45","getTotalBills()":"3c6fa765","hasPaid(address)":"fbf47a9a","lastPaymentAmount(address)":"6e2998a1","lastPaymentTime(address)":"697532b2","owner()":"8da5cb5b","recordPayment(address,uint256)":"c11d2d18","rewardAgent(address,uint256)":"e52ccf99","totalBills()":"381b54af"},"id":1}