{"abi":[{"type":"constructor","inputs":[],"stateMutability":"nonpayable"},{"type":"function","name":"disputes","inputs":[{"name":"","type":"uint256","internalType":"uint256"}],"outputs":[{"name":"reporter","type":"address","internalType":"address"},{"name":"agentId","type":"string","internalType":"string"},{"name":"eventHash","type":"bytes32","internalType":"bytes32"},{"name":"reason","type":"string","internalType":"string"},{"name":"status","type":"uint8","internalType":"enum DisputeResolver.DisputeStatus"},{"name":"createdAt","type":"uint256","internalType":"uint256"},{"name":"resolvedAt","type":"uint256","internalType":"uint256"}],"stateMutability":"view"},{"type":"function","name":"fileDispute","inputs":[{"name":"agentId","type":"string","internalType":"string"},{"name":"eventHash","type":"bytes32","internalType":"bytes32"},{"name":"reason","type":"string","internalType":"string"}],"outputs":[{"name":"","type":"uint256","internalType":"uint256"}],"stateMutability":"nonpayable"},{"type":"function","name":"getDisputeCount","inputs":[],"outputs":[{"name":"","type":"uint256","internalType":"uint256"}],"stateMutability":"view"},{"type":"function","name":"owner","inputs":[],"outputs":[{"name":"","type":"address","internalType":"address"}],"stateMutability":"view"},{"type":"function","name":"resolveDispute","inputs":[{"name":"disputeId","type":"uint256","internalType":"uint256"},{"name":"accepted","type":"bool","internalType":"bool"}],"outputs":[],"stateMutability":"nonpayable"},{"type":"event","name":"DisputeFiled","inputs":[{"name":"disputeId","type":"uint256","indexed":true,"internalType":"uint256"},{"name":"agentId","type":"string","indexed":true,"internalType":"string"},{"name":"eventHash","type":"bytes32","indexed":true,"internalType":"bytes32"},{"name":"reporter","type":"address","indexed":false,"internalType":"address"}],"anonymous":false},{"type":"event","name":"DisputeResolved","inputs":[{"name":"disputeId","type":"uint256","indexed":true,"internalType":"uint256"},{"name":"status","type":"uint8","indexed":false,"internalType":"enum DisputeResolver.DisputeStatus"}],"anonymous":false}],"bytecode":{"object":"0x6080604052348015600e575f5ffd5b50335f5f6101000a81548173ffffffffffffffffffffffffffffffffffffffff021916908373ffffffffffffffffffffffffffffffffffffffff1602179055506110608061005b5f395ff3fe608060405234801561000f575f5ffd5b5060043610610055575f3560e01c806310987b771461005957806334b25ee214610077578063564a565d146100935780638da5cb5b146100c9578063a52f2f0a146100e7575b5f5ffd5b610061610117565b60405161006e919061071b565b60405180910390f35b610091600480360381019061008c919061079b565b610123565b005b6100ad60048036038101906100a891906107d9565b610320565b6040516100c0979695949392919061093e565b60405180910390f35b6100d16104a4565b6040516100de91906109b9565b60405180910390f35b61010160048036038101906100fc9190610a5d565b6104c8565b60405161010e919061071b565b60405180910390f35b5f600180549050905090565b5f5f9054906101000a900473ffffffffffffffffffffffffffffffffffffffff1673ffffffffffffffffffffffffffffffffffffffff163373ffffffffffffffffffffffffffffffffffffffff16146101b1576040517f08c379a00000000000000000000000000000000000000000000000000000000081526004016101a890610b38565b60405180910390fd5b60018054905082106101f8576040517f08c379a00000000000000000000000000000000000000000000000000000000081526004016101ef90610ba0565b60405180910390fd5b5f6001838154811061020d5761020c610bbe565b5b905f5260205f20906007020190505f600281111561022e5761022d6108cb565b5b816004015f9054906101000a900460ff166002811115610251576102506108cb565b5b14610291576040517f08c379a000000000000000000000000000000000000000000000000000000000815260040161028890610c35565b60405180910390fd5b8161029d5760026102a0565b60015b816004015f6101000a81548160ff021916908360028111156102c5576102c46108cb565b5b0217905550428160060181905550827f2ffcfee146bc0d5ff304c6b65111a0d485af9456dc64eee7d66ebdcc90b223ea826004015f9054906101000a900460ff166040516103139190610c53565b60405180910390a2505050565b6001818154811061032f575f80fd5b905f5260205f2090600702015f91509050805f015f9054906101000a900473ffffffffffffffffffffffffffffffffffffffff169080600101805461037390610c99565b80601f016020809104026020016040519081016040528092919081815260200182805461039f90610c99565b80156103ea5780601f106103c1576101008083540402835291602001916103ea565b820191905f5260205f20905b8154815290600101906020018083116103cd57829003601f168201915b50505050509080600201549080600301805461040590610c99565b80601f016020809104026020016040519081016040528092919081815260200182805461043190610c99565b801561047c5780601f106104535761010080835404028352916020019161047c565b820191905f5260205f20905b81548152906001019060200180831161045f57829003601f168201915b505050505090806004015f9054906101000a900460ff16908060050154908060060154905087565b5f5f9054906101000a900473ffffffffffffffffffffffffffffffffffffffff1681565b5f60016040518060e001604052803373ffffffffffffffffffffffffffffffffffffffff16815260200188888080601f0160208091040260200160405190810160405280939291908181526020018383808284375f81840152601f19601f82011690508083019250505050505050815260200186815260200185858080601f0160208091040260200160405190810160405280939291908181526020018383808284375f81840152601f19601f8201169050808301925050505050505081526020015f600281111561059d5761059c6108cb565b5b81526020014281526020015f815250908060018154018082558091505060019003905f5260205f2090600702015f909190919091505f820151815f015f6101000a81548173ffffffffffffffffffffffffffffffffffffffff021916908373ffffffffffffffffffffffffffffffffffffffff160217905550602082015181600101908161062b9190610ea7565b5060408201518160020155606082015181600301908161064b9190610ea7565b506080820151816004015f6101000a81548160ff02191690836002811115610676576106756108cb565b5b021790555060a0820151816005015560c0820151816006015550505f600180805490506106a39190610fa3565b90508487876040516106b6929190611012565b6040518091039020827f0d9ada7a806054eedfe6029e124ed162d0f1d3afb208df716a1561c59608e5c3336040516106ee91906109b9565b60405180910390a48091505095945050505050565b5f819050919050565b61071581610703565b82525050565b5f60208201905061072e5f83018461070c565b92915050565b5f5ffd5b5f5ffd5b61074581610703565b811461074f575f5ffd5b50565b5f813590506107608161073c565b92915050565b5f8115159050919050565b61077a81610766565b8114610784575f5ffd5b50565b5f8135905061079581610771565b92915050565b5f5f604083850312156107b1576107b0610734565b5b5f6107be85828601610752565b92505060206107cf85828601610787565b9150509250929050565b5f602082840312156107ee576107ed610734565b5b5f6107fb84828501610752565b91505092915050565b5f73ffffffffffffffffffffffffffffffffffffffff82169050919050565b5f61082d82610804565b9050919050565b61083d81610823565b82525050565b5f81519050919050565b5f82825260208201905092915050565b8281835e5f83830152505050565b5f601f19601f8301169050919050565b5f61088582610843565b61088f818561084d565b935061089f81856020860161085d565b6108a88161086b565b840191505092915050565b5f819050919050565b6108c5816108b3565b82525050565b7f4e487b71000000000000000000000000000000000000000000000000000000005f52602160045260245ffd5b60038110610909576109086108cb565b5b50565b5f819050610919826108f8565b919050565b5f6109288261090c565b9050919050565b6109388161091e565b82525050565b5f60e0820190506109515f83018a610834565b8181036020830152610963818961087b565b905061097260408301886108bc565b8181036060830152610984818761087b565b9050610993608083018661092f565b6109a060a083018561070c565b6109ad60c083018461070c565b98975050505050505050565b5f6020820190506109cc5f830184610834565b92915050565b5f5ffd5b5f5ffd5b5f5ffd5b5f5f83601f8401126109f3576109f26109d2565b5b8235905067ffffffffffffffff811115610a1057610a0f6109d6565b5b602083019150836001820283011115610a2c57610a2b6109da565b5b9250929050565b610a3c816108b3565b8114610a46575f5ffd5b50565b5f81359050610a5781610a33565b92915050565b5f5f5f5f5f60608688031215610a7657610a75610734565b5b5f86013567ffffffffffffffff811115610a9357610a92610738565b5b610a9f888289016109de565b95509550506020610ab288828901610a49565b935050604086013567ffffffffffffffff811115610ad357610ad2610738565b5b610adf888289016109de565b92509250509295509295909350565b7f4f6e6c79206f776e6572000000000000000000000000000000000000000000005f82015250565b5f610b22600a8361084d565b9150610b2d82610aee565b602082019050919050565b5f6020820190508181035f830152610b4f81610b16565b9050919050565b7f696e76616c6964206469737075746520696400000000000000000000000000005f82015250565b5f610b8a60128361084d565b9150610b9582610b56565b602082019050919050565b5f6020820190508181035f830152610bb781610b7e565b9050919050565b7f4e487b71000000000000000000000000000000000000000000000000000000005f52603260045260245ffd5b7f616c726561647920636c6f7365640000000000000000000000000000000000005f82015250565b5f610c1f600e8361084d565b9150610c2a82610beb565b602082019050919050565b5f6020820190508181035f830152610c4c81610c13565b9050919050565b5f602082019050610c665f83018461092f565b92915050565b7f4e487b71000000000000000000000000000000000000000000000000000000005f52602260045260245ffd5b5f6002820490506001821680610cb057607f821691505b602082108103610cc357610cc2610c6c565b5b50919050565b7f4e487b71000000000000000000000000000000000000000000000000000000005f52604160045260245ffd5b5f819050815f5260205f209050919050565b5f6020601f8301049050919050565b5f82821b905092915050565b5f60088302610d527fffffffffffffffffffffffffffffffffffffffffffffffffffffffffffffffff82610d17565b610d5c8683610d17565b95508019841693508086168417925050509392505050565b5f819050919050565b5f610d97610d92610d8d84610703565b610d74565b610703565b9050919050565b5f819050919050565b610db083610d7d565b610dc4610dbc82610d9e565b848454610d23565b825550505050565b5f5f905090565b610ddb610dcc565b610de6818484610da7565b505050565b5f5b82811015610e0c57610e015f828401610dd3565b600181019050610ded565b505050565b601f821115610e5f5782821115610e5e57610e2b81610cf6565b610e3483610d08565b610e3d85610d08565b6020861015610e4a575f90505b808301610e5982840382610deb565b505050505b5b505050565b5f82821c905092915050565b5f610e7f5f1984600802610e64565b1980831691505092915050565b5f610e978383610e70565b9150826002028217905092915050565b610eb082610843565b67ffffffffffffffff811115610ec957610ec8610cc9565b5b610ed38254610c99565b610ede828285610e11565b5f60209050601f831160018114610f0f575f8415610efd578287015190505b610f078582610e8c565b865550610f6e565b601f198416610f1d86610cf6565b5f5b82811015610f4457848901518255600182019150602085019450602081019050610f1f565b86831015610f615784890151610f5d601f891682610e70565b8355505b6001600288020188555050505b505050505050565b7f4e487b71000000000000000000000000000000000000000000000000000000005f52601160045260245ffd5b5f610fad82610703565b9150610fb883610703565b9250828203905081811115610fd057610fcf610f76565b5b92915050565b5f81905092915050565b828183375f83830152505050565b5f610ff98385610fd6565b9350611006838584610fe0565b82840190509392505050565b5f61101e828486610fee565b9150819050939250505056fea2646970667358221220111206b7b732a0cd4293bdc8bf7a47e82c96adf5c2916f54cabb3e0264d5234c64736f6c63430008210033","linkReferences":{}},"methodIdentifiers":{"disputes(uint256)":"564a565d","fileDispute(string,bytes32,string)":"a52f2f0a","getDisputeCount()":"10987b77","owner()":"8da5cb5b","resolveDispute(uint256,bool)":"34b25ee2"},"id":2}