{"abi":[{"type":"constructor","inputs":[],"stateMutability":"nonpayable"},{"type":"function","name":"disputes","inputs":[{"name":"","type":"uint256","internalType":"uint256"}],"outputs":[{"name":"reporter","type":"address","internalType":"address"},{"name":"agentId","type":"string","internalType":"string"},{"name":"eventHash","type":"bytes32","internalType":"bytes32"},{"name":"reason","type":"string","internalType":"string"},{"name":"status","type":"uint8","internalType":"enum DisputeResolver.DisputeStatus"},{"name":"createdAt","type":"uint256","internalType":"uint256"},{"name":"resolvedAt","type":"uint256","internalType":"uint256"}],"stateMutability":"view"},{"type":"function","name":"fileDispute","inputs":[{"name":"agentId","type":"string","internalType":"string"},{"name":"eventHash","type":"bytes32","internalType":"bytes32"},{"name":"reason","type":"string","internalType":"string"}],"outputs":[{"name":"","type":"uint256","internalType":"uint256"}],"stateMutability":"nonpayable"},{"type":"function","name":"getDisputeCount","inputs":[],"outputs":[{"name":"","type":"uint256","internalType":"uint256"}],"stateMutability":"view"},{"type":"function","name":"owner","inputs":[],"outputs":[{"name":"","type":"address","internalType":"address"}],"stateMutability":"view"},{"type":"function","name":"resolveDispute","inputs":[{"name":"disputeId","type":"uint256","internalType":"uint256"},{"name":"accepted","type":"bool","internalType":"bool"}],"outputs":[],"stateMutability":"nonpayable"},{"type":"event","name":"DisputeFiled","inputs":[{"name":"disputeId","type":"uint256","indexed":true,"internalType":"uint256"},{"name":"agentId","type":"string","indexed":true,"internalType":"string"},{"name":"eventHash","type":"bytes32","indexed":true,"internalType":"bytes32"},{"name":"reporter","type":"address","indexed":false,"internalType":"address"}],"anonymous":false},{"type":"event","name":"DisputeResolved","inputs":[{"name":"disputeId","type":"uint256","indexed":true,"internalType":"uint256"},{"name":"status","type":"uint8","indexed":false,"internalType":"enum DisputeResolver.DisputeStatus"}],"anonymous":false}],"bytecode":{"object":"0x608080604052346026575f80546001600160a01b031916331790556108cb908161002b8239f35b5f80fdfe6080806040526004361015610012575f80fd5b5f3560e01c90816310987b77146106945750806334b25ee21461053b578063564a565d146104865780638da5cb5b1461045f5763a52f2f0a14610053575f80fd5b3461045b57606036600319011261045b5760043567ffffffffffffffff811161045b57610084903690600401610809565b60243560443567ffffffffffffffff811161045b576100a7903690600401610809565b6040519160e0830183811067ffffffffffffffff82111761036d576040523383526100ed6100d636878961084f565b91602085019283526040850193868552369161084f565b6060840190815260808401905f825260a085019342855260c08601935f85526001546801000000000000000081101561036d5780600161013092016001556106ae565b979097610448575187546001600160a01b0319166001600160a01b0391909116178755518051600188019167ffffffffffffffff821161036d57819061017684546106de565b601f81116103ef575b50602090601f831160011461038c575f92610381575b50508160011b915f199060031b1c19161790555b516002860155518051600386019167ffffffffffffffff821161036d5781906101d284546106de565b601f8111610314575b50602090601f83116001146102b1575f926102a6575b50508160011b915f199060031b1c19161790555b519160038310156102925761021f60069360048601610837565b516005840155519101556001545f1981019290831161027e5760209381604051928392833781015f8152039020827f0d9ada7a806054eedfe6029e124ed162d0f1d3afb208df716a1561c59608e5c385604051338152a4604051908152f35b634e487b7160e01b5f52601160045260245ffd5b634e487b7160e01b5f52602160045260245ffd5b015190505f806101f1565b5f8581528281209350601f198516905b8181106102fc57509084600195949392106102e4575b505050811b019055610205565b01515f1960f88460031b161c191690555f80806102d7565b929360206001819287860151815501950193016102c1565b828111156101db57909150835f5260205f20601f840160051c9060208510610365575b849392601f0160051c82900391015f5b8281106103555750506101db565b5f81830155859450600101610347565b5f9150610337565b634e487b7160e01b5f52604160045260245ffd5b015190505f80610195565b5f8581528281209350601f198516905b8181106103d757509084600195949392106103bf575b505050811b0190556101a9565b01515f1960f88460031b161c191690555f80806103b2565b9293602060018192878601518155019501930161039c565b8281111561017f57909150835f5260205f20601f840160051c9060208510610440575b849392601f0160051c82900391015f5b82811061043057505061017f565b5f81830155859450600101610422565b5f9150610412565b634e487b7160e01b5f525f60045260245ffd5b5f80fd5b3461045b575f36600319011261045b575f546040516001600160a01b039091168152602090f35b3461045b57602036600319011261045b5760043560015481101561045b576104ad906106ae565b5080546001600160a01b03166104c560018301610738565b916002810154906104d860038201610738565b9061052d61052260ff60048401541694600660058501549401549461050f604051998a998a5260e060208b015260e08a01906107d8565b91604089015287820360608901526107d8565b9360808601906107fc565b60a084015260c08301520390f35b3461045b57604036600319011261045b57600435602435801515810361045b575f546001600160a01b03163303610662576001548210156106285761057f826106ae565b50600481019160ff8354166003811015610292576105f2577f2ffcfee146bc0d5ff304c6b65111a0d485af9456dc64eee7d66ebdcc90b223ea9260209260ff92156105e8576105d060015b83610837565b60064291015554166105e560405180926107fc565ba2005b6105d060026105ca565b60405162461bcd60e51b815260206004820152600e60248201526d185b1c9958591e4818db1bdcd95960921b6044820152606490fd5b60405162461bcd60e51b81526020600482015260126024820152711a5b9d985b1a5908191a5cdc1d5d19481a5960721b6044820152606490fd5b60405162461bcd60e51b815260206004820152600a60248201526927b7363c9037bbb732b960b11b6044820152606490fd5b3461045b575f36600319011261045b576020906001548152f35b6001548110156106ca5760015f52600760205f20910201905f90565b634e487b7160e01b5f52603260045260245ffd5b90600182811c9216801561070c575b60208310146106f857565b634e487b7160e01b5f52602260045260245ffd5b91607f16916106ed565b90601f8019910116810190811067ffffffffffffffff82111761036d57604052565b9060405191825f82549261074b846106de565b80845293600181169081156107b65750600114610772575b5061077092500383610716565b565b90505f9291925260205f20905f915b81831061079a575050906020610770928201015f610763565b6020919350806001915483858901015201910190918492610781565b90506020925061077094915060ff191682840152151560051b8201015f610763565b805180835260209291819084018484015e5f828201840152601f01601f1916010190565b9060038210156102925752565b9181601f8401121561045b5782359167ffffffffffffffff831161045b576020838186019501011161045b57565b9060038110156102925760ff80198354169116179055565b92919267ffffffffffffffff821161036d5760405191610879601f8201601f191660200184610716565b82948184528183011161045b578281602093845f96013701015256fea2646970667358221220d7b24e38467c99b86794753a9d169eaaca1c72a24bf68d06d575bb377fc4d82564736f6c63430008210033","linkReferences":{}},"methodIdentifiers":{"disputes(uint256)":"564a565d","fileDispute(string,bytes32,string)":"a52f2f0a","getDisputeCount()":"10987b77","owner()":"8da5cb5b","resolveDispute(uint256,bool)":"34b25ee2"},"id":3}