{"abi":[{"type":"constructor","inputs":[],"stateMutability":"nonpayable"},{"type":"function","name":"activities","inputs":[{"name":"","type":"uint256","internalType":"uint256"}],"outputs":[{"name":"agentId","type":"string","internalType":"string"},{"name":"eventHash","type":"bytes32","internalType":"bytes32"},{"name":"timestamp","type":"uint256","internalType":"uint256"},{"name":"submitter","type":"address","internalType":"address"}],"stateMutability":"view"},{"type":"function","name":"getActivityCount","inputs":[],"outputs":[{"name":"","type":"uint256","internalType":"uint256"}],"stateMutability":"view"},{"type":"function","name":"knownEventHash","inputs":[{"name":"","type":"bytes32","internalType":"bytes32"}],"outputs":[{"name":"","type":"bool","internalType":"bool"}],"stateMutability":"view"},{"type":"function","name":"logActivity","inputs":[{"name":"agentId","type":"string","internalType":"string"},{"name":"eventHash","type":"bytes32","internalType":"bytes32"}],"outputs":[],"stateMutability":"nonpayable"},{"type":"function","name":"owner","inputs":[],"outputs":[{"name":"","type":"address","internalType":"address"}],"stateMutability":"view"},{"type":"event","name":"ActivityLogged","inputs":[{"name":"agentId","type":"string","indexed":true,"internalType":"string"},{"name":"eventHash","type":"bytes32","indexed":true,"internalType":"bytes32"},{"name":"submitter","type":"address","indexed":true,"internalType":"address"}],"anonymous":false}],"bytecode":{"object":"0x60808060405234602757600280546001600160a01b031916331790556105cb908161002c8239f35b5f80fdfe60806040526004361015610011575f80fd5b5f3560e01c80630d1657e8146103e357806322ce30bf146103c75780633e389084146100ab5780638da5cb5b146100835763f5c8e8e914610050575f80fd5b3461007f57602036600319011261007f576004355f526001602052602060ff60405f2054166040519015158152f35b5f80fd5b3461007f575f36600319011261007f576002546040516001600160a01b039091168152602090f35b3461007f57604036600319011261007f5760043567ffffffffffffffff811161007f573660238201121561007f57806004013567ffffffffffffffff811161007f576024820191602482369201011161007f5760025460243591906001600160a01b03163303610395578115610361576040516080810181811067ffffffffffffffff82111761033a57604081905261014e601f8401601f191660200182610573565b828152828560208301375f60208483010152815260208101908382526040810142815260608201923384525f546801000000000000000081101561033a5780600161019b92015f556104ef565b93909361034e575180519067ffffffffffffffff821161033a576101bf855461053b565b601f81116102e9575b50602090601f831160011461028257600395949392915f9183610277575b50508160011b915f1990871b1c19161783555b516001830155516002820155019060018060a01b039051166bffffffffffffffffffffffff60a01b825416179055815f52600160205260405f20600160ff19825416179055806040519384378201915f83528033930390207f2e6c89bd3843037b0e4304deb9111bda66a212dbd3235475001c73b48ebebd245f80a4005b015190508a806101e6565b90601f19831691865f52815f20925f5b8181106102d1575091600193918560039998979694106102ba575b505050811b0183556101f9565b01515f1983891b60f8161c191690558a80806102ad565b92936020600181928786015181550195019301610292565b828111156101c857855f5260205f20601f840160051c9060208510610332575b81601f9101920160051c03905f5b8281106103255750506101c8565b5f82820155600101610317565b5f9150610309565b634e487b7160e01b5f52604160045260245ffd5b634e487b7160e01b5f525f60045260245ffd5b60405162461bcd60e51b815260206004820152600c60248201526b0d2dcecc2d8d2c840d0c2e6d60a31b6044820152606490fd5b60405162461bcd60e51b815260206004820152600a60248201526927b7363c9037bbb732b960b11b6044820152606490fd5b3461007f575f36600319011261007f5760205f54604051908152f35b3461007f57602036600319011261007f576004355f5481101561007f57610409906104ef565b50604051905f91815461041b8161053b565b8083526020830191600181169081156104d4575060011461049b575b506104478260a094950383610573565b6001840154936002810154906003600180871b039101541690604051958694608086525180948160808801528787015e5f858501870152602085015260408401526060830152601f01601f19168101030190f35b9350825f5260205f205f905b8582106104be575082016020019350610447610437565b60018160209254838588010152019101906104a7565b60ff1916835250151560051b82016020019350610447610437565b5f54811015610527575f80805260029190911b7f290decd9548b62a8d60345a988386fc84ba6bc95484008f6362f93160ef3e5630191565b634e487b7160e01b5f52603260045260245ffd5b90600182811c92168015610569575b602083101461055557565b634e487b7160e01b5f52602260045260245ffd5b91607f169161054a565b90601f8019910116810190811067ffffffffffffffff82111761033a5760405256fea26469706673582212201398c78494be2d0a503607416df9fcf5cdcba8e8a2bcf78c3a6f593f1574143e64736f6c63430008210033","linkReferences":{}},"methodIdentifiers":{"activities(uint256)":"0d1657e8","getActivityCount()":"22ce30bf","knownEventHash(bytes32)":"f5c8e8e9","logActivity(string,bytes32)":"3e389084","owner()":"8da5cb5b"},"id":0}