{"abi":[{"type":"constructor","inputs":[],"stateMutability":"nonpayable"},{"type":"function","name":"activities","inputs":[{"name":"","type":"uint256","internalType":"uint256"}],"outputs":[{"name":"agentId","type":"string","internalType":"string"},{"name":"eventHash","type":"bytes32","internalType":"bytes32"},{"name":"timestamp","type":"uint256","internalType":"uint256"},{"name":"submitter","type":"address","internalType":"address"}],"stateMutability":"view"},{"type":"function","name":"getActivityCount","inputs":[],"outputs":[{"name":"","type":"uint256","internalType":"uint256"}],"stateMutability":"view"},{"type":"function","name":"knownEventHash","inputs":[{"name":"","type":"bytes32","internalType":"bytes32"}],"outputs":[{"name":"","type":"bool","internalType":"bool"}],"stateMutability":"view"},{"type":"function","name":"logActivity","inputs":[{"name":"agentId","type":"string","internalType":"string"},{"name":"eventHash","type":"bytes32","internalType":"bytes32"}],"outputs":[],"stateMutability":"nonpayable"},{"type":"function","name":"owner","inputs":[],"outputs":[{"name":"","type":"address","internalType":"address"}],"stateMutability":"view"},{"type":"event","name":"ActivityLogged","inputs":[{"name":"agentId","type":"string","indexed":true,"internalType":"string"},{"name":"eventHash","type":"bytes32","indexed":true,"internalType":"bytes32"},{"name":"submitter","type":"address","indexed":true,"internalType":"address"}],"anonymous":false}],"bytecode":{"object":"0x6080604052348015600e575f5ffd5b503360025f6101000a81548173ffffffffffffffffffffffffffffffffffffffff021916908373ffffffffffffffffffffffffffffffffffffffff160217905550610c0f8061005c5f395ff3fe608060405234801561000f575f5ffd5b5060043610610055575f3560e01c80630d1657e81461005957806322ce30bf1461008c5780633e389084146100aa5780638da5cb5b146100c6578063f5c8e8e9146100e4575b5f5ffd5b610073600480360381019061006e91906104e8565b610114565b60405161008394939291906105e9565b60405180910390f35b6100946101f3565b6040516100a19190610633565b60405180910390f35b6100c460048036038101906100bf91906106d7565b6101fe565b005b6100ce61046b565b6040516100db9190610734565b60405180910390f35b6100fe60048036038101906100f9919061074d565b610490565b60405161010b9190610792565b60405180910390f35b5f8181548110610122575f80fd5b905f5260205f2090600402015f91509050805f018054610141906107d8565b80601f016020809104026020016040519081016040528092919081815260200182805461016d906107d8565b80156101b85780601f1061018f576101008083540402835291602001916101b8565b820191905f5260205f20905b81548152906001019060200180831161019b57829003601f168201915b505050505090806001015490806002015490806003015f9054906101000a900473ffffffffffffffffffffffffffffffffffffffff16905084565b5f5f80549050905090565b60025f9054906101000a900473ffffffffffffffffffffffffffffffffffffffff1673ffffffffffffffffffffffffffffffffffffffff163373ffffffffffffffffffffffffffffffffffffffff161461028d576040517f08c379a000000000000000000000000000000000000000000000000000000000815260040161028490610852565b60405180910390fd5b5f5f1b81036102d1576040517f08c379a00000000000000000000000000000000000000000000000000000000081526004016102c8906108ba565b60405180910390fd5b5f604051806080016040528085858080601f0160208091040260200160405190810160405280939291908181526020018383808284375f81840152601f19601f8201169050808301925050505050505081526020018381526020014281526020013373ffffffffffffffffffffffffffffffffffffffff16815250908060018154018082558091505060019003905f5260205f2090600402015f909190919091505f820151815f0190816103859190610ab6565b5060208201518160010155604082015181600201556060820151816003015f6101000a81548173ffffffffffffffffffffffffffffffffffffffff021916908373ffffffffffffffffffffffffffffffffffffffff16021790555050506001805f8381526020019081526020015f205f6101000a81548160ff0219169083151502179055503373ffffffffffffffffffffffffffffffffffffffff16818484604051610432929190610bc1565b60405180910390207f2e6c89bd3843037b0e4304deb9111bda66a212dbd3235475001c73b48ebebd2460405160405180910390a4505050565b60025f9054906101000a900473ffffffffffffffffffffffffffffffffffffffff1681565b6001602052805f5260405f205f915054906101000a900460ff1681565b5f5ffd5b5f5ffd5b5f819050919050565b6104c7816104b5565b81146104d1575f5ffd5b50565b5f813590506104e2816104be565b92915050565b5f602082840312156104fd576104fc6104ad565b5b5f61050a848285016104d4565b91505092915050565b5f81519050919050565b5f82825260208201905092915050565b8281835e5f83830152505050565b5f601f19601f8301169050919050565b5f61055582610513565b61055f818561051d565b935061056f81856020860161052d565b6105788161053b565b840191505092915050565b5f819050919050565b61059581610583565b82525050565b6105a4816104b5565b82525050565b5f73ffffffffffffffffffffffffffffffffffffffff82169050919050565b5f6105d3826105aa565b9050919050565b6105e3816105c9565b82525050565b5f6080820190508181035f830152610601818761054b565b9050610610602083018661058c565b61061d604083018561059b565b61062a60608301846105da565b95945050505050565b5f6020820190506106465f83018461059b565b92915050565b5f5ffd5b5f5ffd5b5f5ffd5b5f5f83601f84011261066d5761066c61064c565b5b8235905067ffffffffffffffff81111561068a57610689610650565b5b6020830191508360018202830111156106a6576106a5610654565b5b9250929050565b6106b681610583565b81146106c0575f5ffd5b50565b5f813590506106d1816106ad565b92915050565b5f5f5f604084860312156106ee576106ed6104ad565b5b5f84013567ffffffffffffffff81111561070b5761070a6104b1565b5b61071786828701610658565b9350935050602061072a868287016106c3565b9150509250925092565b5f6020820190506107475f8301846105da565b92915050565b5f60208284031215610762576107616104ad565b5b5f61076f848285016106c3565b91505092915050565b5f8115159050919050565b61078c81610778565b82525050565b5f6020820190506107a55f830184610783565b92915050565b7f4e487b71000000000000000000000000000000000000000000000000000000005f52602260045260245ffd5b5f60028204905060018216806107ef57607f821691505b602082108103610802576108016107ab565b5b50919050565b7f4f6e6c79206f776e6572000000000000000000000000000000000000000000005f82015250565b5f61083c600a8361051d565b915061084782610808565b602082019050919050565b5f6020820190508181035f83015261086981610830565b9050919050565b7f696e76616c6964206861736800000000000000000000000000000000000000005f82015250565b5f6108a4600c8361051d565b91506108af82610870565b602082019050919050565b5f6020820190508181035f8301526108d181610898565b9050919050565b7f4e487b71000000000000000000000000000000000000000000000000000000005f52604160045260245ffd5b5f819050815f5260205f209050919050565b5f6020601f8301049050919050565b5f82821b905092915050565b5f600883026109617fffffffffffffffffffffffffffffffffffffffffffffffffffffffffffffffff82610926565b61096b8683610926565b95508019841693508086168417925050509392505050565b5f819050919050565b5f6109a66109a161099c846104b5565b610983565b6104b5565b9050919050565b5f819050919050565b6109bf8361098c565b6109d36109cb826109ad565b848454610932565b825550505050565b5f5f905090565b6109ea6109db565b6109f58184846109b6565b505050565b5f5b82811015610a1b57610a105f8284016109e2565b6001810190506109fc565b505050565b601f821115610a6e5782821115610a6d57610a3a81610905565b610a4383610917565b610a4c85610917565b6020861015610a59575f90505b808301610a68828403826109fa565b505050505b5b505050565b5f82821c905092915050565b5f610a8e5f1984600802610a73565b1980831691505092915050565b5f610aa68383610a7f565b9150826002028217905092915050565b610abf82610513565b67ffffffffffffffff811115610ad857610ad76108d8565b5b610ae282546107d8565b610aed828285610a20565b5f60209050601f831160018114610b1e575f8415610b0c578287015190505b610b168582610a9b565b865550610b7d565b601f198416610b2c86610905565b5f5b82811015610b5357848901518255600182019150602085019450602081019050610b2e565b86831015610b705784890151610b6c601f891682610a7f565b8355505b6001600288020188555050505b505050505050565b5f81905092915050565b828183375f83830152505050565b5f610ba88385610b85565b9350610bb5838584610b8f565b82840190509392505050565b5f610bcd828486610b9d565b9150819050939250505056fea26469706673582212200f1d7779d98063e06c8fa272862737aa11359455b77a892433d62f58bb29cf4464736f6c63430008210033","linkReferences":{}},"methodIdentifiers":{"activities(uint256)":"0d1657e8","getActivityCount()":"22ce30bf","knownEventHash(bytes32)":"f5c8e8e9","logActivity(string,bytes32)":"3e389084","owner()":"8da5cb5b"},"id":0}