{"abi":[{"type":"constructor","inputs":[{"name":"_minConfidenceBps","type":"uint256","internalType":"uint256"}],"stateMutability":"nonpayable"},{"type":"function","name":"getVerificationCount","inputs":[],"outputs":[{"name":"","type":"uint256","internalType":"uint256"}],"stateMutability":"view"},{"type":"function","name":"isVerified","inputs":[{"name":"_tradeHash","type":"bytes32","internalType":"bytes32"}],"outputs":[{"name":"","type":"bool","internalType":"bool"}],"stateMutability":"view"},{"type":"function","name":"minConfidenceBps","inputs":[],"outputs":[{"name":"","type":"uint256","internalType":"uint256"}],"stateMutability":"view"},{"type":"function","name":"owner","inputs":[],"outputs":[{"name":"","type":"address","internalType":"address"}],"stateMutability":"view"},{"type":"function","name":"setMinConfidence","inputs":[{"name":"_newBps","type":"uint256","internalType":"uint256"}],"outputs":[],"stateMutability":"nonpayable"},{"type":"function","name":"verifications","inputs":[{"name":"","type":"uint256","internalType":"uint256"}],"outputs":[{"name":"planner","type":"address","internalType":"address"},{"name":"verifier","type":"address","internalType":"address"},{"name":"tradeHash","type":"bytes32","internalType":"bytes32"},{"name":"approved","type":"bool","internalType":"bool"},{"name":"timestamp","type":"uint256","internalType":"uint256"},{"name":"reason","type":"string","internalType":"string"}],"stateMutability":"view"},{"type":"function","name":"verifiedTrades","inputs":[{"name":"","type":"bytes32","internalType":"bytes32"}],"outputs":[{"name":"","type":"bool","internalType":"bool"}],"stateMutability":"view"},{"type":"function","name":"verifyTrade","inputs":[{"name":"_tradeHash","type":"bytes32","internalType":"bytes32"},{"name":"_planner","type":"address","internalType":"address"},{"name":"_verifier","type":"address","internalType":"address"},{"name":"_approved","type":"bool","internalType":"bool"},{"name":"_reason","type":"string","internalType":"string"}],"outputs":[],"stateMutability":"nonpayable"},{"type":"event","name":"TradeVerified","inputs":[{"name":"tradeHash","type":"bytes32","indexed":true,"internalType":"bytes32"},{"name":"approved","type":"bool","indexed":false,"internalType":"bool"},{"name":"reason","type":"string","indexed":false,"internalType":"string"}],"anonymous":false}],"bytecode":{"object":"0x6080604052348015600e575f5ffd5b50604051610f28380380610f288339818101604052810190602e919060ac565b3360025f6101000a81548173ffffffffffffffffffffffffffffffffffffffff021916908373ffffffffffffffffffffffffffffffffffffffff160217905550806003819055505060d2565b5f5ffd5b5f819050919050565b608e81607e565b81146097575f5ffd5b50565b5f8151905060a6816087565b92915050565b5f6020828403121560be5760bd607a565b5b5f60c984828501609a565b91505092915050565b610e49806100df5f395ff3fe608060405234801561000f575f5ffd5b5060043610610086575f3560e01c8063b90b0a1011610059578063b90b0a10146100fe578063c181b27314610133578063ce3604e914610163578063fcdd4cf21461018157610086565b80631f05b3741461008a5780635764390c146100a857806376c5691f146100c45780638da5cb5b146100e0575b5f5ffd5b6100926101b1565b60405161009f9190610640565b60405180910390f35b6100c260048036038101906100bd9190610694565b6101bc565b005b6100de60048036038101906100d991906108bd565b610255565b005b6100e86104a4565b6040516100f5919061095f565b60405180910390f35b61011860048036038101906101139190610694565b6104c9565b60405161012a969594939291906109f6565b60405180910390f35b61014d60048036038101906101489190610a5c565b6105df565b60405161015a9190610a87565b60405180910390f35b61016b610605565b6040516101789190610640565b60405180910390f35b61019b60048036038101906101969190610a5c565b61060b565b6040516101a89190610a87565b60405180910390f35b5f5f80549050905090565b60025f9054906101000a900473ffffffffffffffffffffffffffffffffffffffff1673ffffffffffffffffffffffffffffffffffffffff163373ffffffffffffffffffffffffffffffffffffffff161461024b576040517f08c379a000000000000000000000000000000000000000000000000000000000815260040161024290610aea565b60405180910390fd5b8060038190555050565b60025f9054906101000a900473ffffffffffffffffffffffffffffffffffffffff1673ffffffffffffffffffffffffffffffffffffffff163373ffffffffffffffffffffffffffffffffffffffff16146102e4576040517f08c379a00000000000000000000000000000000000000000000000000000000081526004016102db90610aea565b60405180910390fd5b5f6040518060c001604052808673ffffffffffffffffffffffffffffffffffffffff1681526020018573ffffffffffffffffffffffffffffffffffffffff168152602001878152602001841515815260200142815260200183815250908060018154018082558091505060019003905f5260205f2090600602015f909190919091505f820151815f015f6101000a81548173ffffffffffffffffffffffffffffffffffffffff021916908373ffffffffffffffffffffffffffffffffffffffff1602179055506020820151816001015f6101000a81548173ffffffffffffffffffffffffffffffffffffffff021916908373ffffffffffffffffffffffffffffffffffffffff160217905550604082015181600201556060820151816003015f6101000a81548160ff0219169083151502179055506080820151816004015560a08201518160050190816104389190610d16565b5050508160015f8781526020019081526020015f205f6101000a81548160ff021916908315150217905550847f0744270b6f0db364d1383ae78e75d2e66c1d5cd5fa743f91940b756720ee9c3c8383604051610495929190610de5565b60405180910390a25050505050565b60025f9054906101000a900473ffffffffffffffffffffffffffffffffffffffff1681565b5f81815481106104d7575f80fd5b905f5260205f2090600602015f91509050805f015f9054906101000a900473ffffffffffffffffffffffffffffffffffffffff1690806001015f9054906101000a900473ffffffffffffffffffffffffffffffffffffffff1690806002015490806003015f9054906101000a900460ff169080600401549080600501805461055e90610b35565b80601f016020809104026020016040519081016040528092919081815260200182805461058a90610b35565b80156105d55780601f106105ac576101008083540402835291602001916105d5565b820191905f5260205f20905b8154815290600101906020018083116105b857829003601f168201915b5050505050905086565b5f60015f8381526020019081526020015f205f9054906101000a900460ff169050919050565b60035481565b6001602052805f5260405f205f915054906101000a900460ff1681565b5f819050919050565b61063a81610628565b82525050565b5f6020820190506106535f830184610631565b92915050565b5f604051905090565b5f5ffd5b5f5ffd5b61067381610628565b811461067d575f5ffd5b50565b5f8135905061068e8161066a565b92915050565b5f602082840312156106a9576106a8610662565b5b5f6106b684828501610680565b91505092915050565b5f819050919050565b6106d1816106bf565b81146106db575f5ffd5b50565b5f813590506106ec816106c8565b92915050565b5f73ffffffffffffffffffffffffffffffffffffffff82169050919050565b5f61071b826106f2565b9050919050565b61072b81610711565b8114610735575f5ffd5b50565b5f8135905061074681610722565b92915050565b5f8115159050919050565b6107608161074c565b811461076a575f5ffd5b50565b5f8135905061077b81610757565b92915050565b5f5ffd5b5f5ffd5b5f601f19601f8301169050919050565b7f4e487b71000000000000000000000000000000000000000000000000000000005f52604160045260245ffd5b6107cf82610789565b810181811067ffffffffffffffff821117156107ee576107ed610799565b5b80604052505050565b5f610800610659565b905061080c82826107c6565b919050565b5f67ffffffffffffffff82111561082b5761082a610799565b5b61083482610789565b9050602081019050919050565b828183375f83830152505050565b5f61086161085c84610811565b6107f7565b90508281526020810184848401111561087d5761087c610785565b5b610888848285610841565b509392505050565b5f82601f8301126108a4576108a3610781565b5b81356108b484826020860161084f565b91505092915050565b5f5f5f5f5f60a086880312156108d6576108d5610662565b5b5f6108e3888289016106de565b95505060206108f488828901610738565b945050604061090588828901610738565b93505060606109168882890161076d565b925050608086013567ffffffffffffffff81111561093757610936610666565b5b61094388828901610890565b9150509295509295909350565b61095981610711565b82525050565b5f6020820190506109725f830184610950565b92915050565b610981816106bf565b82525050565b6109908161074c565b82525050565b5f81519050919050565b5f82825260208201905092915050565b8281835e5f83830152505050565b5f6109c882610996565b6109d281856109a0565b93506109e28185602086016109b0565b6109eb81610789565b840191505092915050565b5f60c082019050610a095f830189610950565b610a166020830188610950565b610a236040830187610978565b610a306060830186610987565b610a3d6080830185610631565b81810360a0830152610a4f81846109be565b9050979650505050505050565b5f60208284031215610a7157610a70610662565b5b5f610a7e848285016106de565b91505092915050565b5f602082019050610a9a5f830184610987565b92915050565b7f4f6e6c79206f776e6572000000000000000000000000000000000000000000005f82015250565b5f610ad4600a836109a0565b9150610adf82610aa0565b602082019050919050565b5f6020820190508181035f830152610b0181610ac8565b9050919050565b7f4e487b71000000000000000000000000000000000000000000000000000000005f52602260045260245ffd5b5f6002820490506001821680610b4c57607f821691505b602082108103610b5f57610b5e610b08565b5b50919050565b5f819050815f5260205f209050919050565b5f6020601f8301049050919050565b5f82821b905092915050565b5f60088302610bc17fffffffffffffffffffffffffffffffffffffffffffffffffffffffffffffffff82610b86565b610bcb8683610b86565b95508019841693508086168417925050509392505050565b5f819050919050565b5f610c06610c01610bfc84610628565b610be3565b610628565b9050919050565b5f819050919050565b610c1f83610bec565b610c33610c2b82610c0d565b848454610b92565b825550505050565b5f5f905090565b610c4a610c3b565b610c55818484610c16565b505050565b5f5b82811015610c7b57610c705f828401610c42565b600181019050610c5c565b505050565b601f821115610cce5782821115610ccd57610c9a81610b65565b610ca383610b77565b610cac85610b77565b6020861015610cb9575f90505b808301610cc882840382610c5a565b505050505b5b505050565b5f82821c905092915050565b5f610cee5f1984600802610cd3565b1980831691505092915050565b5f610d068383610cdf565b9150826002028217905092915050565b610d1f82610996565b67ffffffffffffffff811115610d3857610d37610799565b5b610d428254610b35565b610d4d828285610c80565b5f60209050601f831160018114610d7e575f8415610d6c578287015190505b610d768582610cfb565b865550610ddd565b601f198416610d8c86610b65565b5f5b82811015610db357848901518255600182019150602085019450602081019050610d8e565b86831015610dd05784890151610dcc601f891682610cdf565b8355505b6001600288020188555050505b505050505050565b5f604082019050610df85f830185610987565b8181036020830152610e0a81846109be565b9050939250505056fea2646970667358221220b266d508ebe4bba4ce0b3f6bfe2f625acb93ccebdd5caf9196641d02ef573cbb64736f6c63430008210033","linkReferences":{}},"methodIdentifiers":{"getVerificationCount()":"1f05b374","isVerified(bytes32)":"c181b273","minConfidenceBps()":"ce3604e9","owner()":"8da5cb5b","setMinConfidence(uint256)":"5764390c","verifications(uint256)":"b90b0a10","verifiedTrades(bytes32)":"fcdd4cf2","verifyTrade(bytes32,address,address,bool,string)":"76c5691f"},"id":6}