{"abi":[{"type":"constructor","inputs":[{"name":"_minConfidenceBps","type":"uint256","internalType":"uint256"}],"stateMutability":"nonpayable"},{"type":"function","name":"getVerificationCount","inputs":[],"outputs":[{"name":"","type":"uint256","internalType":"uint256"}],"stateMutability":"view"},{"type":"function","name":"isVerified","inputs":[{"name":"_tradeHash","type":"bytes32","internalType":"bytes32"}],"outputs":[{"name":"","type":"bool","internalType":"bool"}],"stateMutability":"view"},{"type":"function","name":"minConfidenceBps","inputs":[],"outputs":[{"name":"","type":"uint256","internalType":"uint256"}],"stateMutability":"view"},{"type":"function","name":"owner","inputs":[],"outputs":[{"name":"","type":"address","internalType":"address"}],"stateMutability":"view"},{"type":"function","name":"setMinConfidence","inputs":[{"name":"_newBps","type":"uint256","internalType":"uint256"}],"outputs":[],"stateMutability":"nonpayable"},{"type":"function","name":"verifications","inputs":[{"name":"","type":"uint256","internalType":"uint256"}],"outputs":[{"name":"planner","type":"address","internalType":"address"},{"name":"verifier","type":"address","internalType":"address"},{"name":"tradeHash","type":"bytes32","internalType":"bytes32"},{"name":"approved","type":"bool","internalType":"bool"},{"name":"timestamp","type":"uint256","internalType":"uint256"},{"name":"reason","type":"string","internalType":"string"}],"stateMutability":"view"},{"type":"function","name":"verifiedTrades","inputs":[{"name":"","type":"bytes32","internalType":"bytes32"}],"outputs":[{"name":"","type":"bool","internalType":"bool"}],"stateMutability":"view"},{"type":"function","name":"verifyTrade","inputs":[{"name":"_tradeHash","type":"bytes32","internalType":"bytes32"},{"name":"_planner","type":"address","internalType":"address"},{"name":"_verifier","type":"address","internalType":"address"},{"name":"_approved","type":"bool","internalType":"bool"},{"name":"_reason","type":"string","internalType":"string"}],"outputs":[],"stateMutability":"nonpayable"},{"type":"event","name":"TradeVerified","inputs":[{"name":"tradeHash","type":"bytes32","indexed":true,"internalType":"bytes32"},{"name":"approved","type":"bool","indexed":false,"internalType":"bool"},{"name":"reason","type":"string","indexed":false,"internalType":"string"}],"anonymous":false}],"bytecode":{"object":"0x608034606057601f61076938819003918201601f19168301916001600160401b0383118484101760645780849260209460405283398101031260605751600280546001600160a01b031916331790556003556040516106f090816100798239f35b5f80fd5b634e487b7160e01b5f52604160045260245ffdfe6080806040526004361015610012575f80fd5b5f3560e01c9081631f05b3741461059e575080635764390c1461057057806376c5691f146102155780638da5cb5b146101ed578063b90b0a10146100c4578063c181b27314610074578063ce3604e9146100a75763fcdd4cf214610074575f80fd5b346100a35760203660031901126100a3576004355f526001602052602060ff60405f2054166040519015158152f35b5f80fd5b346100a3575f3660031901126100a3576020600354604051908152f35b346100a35760203660031901126100a3576004355f548110156100a3576100ea906105d9565b5080546001820154600283015460038401546004850154604051600590960180545f976001600160a01b03968716979096169594929360ff16929161012e82610625565b80875291600181169081156101c6575060011461018c575b50506101598461018896979803856105b7565b60405196879687526020870152604086015215156060850152608084015260c060a084015260c083019061065d565b0390f35b9097505f5260205f205f905b8882106101b057508401602001965061015984610146565b6001816020925483858a01015201910190610198565b60ff191660208089019190915292151560051b870190920198506101599150859050610146565b346100a3575f3660031901126100a3576002546040516001600160a01b039091168152602090f35b346100a35760a03660031901126100a3576024356001600160a01b03811690600435908290036100a3576044356001600160a01b038116908190036100a357606435801515908181036100a3576084359267ffffffffffffffff84116100a357366023850112156100a357836004013567ffffffffffffffff811161054957604051946102ac601f8301601f1916602001876105b7565b81865236602483830101116100a357815f9260246020930183890137860101526102e160018060a01b03600254163314610681565b6040519560c0870187811067ffffffffffffffff82111761054957604052865260208601908152604086018581526060870196848852608081019042825260a0810198878a525f54680100000000000000008110156105495780600161034992015f556105d9565b94909461055d57915184546001600160a01b039182166001600160a01b0319918216178655955160018601805491909216961695909517909455516002830155915160038201805460ff191691151560ff1691909117905560059151600482015501945194855167ffffffffffffffff8111610549576103c98254610625565b601f81116104f8575b506020601f821160011461046f5790806104439493927f0744270b6f0db364d1383ae78e75d2e66c1d5cd5fa743f91940b756720ee9c3c98995f92610464575b50508160011b915f199060031b1c19161790555b855f52600160205260405f209060ff801983541691151516179055565b61045f604051928392835260406020840152604083019061065d565b0390a2005b015190508980610412565b601f19821697835f52815f20985f5b8181106104e057509860019284926104439796957f0744270b6f0db364d1383ae78e75d2e66c1d5cd5fa743f91940b756720ee9c3c9b9c106104c8575b505050811b019055610426565b01515f1960f88460031b161c191690558980806104bb565b838301518b556001909a01996020938401930161047e565b818111156103d257825f5260205f20601f830160051c9060208410610541575b81601f9101920160051c03905f5b8281106105345750506103d2565b5f82820155600101610526565b5f9150610518565b634e487b7160e01b5f52604160045260245ffd5b634e487b7160e01b5f525f60045260245ffd5b346100a35760203660031901126100a35761059660018060a01b03600254163314610681565b600435600355005b346100a3575f3660031901126100a3576020905f548152f35b90601f8019910116810190811067ffffffffffffffff82111761054957604052565b5f54811015610611575f8080526006919091027f290decd9548b62a8d60345a988386fc84ba6bc95484008f6362f93160ef3e5630191565b634e487b7160e01b5f52603260045260245ffd5b90600182811c92168015610653575b602083101461063f57565b634e487b7160e01b5f52602260045260245ffd5b91607f1691610634565b805180835260209291819084018484015e5f828201840152601f01601f1916010190565b1561068857565b60405162461bcd60e51b815260206004820152600a60248201526927b7363c9037bbb732b960b11b6044820152606490fdfea26469706673582212200c9867475abbcc4d942ee2f287bb031c15eb348115f32a30b1ac714f9e74558c64736f6c63430008210033","linkReferences":{}},"methodIdentifiers":{"getVerificationCount()":"1f05b374","isVerified(bytes32)":"c181b273","minConfidenceBps()":"ce3604e9","owner()":"8da5cb5b","setMinConfidence(uint256)":"5764390c","verifications(uint256)":"b90b0a10","verifiedTrades(bytes32)":"fcdd4cf2","verifyTrade(bytes32,address,address,bool,string)":"76c5691f"},"id":9}