{"abi":[{"type":"constructor","inputs":[{"name":"_identityRegistry","type":"address","internalType":"address"},{"name":"_billRegistry","type":"address","internalType":"address payable"}],"stateMutability":"nonpayable"},{"type":"receive","stateMutability":"payable"},{"type":"function","name":"agentRewards","inputs":[{"name":"","type":"address","internalType":"address"}],"outputs":[{"name":"","type":"uint256","internalType":"uint256"}],"stateMutability":"view"},{"type":"function","name":"billRegistry","inputs":[],"outputs":[{"name":"","type":"address","internalType":"contract BillRegistry"}],"stateMutability":"view"},{"type":"function","name":"distributeReward","inputs":[{"name":"_agent","type":"address","internalType":"address"},{"name":"_amount","type":"uint256","internalType":"uint256"},{"name":"_reason","type":"string","internalType":"string"}],"outputs":[],"stateMutability":"nonpayable"},{"type":"function","name":"getAgentRewards","inputs":[{"name":"_agent","type":"address","internalType":"address"}],"outputs":[{"name":"","type":"uint256","internalType":"uint256"}],"stateMutability":"view"},{"type":"function","name":"getIncentiveCount","inputs":[],"outputs":[{"name":"","type":"uint256","internalType":"uint256"}],"stateMutability":"view"},{"type":"function","name":"identityRegistry","inputs":[],"outputs":[{"name":"","type":"address","internalType":"contract IdentityRegistry"}],"stateMutability":"view"},{"type":"function","name":"incentives","inputs":[{"name":"","type":"uint256","internalType":"uint256"}],"outputs":[{"name":"agent","type":"address","internalType":"address"},{"name":"rewardAmount","type":"uint256","internalType":"uint256"},{"name":"timestamp","type":"uint256","internalType":"uint256"},{"name":"reason","type":"string","internalType":"string"}],"stateMutability":"view"},{"type":"function","name":"owner","inputs":[],"outputs":[{"name":"","type":"address","internalType":"address"}],"stateMutability":"view"},{"type":"event","name":"RewardDistributed","inputs":[{"name":"agent","type":"address","indexed":true,"internalType":"address"},{"name":"amount","type":"uint256","indexed":false,"internalType":"uint256"},{"name":"reason","type":"string","indexed":false,"internalType":"string"}],"anonymous":false}],"bytecode":{"object":"0x60803460a257601f6109cd38819003918201601f19168301916001600160401b0383118484101760a657808492604094855283398101031260a25780516001600160a01b038116919082900360a257602001516001600160a01b038116919082900360a257600280546001600160a01b03199081163317909155600380548216929092179091556004805490911691909117905560405161091290816100bb8239f35b5f80fd5b634e487b7160e01b5f52604160045260245ffdfe608080604052600436101561001c575b50361561001a575f80fd5b005b5f905f3560e01c9081630843b75714610766575080631168d42a1461074a578063134e18f41461072257806325f18a6d146106ea5780632a7ea9d2146101eb5780638da5cb5b146101c2578063cba2f938146101995763e121c1020361000f5734610196576020366003190112610196576004358154811015610194576100a2906107ee565b509060018060a01b03825416906001830154926003600282015491019160405192818154916100d08361083a565b80875292600181169081156101685750600114610123575b505050906100fc8361011f949303836107b0565b604051948594855260208501526040840152608060608401526080830190610872565b0390f35b81526020812094939250905b80821061014c57509192509082016020016100fc8361011f6100e8565b919293600181602092548385890101520191019093929161012f565b60ff191660208089019190915293151560051b870190930193506100fc925085915061011f90506100e8565b505b80fd5b50346101965780600319360112610196576004546040516001600160a01b039091168152602090f35b50346101965780600319360112610196576002546040516001600160a01b039091168152602090f35b50346104c05760603660031901126104c05761020561079a565b60443560243567ffffffffffffffff82116104c057366023830112156104c0578160040135610233816107d2565b9261024160405194856107b0565b81845236602483830101116104c057815f9260246020930183870137840101526002546001600160a01b031633036106b85760035460405163fb3551ff60e01b81526001600160a01b03948516600482018190529490915f9183916024918391165afa9081156104b5575f91610648575b501561061057825f52600160205260405f208054908282018092116105fc57556040516080810181811067ffffffffffffffff8211176105d5576040528381526020810190828252604081019142835260608201928584525f54680100000000000000008110156105d55780600161032c92015f556107ee565b9290926105e95760039360018060a01b039051166bffffffffffffffffffffffff60a01b84541617835551600183015551600282015501905180519067ffffffffffffffff82116105d5578190610383845461083a565b601f811161057c575b50602090601f8311600114610519575f9261050e575b50508160011b915f199060031b1c19161790555b5f8080808460018060a01b03600454165af13d15610509573d6103d8816107d2565b906103e660405192836107b0565b81525f60203d92013e5b156104c4576004546001600160a01b0316803b156104c0575f809160446040518094819363e52ccf9960e01b83528960048401528760248401525af180156104b55761047d575b50907f49649141d16971a88c3cfdd73fec34babb1cf163cf8b804c8f537a023c6ce506916104776040519283928352604060208401526040830190610872565b0390a280f35b7f49649141d16971a88c3cfdd73fec34babb1cf163cf8b804c8f537a023c6ce506929194505f6104ac916107b0565b5f939091610437565b6040513d5f823e3d90fd5b5f80fd5b60405162461bcd60e51b815260206004820152601f60248201527f5472616e7366657220746f2062696c6c5265676973747279206661696c6564006044820152606490fd5b6103f0565b015190505f806103a2565b5f8581528281209350601f198516905b818110610564575090846001959493921061054c575b505050811b0190556103b6565b01515f1960f88460031b161c191690555f808061053f565b92936020600181928786015181550195019301610529565b8281111561038c57909150835f5260205f20601f840160051c90602085106105cd575b849392601f0160051c82900391015f5b8281106105bd57505061038c565b5f818301558594506001016105af565b5f915061059f565b634e487b7160e01b5f52604160045260245ffd5b634e487b7160e01b5f525f60045260245ffd5b634e487b7160e01b5f52601160045260245ffd5b60405162461bcd60e51b815260206004820152601060248201526f4167656e74206e6f742061637469766560801b6044820152606490fd5b90503d805f833e61065981836107b0565b8101906060818303126104c057805167ffffffffffffffff81116104c05782610683918301610896565b50602081015167ffffffffffffffff81116104c0576040926106a6918301610896565b50015180151581036104c0575f6102b2565b60405162461bcd60e51b815260206004820152600a60248201526927b7363c9037bbb732b960b11b6044820152606490fd5b346104c05760203660031901126104c0576001600160a01b0361070b61079a565b165f526001602052602060405f2054604051908152f35b346104c0575f3660031901126104c0576003546040516001600160a01b039091168152602090f35b346104c0575f3660031901126104c05760205f54604051908152f35b346104c05760203660031901126104c0576020906001600160a01b0361078a61079a565b165f526001825260405f20548152f35b600435906001600160a01b03821682036104c057565b90601f8019910116810190811067ffffffffffffffff8211176105d557604052565b67ffffffffffffffff81116105d557601f01601f191660200190565b5f54811015610826575f80805260029190911b7f290decd9548b62a8d60345a988386fc84ba6bc95484008f6362f93160ef3e5630191565b634e487b7160e01b5f52603260045260245ffd5b90600182811c92168015610868575b602083101461085457565b634e487b7160e01b5f52602260045260245ffd5b91607f1691610849565b805180835260209291819084018484015e5f828201840152601f01601f1916010190565b81601f820112156104c0578051906108ad826107d2565b926108bb60405194856107b0565b828452602083830101116104c057815f9260208093018386015e830101529056fea2646970667358221220899241f93b4853161151a1026685abc2baccaea61f78eb120f54d8ffade9c34e64736f6c63430008210033","linkReferences":{}},"methodIdentifiers":{"agentRewards(address)":"0843b757","billRegistry()":"cba2f938","distributeReward(address,uint256,string)":"2a7ea9d2","getAgentRewards(address)":"25f18a6d","getIncentiveCount()":"1168d42a","identityRegistry()":"134e18f4","incentives(uint256)":"e121c102","owner()":"8da5cb5b"},"id":5}