{"abi":[{"type":"constructor","inputs":[{"name":"_identityRegistry","type":"address","internalType":"address"},{"name":"_billRegistry","type":"address","internalType":"address payable"}],"stateMutability":"nonpayable"},{"type":"receive","stateMutability":"payable"},{"type":"function","name":"agentRewards","inputs":[{"name":"","type":"address","internalType":"address"}],"outputs":[{"name":"","type":"uint256","internalType":"uint256"}],"stateMutability":"view"},{"type":"function","name":"billRegistry","inputs":[],"outputs":[{"name":"","type":"address","internalType":"contract BillRegistry"}],"stateMutability":"view"},{"type":"function","name":"distributeReward","inputs":[{"name":"_agent","type":"address","internalType":"address"},{"name":"_amount","type":"uint256","internalType":"uint256"},{"name":"_reason","type":"string","internalType":"string"}],"outputs":[],"stateMutability":"nonpayable"},{"type":"function","name":"getAgentRewards","inputs":[{"name":"_agent","type":"address","internalType":"address"}],"outputs":[{"name":"","type":"uint256","internalType":"uint256"}],"stateMutability":"view"},{"type":"function","name":"getIncentiveCount","inputs":[],"outputs":[{"name":"","type":"uint256","internalType":"uint256"}],"stateMutability":"view"},{"type":"function","name":"identityRegistry","inputs":[],"outputs":[{"name":"","type":"address","internalType":"contract IdentityRegistry"}],"stateMutability":"view"},{"type":"function","name":"incentives","inputs":[{"name":"","type":"uint256","internalType":"uint256"}],"outputs":[{"name":"agent","type":"address","internalType":"address"},{"name":"rewardAmount","type":"uint256","internalType":"uint256"},{"name":"timestamp","type":"uint256","internalType":"uint256"},{"name":"reason","type":"string","internalType":"string"}],"stateMutability":"view"},{"type":"function","name":"owner","inputs":[],"outputs":[{"name":"","type":"address","internalType":"address"}],"stateMutability":"view"},{"type":"event","name":"RewardDistributed","inputs":[{"name":"agent","type":"address","indexed":true,"internalType":"address"},{"name":"amount","type":"uint256","indexed":false,"internalType":"uint256"},{"name":"reason","type":"string","indexed":false,"internalType":"string"}],"anonymous":false}],"bytecode":{"object":"0x608060405234801561000f575f5ffd5b5060405161149138038061149183398181016040528101906100319190610191565b3360025f6101000a81548173ffffffffffffffffffffffffffffffffffffffff021916908373ffffffffffffffffffffffffffffffffffffffff1602179055508160035f6101000a81548173ffffffffffffffffffffffffffffffffffffffff021916908373ffffffffffffffffffffffffffffffffffffffff1602179055508060045f6101000a81548173ffffffffffffffffffffffffffffffffffffffff021916908373ffffffffffffffffffffffffffffffffffffffff16021790555050506101cf565b5f5ffd5b5f73ffffffffffffffffffffffffffffffffffffffff82169050919050565b5f610125826100fc565b9050919050565b6101358161011b565b811461013f575f5ffd5b50565b5f815190506101508161012c565b92915050565b5f610160826100fc565b9050919050565b61017081610156565b811461017a575f5ffd5b50565b5f8151905061018b81610167565b92915050565b5f5f604083850312156101a7576101a66100f8565b5b5f6101b485828601610142565b92505060206101c58582860161017d565b9150509250929050565b6112b5806101dc5f395ff3fe60806040526004361061007e575f3560e01c80632a7ea9d21161004d5780632a7ea9d2146101555780638da5cb5b1461017d578063cba2f938146101a7578063e121c102146101d157610085565b80630843b757146100895780631168d42a146100c5578063134e18f4146100ef57806325f18a6d1461011957610085565b3661008557005b5f5ffd5b348015610094575f5ffd5b506100af60048036038101906100aa9190610869565b610210565b6040516100bc91906108ac565b60405180910390f35b3480156100d0575f5ffd5b506100d9610225565b6040516100e691906108ac565b60405180910390f35b3480156100fa575f5ffd5b50610103610230565b6040516101109190610920565b60405180910390f35b348015610124575f5ffd5b5061013f600480360381019061013a9190610869565b610255565b60405161014c91906108ac565b60405180910390f35b348015610160575f5ffd5b5061017b60048036038101906101769190610a9f565b61029b565b005b348015610188575f5ffd5b506101916106d5565b60405161019e9190610b1a565b60405180910390f35b3480156101b2575f5ffd5b506101bb6106fa565b6040516101c89190610b64565b60405180910390f35b3480156101dc575f5ffd5b506101f760048036038101906101f29190610b7d565b61071f565b6040516102079493929190610c08565b60405180910390f35b6001602052805f5260405f205f915090505481565b5f5f80549050905090565b60035f9054906101000a900473ffffffffffffffffffffffffffffffffffffffff1681565b5f60015f8373ffffffffffffffffffffffffffffffffffffffff1673ffffffffffffffffffffffffffffffffffffffff1681526020019081526020015f20549050919050565b60025f9054906101000a900473ffffffffffffffffffffffffffffffffffffffff1673ffffffffffffffffffffffffffffffffffffffff163373ffffffffffffffffffffffffffffffffffffffff161461032a576040517f08c379a000000000000000000000000000000000000000000000000000000000815260040161032190610c9c565b60405180910390fd5b5f60035f9054906101000a900473ffffffffffffffffffffffffffffffffffffffff1673ffffffffffffffffffffffffffffffffffffffff1663fb3551ff856040518263ffffffff1660e01b81526004016103859190610b1a565b5f60405180830381865afa15801561039f573d5f5f3e3d5ffd5b505050506040513d5f823e3d601f19601f820116820180604052508101906103c79190610d5d565b925050508061040b576040517f08c379a000000000000000000000000000000000000000000000000000000000815260040161040290610e2f565b60405180910390fd5b8260015f8673ffffffffffffffffffffffffffffffffffffffff1673ffffffffffffffffffffffffffffffffffffffff1681526020019081526020015f205f8282546104579190610e7a565b925050819055505f60405180608001604052808673ffffffffffffffffffffffffffffffffffffffff16815260200185815260200142815260200184815250908060018154018082558091505060019003905f5260205f2090600402015f909190919091505f820151815f015f6101000a81548173ffffffffffffffffffffffffffffffffffffffff021916908373ffffffffffffffffffffffffffffffffffffffff1602179055506020820151816001015560408201518160020155606082015181600301908161052991906110b2565b5050505f60045f9054906101000a900473ffffffffffffffffffffffffffffffffffffffff1673ffffffffffffffffffffffffffffffffffffffff1684604051610572906111ae565b5f6040518083038185875af1925050503d805f81146105ac576040519150601f19603f3d011682016040523d82523d5f602084013e6105b1565b606091505b50509050806105f5576040517f08c379a00000000000000000000000000000000000000000000000000000000081526004016105ec9061120c565b60405180910390fd5b60045f9054906101000a900473ffffffffffffffffffffffffffffffffffffffff1673ffffffffffffffffffffffffffffffffffffffff1663e52ccf9986866040518363ffffffff1660e01b815260040161065192919061122a565b5f604051808303815f87803b158015610668575f5ffd5b505af115801561067a573d5f5f3e3d5ffd5b505050508473ffffffffffffffffffffffffffffffffffffffff167f49649141d16971a88c3cfdd73fec34babb1cf163cf8b804c8f537a023c6ce50685856040516106c6929190611251565b60405180910390a25050505050565b60025f9054906101000a900473ffffffffffffffffffffffffffffffffffffffff1681565b60045f9054906101000a900473ffffffffffffffffffffffffffffffffffffffff1681565b5f818154811061072d575f80fd5b905f5260205f2090600402015f91509050805f015f9054906101000a900473ffffffffffffffffffffffffffffffffffffffff169080600101549080600201549080600301805461077d90610eda565b80601f01602080910402602001604051908101604052809291908181526020018280546107a990610eda565b80156107f45780601f106107cb576101008083540402835291602001916107f4565b820191905f5260205f20905b8154815290600101906020018083116107d757829003601f168201915b5050505050905084565b5f604051905090565b5f5ffd5b5f5ffd5b5f73ffffffffffffffffffffffffffffffffffffffff82169050919050565b5f6108388261080f565b9050919050565b6108488161082e565b8114610852575f5ffd5b50565b5f813590506108638161083f565b92915050565b5f6020828403121561087e5761087d610807565b5b5f61088b84828501610855565b91505092915050565b5f819050919050565b6108a681610894565b82525050565b5f6020820190506108bf5f83018461089d565b92915050565b5f819050919050565b5f6108e86108e36108de8461080f565b6108c5565b61080f565b9050919050565b5f6108f9826108ce565b9050919050565b5f61090a826108ef565b9050919050565b61091a81610900565b82525050565b5f6020820190506109335f830184610911565b92915050565b61094281610894565b811461094c575f5ffd5b50565b5f8135905061095d81610939565b92915050565b5f5ffd5b5f5ffd5b5f601f19601f8301169050919050565b7f4e487b71000000000000000000000000000000000000000000000000000000005f52604160045260245ffd5b6109b18261096b565b810181811067ffffffffffffffff821117156109d0576109cf61097b565b5b80604052505050565b5f6109e26107fe565b90506109ee82826109a8565b919050565b5f67ffffffffffffffff821115610a0d57610a0c61097b565b5b610a168261096b565b9050602081019050919050565b828183375f83830152505050565b5f610a43610a3e846109f3565b6109d9565b905082815260208101848484011115610a5f57610a5e610967565b5b610a6a848285610a23565b509392505050565b5f82601f830112610a8657610a85610963565b5b8135610a96848260208601610a31565b91505092915050565b5f5f5f60608486031215610ab657610ab5610807565b5b5f610ac386828701610855565b9350506020610ad48682870161094f565b925050604084013567ffffffffffffffff811115610af557610af461080b565b5b610b0186828701610a72565b9150509250925092565b610b148161082e565b82525050565b5f602082019050610b2d5f830184610b0b565b92915050565b5f610b3d826108ce565b9050919050565b5f610b4e82610b33565b9050919050565b610b5e81610b44565b82525050565b5f602082019050610b775f830184610b55565b92915050565b5f60208284031215610b9257610b91610807565b5b5f610b9f8482850161094f565b91505092915050565b5f81519050919050565b5f82825260208201905092915050565b8281835e5f83830152505050565b5f610bda82610ba8565b610be48185610bb2565b9350610bf4818560208601610bc2565b610bfd8161096b565b840191505092915050565b5f608082019050610c1b5f830187610b0b565b610c28602083018661089d565b610c35604083018561089d565b8181036060830152610c478184610bd0565b905095945050505050565b7f4f6e6c79206f776e6572000000000000000000000000000000000000000000005f82015250565b5f610c86600a83610bb2565b9150610c9182610c52565b602082019050919050565b5f6020820190508181035f830152610cb381610c7a565b9050919050565b5f610ccc610cc7846109f3565b6109d9565b905082815260208101848484011115610ce857610ce7610967565b5b610cf3848285610bc2565b509392505050565b5f82601f830112610d0f57610d0e610963565b5b8151610d1f848260208601610cba565b91505092915050565b5f8115159050919050565b610d3c81610d28565b8114610d46575f5ffd5b50565b5f81519050610d5781610d33565b92915050565b5f5f5f60608486031215610d7457610d73610807565b5b5f84015167ffffffffffffffff811115610d9157610d9061080b565b5b610d9d86828701610cfb565b935050602084015167ffffffffffffffff811115610dbe57610dbd61080b565b5b610dca86828701610cfb565b9250506040610ddb86828701610d49565b9150509250925092565b7f4167656e74206e6f7420616374697665000000000000000000000000000000005f82015250565b5f610e19601083610bb2565b9150610e2482610de5565b602082019050919050565b5f6020820190508181035f830152610e4681610e0d565b9050919050565b7f4e487b71000000000000000000000000000000000000000000000000000000005f52601160045260245ffd5b5f610e8482610894565b9150610e8f83610894565b9250828201905080821115610ea757610ea6610e4d565b5b92915050565b7f4e487b71000000000000000000000000000000000000000000000000000000005f52602260045260245ffd5b5f6002820490506001821680610ef157607f821691505b602082108103610f0457610f03610ead565b5b50919050565b5f819050815f5260205f209050919050565b5f6020601f8301049050919050565b5f82821b905092915050565b5f60088302610f667fffffffffffffffffffffffffffffffffffffffffffffffffffffffffffffffff82610f2b565b610f708683610f2b565b95508019841693508086168417925050509392505050565b5f610fa2610f9d610f9884610894565b6108c5565b610894565b9050919050565b5f819050919050565b610fbb83610f88565b610fcf610fc782610fa9565b848454610f37565b825550505050565b5f5f905090565b610fe6610fd7565b610ff1818484610fb2565b505050565b5f5b828110156110175761100c5f828401610fde565b600181019050610ff8565b505050565b601f82111561106a57828211156110695761103681610f0a565b61103f83610f1c565b61104885610f1c565b6020861015611055575f90505b80830161106482840382610ff6565b505050505b5b505050565b5f82821c905092915050565b5f61108a5f198460080261106f565b1980831691505092915050565b5f6110a2838361107b565b9150826002028217905092915050565b6110bb82610ba8565b67ffffffffffffffff8111156110d4576110d361097b565b5b6110de8254610eda565b6110e982828561101c565b5f60209050601f83116001811461111a575f8415611108578287015190505b6111128582611097565b865550611179565b601f19841661112886610f0a565b5f5b8281101561114f5784890151825560018201915060208501945060208101905061112a565b8683101561116c5784890151611168601f89168261107b565b8355505b6001600288020188555050505b505050505050565b5f81905092915050565b50565b5f6111995f83611181565b91506111a48261118b565b5f82019050919050565b5f6111b88261118e565b9150819050919050565b7f5472616e7366657220746f2062696c6c5265676973747279206661696c6564005f82015250565b5f6111f6601f83610bb2565b9150611201826111c2565b602082019050919050565b5f6020820190508181035f830152611223816111ea565b9050919050565b5f60408201905061123d5f830185610b0b565b61124a602083018461089d565b9392505050565b5f6040820190506112645f83018561089d565b81810360208301526112768184610bd0565b9050939250505056fea264697066735822122054f9b490988a90123789af9d89b6035971f198a05a50ec5da23eb9b7fea5227364736f6c63430008210033","linkReferences":{}},"methodIdentifiers":{"agentRewards(address)":"0843b757","billRegistry()":"cba2f938","distributeReward(address,uint256,string)":"2a7ea9d2","getAgentRewards(address)":"25f18a6d","getIncentiveCount()":"1168d42a","identityRegistry()":"134e18f4","incentives(uint256)":"e121c102","owner()":"8da5cb5b"},"id":4}